:100000000C946C0A0C94970A0C94970A0C94970A17
:100010000C94970A0C94970A0C94970A0C94970ADC
:100020000C94970A0C94018A0C94B8930C94329215
:100030000C94970A0C94970A0C94970A0C94970ABC
:100040000C94970A0C9460710C94970A0C94970A7C
:100050000C94970A0C94970A0C94C77A0C94FB9012
:100060000C94970A0C94970A0C94970A0C94970A8C
:100070000C94970A0C94970A0C94970A0C94970A7C
:100080000C94970A0C94970A0C94970A0C94970A6C
:100090000C94EA8B0C94970AC61DBE1DC61DCB1D81
:1000A000D21DD21DD71DD21DF31DF31DF31DF31D4F
:1000B000DC1DF31DF31DF31DE41DE11DE41DE61D14
:1000C000D71DF31DF31DE81DEC1D084AD73B3BCEA1
:1000D000016E84BCBFFDC12F3D6C74319ABD568347
:1000E0003DDA3D00C77F11BED9E4BB4C3E916BAAFF
:1000F000AABE000000803F05A84CCDB2D44EB9384E
:1001000036A9020C50B9918688083CA6AAAA2ABE34
:10011000000000803F6563686F3A00486172646365
:100120006F6465642044656661756C742053657402
:1001300074696E6773204C6F616465640053746FFB
:100140007265642073657474696E67732072657478
:1001500072696576656400204500205A00205900C8
:1001600020204D3231332058005374657070657211
:10017000206D6F746F7220686F6C64696E672063A6
:10018000757272656E74202825293A00205A002065
:10019000590020204D3231322058004265642070D1
:1001A000726F6265206F666673657420286D6D29B5
:1001B0003A00205A0020590020204D323131205879
:1001C000004D617820706F736974696F6E20286DBF
:1001D0006D293A00205A0020590020204D3231303C
:1001E0002058004D696E20706F736974696F6E20BE
:1001F000286D6D293A002044002049002020204D20
:100200003330312050005049442073657474696E56
:1002100067733A00205A0020590020204D323036B2
:10022000205800486F6D65206F66667365742028DE
:100230006D6D293A00204500205A002058002042C8
:100240000020540020204D32303520530041647688
:10025000616E636564207661726961626C65733A90
:1002600020533D4D696E206665656472617465203A
:10027000286D6D2F73292C20543D4D696E207472AA
:100280006176656C20666565647261746520286DB1
:100290006D2F73292C20423D6D696E696D756D203F
:1002A0007365676D656E742074696D6520286D7364
:1002B000292C20583D6D6178696D756D2058592045
:1002C0006A65726B20286D6D2F73292C20205A3D92
:1002D0006D6178696D756D205A206A65726B202892
:1002E0006D6D2F73292C2020453D6D6178696D75EA
:1002F0006D2045206A65726B20286D6D2F73290073
:1003000020540020204D3230342053004163636577
:100310006C65726174696F6E3A20533D6163636509
:100320006C65726174696F6E2C20543D72657472D5
:1003300061637420616363656C65726174696F6E7B
:1003400000204500205A0020590020204D32303135
:100350002058004D6178696D756D20416363656C4F
:1003600065726174696F6E20286D6D2F7332293A42
:1003700000204500205A0020590020204D32303303
:100380002058004D6178696D756D206665656472F1
:100390006174657320286D6D2F73293A0020450024
:1003A000205A0020590020204D3932205800537423
:1003B0006570732070657220756E69743A005365BC
:1003C0007474696E67732053746F7265640065633B
:1003D000686F3A004572726F723A005072696E74BB
:1003E00065722073746F7070656420647565207425
:1003F0006F206572726F72732E2046697820746860
:1004000065206572726F7220616E6420757365205D
:100410004D39393920746F20726573746172742E8E
:10042000202854656D7065726174757265206973FA
:100430002072657365742E20536574206974206181
:10044000667465722072657374617274696E67296F
:10045000005072696E7465722068616C7465642EF8
:10046000206B696C6C28292063616C6C65642100C9
:100470006F6B00526573656E643A20002200556E02
:100480006B6E6F776E20636F6D6D616E643A2022C4
:10049000007A5F6D696E3A2000795F6D696E3A206F
:1004A00000785F6D696E3A20005A3A00593A002090
:1004B000436F756E7420583A2000453A005A3A004E
:1004C000593A00583A004D616368696E652D547958
:1004D00070653A20506F6C61722033442C2046695D
:1004E000726D776172652D56657273696F6E3A2011
:1004F000312E312E313630383238612020202041E3
:100500006C6C2052696768747320526573657276EB
:1005100065642C20506F6C6172203344204C4C4336
:100520000A0020423A0020453A00543A0020573A47
:100530000020453A00543A002042403A0020403A18
:1005400000202F003A00205400202F0020423A00C3
:10055000202F006F6B20543A002569206D696E2CA6
:1005600020256920736563000A00205A3A20002084
:10057000593A200042656420506F736974696F6E48
:1005800020583A200020643A200020623A2000459A
:10059000716E20636F656666696369656E74733A30
:1005A00020613A20000A00207A3A200020793A207F
:1005B0000042656420783A2000000070410000A0ED
:1005C0004000004040FFFFFF5072696E746572206A
:1005D00073746F707065642064756520746F206536
:1005E00072726F72732E2046697820746865206578
:1005F00072726F7220616E6420757365204D393997
:100600003920746F20726573746172742E202854BF
:10061000656D7065726174757265206973207265AD
:100620007365742E20536574206974206166746547
:10063000722072657374617274696E6729006F6BE2
:10064000004E6F204C696E65204E756D626572209C
:100650007769746820636865636B73756D2C204CD3
:10066000617374204C696E653A20004E6F204368B8
:1006700065636B73756D2077697468206C696E654E
:10068000206E756D6265722C204C617374204C690C
:100690006E653A2000636865636B73756D206D69E4
:1006A000736D617463682C204C617374204C696EA7
:1006B000653A20004C696E65204E756D626572204A
:1006C0006973206E6F74204C617374204C696E6581
:1006D000204E756D6265722B312C204C6173742035
:1006E0004C696E653A20004D313130002020506C4D
:1006F000616E6E6572427566666572427974657385
:100700003A20002046726565204D656D6F72793A1A
:100710002000417567203238203230313600436F77
:100720006D70696C65643A200028506F6C6172339B
:10073000442C20506F6C6172203344204D61726CE8
:10074000696E204669726D776172652900207C2090
:10075000417574686F723A20004175672032382005
:10076000323031362030373A31353A343500204C8A
:1007700061737420557064617465643A2000312E91
:10078000302E30004D61726C696E200020536F6610
:1007900074776172652052657365740020576174C7
:1007A0006368646F67205265736574002042726FDE
:1007B000776E206F757420526573657400204578DC
:1007C0007465726E616C20526573657400506F774A
:1007D00065725570007374617274002200656E71E9
:1007E0007565696E672022002200656E7175656906
:1007F0006E672022006563686F3A0020746F6F2077
:100800006C6F6E6720657874727573696F6E207097
:10081000726576656E7465640020636F6C64206534
:100820007874727573696F6E2070726576656E7418
:1008300065640045313A200045303A20005A3A209C
:1008400000593A2000583A20004D53312C4D533274
:100850002050696E730A006563686F3A00280029AA
:1008600020453A00280029205A3A0028002920591A
:100870003A00280020583A00537465707065722061
:1008800063757272656E742076616C756573205B3A
:100890002528726177295D3A0024F404D9201BC40D
:1008A0000C5C0E9804C4095F0265077101F405F938
:1008B00000FB04B30048048700C1036900580355D6
:1008C0000003034500BE023A008402310053022AAD
:1008D000002902250004022000E4011C00C80119BF
:1008E00000AF01170098011400840113007101107A
:1008F000006101100051010E0043010D0036010B93
:10090000002B010B0020010B00150109000C01094F
:100910000003010800FB000800F3000800EB0007DB
:1009200000E4000600DE000600D8000600D2000643
:1009300000CC000500C7000500C2000500BD000492
:1009400000B9000400B5000400B1000400AD0004CB
:1009500000A9000400A5000300A20003009F0004FA
:10096000009B000300980003009500020093000321
:1009700000900003008D0002008B0003008800023D
:10098000008600020084000300810002007F000254
:10099000007D0002007B0002007900020077000168
:1009A0000076000200740002007200010071000273
:1009B000006F0002006D0001006C0002006A00017F
:1009C0000069000200670001006600010065000187
:1009D000006400020062000100610001006000018B
:1009E000005F0002005D0001005C0001005B00018F
:1009F000005A000100590001005800010057000191
:100A00000056000100550001005400010053000091
:100A1000005300010052000100510001005000018C
:100A2000004F0001004E0000004E0001004D00018B
:100A3000004C0001004B0000004B0001004A000187
:100A40000049000100480000004800010047000183
:100A5000004600000046000100450000004500017E
:100A60000044000100430000004300010042000078
:100A7000004200010041000000410001004000016F
:100A8000003F0000003F0001003E0000003E00016A
:100A9000003D0000003D0001003C0000003C000063
:100AA000003C0001003B0000003B0001003A000058
:100AB000003A000100390000003900010038000050
:100AC0000038000000380001003700000037000146
:100AD000003600000036000000360001003500003E
:100AE0000035000000350001003400000034000033
:100AF0000034000100330000003300000033000127
:100B0000003200000032000000320001003100001D
:100B10000031000000310001003000000030000012
:100B200000300001002F0000002F0000002F000007
:100B3000002F0001002E0000002E0000002E0001FA
:100B4000002D0000002D0000002D0000002D0001F0
:100B5000002C0000002C0000002C0000002C0001E4
:100B6000002B0000002B0000002B0000002B0001D8
:100B7000002A0000002A0000002A0000002A0001CC
:100B800000290000002900000029000000290000C1
:100B900000290001002800000028000000280000B3
:100BA00000280000002800010027000000270000A6
:100BB0000027000000270000002700010026000099
:100BC000002600000026000000260000002600018C
:100BD0000025000000250000002500000025000081
:100BE0000025000000250001002400000024000072
:100BF0000024000000240000002400010023000065
:100C00000023000000230000002300000023000058
:100C10000023000000230001002200000022000049
:100C2000002200000022000000220000002200013B
:100C30000021000000210000002100000021000030
:100C40000021000000210000002100010020000020
:100C50000020000000200000002000000020000014
:100C6000002000000020000000200001001F000004
:100C7000001F0000001F0000001F0000001F0000F8
:100C8000001F0000001F0001001E0000001E0000E9
:100C9000001E0000001E00000024F4D43050C38E5B
:100CA00020C2A24017828B7011127A910D816CD9EB
:100CB0000AA861E108C7586607615143061E4B5DEB
:100CC00005C145A7041A411104093D980371393142
:100CD000034036DB0265339102D4305402802E1D6E
:100CE00002632CEE01752AC501B028A001102781EE
:100CF000018F2564012B244B01E0223401AC211F1C
:100D0000018D200D01801FFC00841EED00971DDF6A
:100D100000B81CD200E61BC600201BBC00641AB23F
:100D200000B219A8000A19A0006A189900D11791F9
:100D30000040178B00B516840031167E00B315797C
:100D4000003A157300C7146F0058146A00EE13665A
:100D5000008813630025135E00C7125B006C1257F6
:100D60000015125400C111510070114F0021114B98
:100D700000D61049008D1047004610440002104272
:100D800000C00F4000800F3E00420F3C00060F3BAA
:100D900000CB0E3800930E37005C0E3500270E3462
:100DA00000F30D3200C10D3100900D3000600D2EAA
:100DB00000320D2D00050D2C00D90C2B00AE0C2996
:100DC00000850C29005C0C2700350C27000E0C2632
:100DD00000E80B2400C40B2400A00B23007D0B2390
:100DE000005A0B2100390B2100180B2000F80A1FB4
:100DF00000D90A1E00BB0A1E009D0A1D00800A1DA4
:100E000000630A1C00470A1B002C0A1B00110A1A67
:100E100000F7091A00DD091900C4091900AB091906
:100E200000920917007B091800630917004C091686
:100E30000036091600200916000A091500F50815E4
:100E400000E0081400CC081400B8081400A408142A
:100E500000900813007D0812006B08130058081258
:100E6000004608120034081100230811001208116E
:100E70000001081100F0071000E0071000D0071073
:100E800000C0071000B0070F00A107100091070E67
:100E90000083070F0074070F0065070E0057070E49
:100EA0000049070E003B070D002E070E0020070D1E
:100EB0000013070D0006070D00F9060C00ED060DE6
:100EC00000E0060C00D4060C00C8060C00BC060CA2
:100ED00000B0060C00A4060B0099060C008D060B52
:100EE0000082060B0077060B006C060B0061060AF9
:100EF0000057060B004C060A0042060A0038060A94
:100F0000002E060A0024060A001A060A0010060926
:100F10000007060A00FD050900F4050900EB0509B4
:100F200000E2050900D9050900D0050900C7050937
:100F300000BE050900B5050800AD050800A50509B6
:100F4000009C050800940508008C0508008405082D
:100F5000007C050800740508006C0507006505089D
:100F6000005D050700560508004E05070047050708
:100F7000004005080038050700310507002A05076D
:100F800000230507001C050600160507000F0507CE
:100F9000000805060002050700FB040600F504072B
:100FA00000EE040600E8040600E2040700DB040685
:100FB00000D5040600CF040600C9040600C30406D9
:100FC00000BD040600B7040600B1040500AC040629
:100FD00000A6040600A00405009B04060095040575
:100FE00000900406008A04050085040500800406BC
:100FF000007A04050075040500700405006B040503
:101000000066040500610405005C04050057040542
:1010100000520405004D0405004804050043040582
:10102000003E0404003A04050035040500300404C1
:10103000002C04050027040400230405001E0404FA
:10104000001A04040016040500110404000D040431
:1010500000090405000404040000040400FC030467
:1010600000F8030400F4030400F0030400EC03049C
:1010700000E8030400E4030400E0030400DC0304CC
:1010800000D8030400D4030400D0030400CC0304FC
:1010900000C8030300C5030300205A3A0020593A50
:1010A0000020583A00656E6473746F70732068692D
:1010B000743A20004572726F723A0054656D706523
:1010C000726174757265206865617465642062651B
:1010D00064207377697463686564206F66662E2088
:1010E0004D415854454D502074726967676572656B
:1010F00064202121003A204578747275646572205D
:101100007377697463686564206F66662E204D4945
:101110004E54454D5020747269676765726564204E
:1011200021003A204578747275646572207377697E
:101130007463686564206F66662E204D415854457F
:101140004D502074726967676572656420210020C4
:101150002D20496E76616C696420657874727564BF
:101160006572206E756D62657220210050494420C1
:101170004175746F74756E652066696E6973686514
:1011800064212050757420746865204B702C204BAE
:101190006920616E64204B6420636F6E7374616EAE
:1011A000747320696E746F20436F6E666967757221
:1011B0006174696F6E2E6800504944204175746FE8
:1011C00074756E65206661696C6564212074696D53
:1011D000656F75740020403A006F6B20543A006FC1
:1011E0006B20423A00504944204175746F74756E0B
:1011F00065206661696C6564212054656D70657257
:10120000617475726520746F6F206869676800206B
:101210004B643A2000204B693A2000204B703A2062
:101220000020436C617369632050494420002054BE
:10123000753A2000204B753A2000206D61783A20E5
:1012400000206D696E3A200020643A200020626917
:1012500061733A200070012C0190012701B0012236
:1012600001C0011D01F00118011002130130020E2E
:10127000016002090190020401C002FF000003FAAC
:10128000004003F5008003F000D003EB002004E6EB
:10129000007004E100E004DC004005D700C005D286
:1012A000004006CD00D006C8008007C3003008BE4D
:1012B00000F008B900C009B400B00AAF00B00BAA32
:1012C00000D00CA500000EA000500F9B00C010968F
:1012D000005012910000148C00C0158700B01782D6
:1012E00000B0197D00D01B7800001E730040206EF6
:1012F0000090226900F024640040275F0090295A82
:1013000000E02B5500102E500020304B00103246CC
:1013100000E033410090353C001037370070383220
:1013200000A0392D00B03A2800A03B2300603C1EED
:1013300000103D1900903D1400103E0F00703E0A51
:1013400000C03E0500003F00000A0020000A002007
:101350007A3A200020793A200020783A20000129AA
:101360000229042908291029202940298029012C33
:10137000022C0126022604260826102620264026B6
:101380008026402C802C01230223042308231023D1
:101390002023402380230120022004200820102045
:1013A000202040208020102C202C012F022F042FE1
:1013B000082F102F202F402F802F7EFE7EFD7EFBDA
:1013C0007EF77EEF7EDF7EBF7E7F00010000FE1392
:1013D0001200020000101443000300005314040123
:1013E00003090457141802030904711416030309AE
:1013F0000489140C0001C1020180360181361201FA
:10140000000202000020C016830400010102030153
:1014100009024300020100C0320904000001020277
:101420000100052400100105240100010424020626
:101430000524060001070582030800400904010095
:10144000020A0000000705030240000007058402AD
:101450004000000403090418035400650065006E91
:1014600000730079006400750069006E006F000071
:10147000001603550053004200200053006500721F
:1014800000690061006C0000000C03310032003381
:1014900000340035000000494E46494E4954594E2B
:1014A000414ECDCCCC3D0AD7233C17B7D13877CCB1
:1014B0002B329595E6241FB14F0A00002041000011
:1014C000C84200401C4620BCBE4CCA1B0E5AAEC5CA
:1014D0009D74A36F728A099711241FBECFEFD0E2CB
:1014E000DEBFCDBF13E0A0E0B1E0E2EBF9E301E045
:1014F0000BBF02C007900D92AA35B107D9F71BBEEA
:101500001CE0AAE5B3E001C01D92A93CB107E1F7D8
:1015100014E1C8EDD4E104C02297FE010E94919C21
:10152000C23DD107C9F70E9436940C94D79C0C9405
:101530000000A0E0B0E0EFE9FAE00C94A69CEC011A
:101540005B016115710519F0FB0191838083F990AE
:101550008F2D90E00E94959C892BC9F7FDE2FF1624
:1015600021F4F990EE24E39405C02BE2F21609F47D
:10157000F990EE248E0101501040C80167E974E132
:1015800043E050E062D2892BF9F48E010E5F1F4FC9
:10159000C8016AE974E145E050E057D2892B19F49B
:1015A0008E01095F1F4FA114B10419F0F5011183D9
:1015B0000083E0FC04C070E090E080E813C070E0BD
:1015C00090E080E86FEF07C1C8016FE974E143E084
:1015D00050E03BD2892B69F4A114B10429F470E0E6
:1015E00090E080EC6FE7F7C02296F501D183C083CD
:1015F000F6CF8824992440E050E060E070E0EF2DC1
:10160000E053EA30A0F5F2E0EF2A8E2D90E09C0145
:1016100028703070E2FE06C0232B79F50894811CF7
:10162000911C2BC0232B19F0089481089108DB0131
:10163000CA0112E0880F991FAA1FBB1F1A95D1F784
:10164000480F591F6A1F7B1F440F551F661F771FC6
:101650004E0F511D611D711D483929E9520729E9B5
:10166000620729E1720748F084E0E82A06C0EE3FED
:1016700031F4E3FC39C098E0E92AF990C0CFE533B2
:1016800011F0E53189F529912D3219F4E0E1EE2AC6
:1016900005C02B3219F081E090E003C0299182E06F
:1016A00090E0E22FE053EA3018F0C81BD90B1CC0C1
:1016B00020E030E0FCE020383F075CF4C901880FEF
:1016C000991F880F991F280F391F220F331F2E0FC4
:1016D000311DE991E053EA3068F3E4FE03C0309530
:1016E00021953F4F820E931ECE2CDD24E1FE07C0D4
:1016F000A114B10421F02197F501D183C083CB015E
:10170000BA010E94FA987B018C01F3E0CF22DD241C
:1017100023E0C216D10421F417FB109517F9109598
:1017200057016801C801B70120E030E040E050E017
:101730000E945A98882309F44AC097FE0DC026EBF0
:10174000E22E24E1F22E9094819491089394C0E2C9
:10175000D0E000E010E012C09EECE92E94E1F92EFA
:10176000F6CFF7012591359145915491C601B50108
:101770000E943A9B5B016C018C1A9D0A8C169D0697
:1017800084F7D595C7950F5F1F4F0630110529F0D7
:101790008CEF9FEFE80EF91EF1CFC501D6017C0159
:1017A0008D018C2D880F8D2D881F8F3F51F0C60124
:1017B000B50120E030E040E050E00E945A988823D4
:1017C00031F482E290E09093C80C8093C70C7E2D98
:1017D0009F2D802F612F272F392F482F562FB9018A
:1017E000CA01CDB7DEB7ECE00C94C29C2F923F92B9
:1017F0005F926F927F928F929F92AF92BF92CF92A1
:10180000DF92EF92FF920F931F93CF93DF938C01A0
:101810001B01EA016115710519F0FB0191838083B9
:10182000209749F0CE010297839728F020E030E01E
:1018300040E050E0F6C0F801A1908F018A2D90E0C1
:101840000E94959C892BB9F7FDE2AF1631F4F8019F
:10185000A1908F015524539407C0FBE2AF1619F4F1
:10186000F801A1908F015524209719F0C031D105BE
:10187000C1F4F0E3AF1679F4F8018081883711F0F4
:10188000883549F4F801A1800E5F1F4FF2E05F2A0E
:10189000C0E1D0E006C0209721F480E3A816E9F467
:1018A00027C0C830D10531F1C930D10524F4C23088
:1018B000D10531F50CC0CA30D10589F0C031D10550
:1018C000F9F4C12CD12CE12CB8E0FB2E28C0C12C9E
:1018D000D12CE12CA0E4FA2E22C0CAE0D0E0FCEC2E
:1018E000CF2EFCECDF2EFCECEF2EFCE0FF2E17C021
:1018F000C8E0D0E0C12CD12CE12CE0E1FE2E0FC0DD
:101900009E01442737FD4095542F60E070E080E051
:1019100090E80E94529CC901DA016C017D0120E02F
:1019200030E040E050E060E03E01882477FC8094A5
:10193000982C70EDB72EBA0CE9E0EB1570F48A2DF7
:1019400081548A3118F499ECB92E06C08A2D81563B
:101950008A3150F589EAB82EBA0C8B2D90E08C179D
:101960009D0714F56F3FE1F0C216D306E406F506B5
:10197000B0F0CA01B901A40193010E940C9C9B0123
:10198000AC012B0D311D411D511D2130F0E03F07F1
:10199000F0E04F07F0E85F0710F461E001C06FEF7F
:1019A000F801A1908F01C5CF2114310481F0662385
:1019B00031F001501040F1011183008308C051FE45
:1019C0001AC002501040F1011183008314C067FF58
:1019D00012C050FC05C02FEF3FEF4FEF5FE704C090
:1019E00020E030E040E050E882E290E09093C80CC4
:1019F0008093C70C16C050FE08C050954095309596
:101A000021953F4F4F4F5F4F0CC057FF0AC082E2F6
:101A100090E09093C80C8093C70C2FEF3FEF4FEFEF
:101A20005FE7B901CA01DF91CF911F910F91FF903C
:101A3000EF90DF90CF90BF90AF909F908F907F906E
:101A40006F905F903F902F900895FB01DC01415013
:101A5000504088F08D9181341CF08B350CF4805E01
:101A6000659161341CF06B350CF4605E861B61116E
:101A700071F3990B0895881BFCCFFB0155915523F9
:101A8000A9F0BF01DC014D9145174111E1F759F46F
:101A9000CD010590002049F04D9140154111C9F349
:101AA000FB014111EFCF81E090E001970895FC0127
:101AB0008191861721F08823D9F7992708953197C6
:101AC000CF010895FB01DC014150504030F08D9171
:101AD0000190801919F40020B9F7881B990B08951B
:101AE000AEE0B0E0E6E7FDE00C94AE9C0D891E8907
:101AF0008EE08C831A8309838FEF9FE79E838D830B
:101B00009E01275E3F4FCE0101966F89788DA90116
:101B10000AD02F813885020F131FF80110822E96EC
:101B2000E4E00C94CA9CABE0B0E0E9E9FDE00C9481
:101B3000A09C3C012B015A01FC0117821682838173
:101B400081FD03C06FEF7FEFB9C19AE0892E1E01BE
:101B50000894211C311CF3012381F20123FD85919E
:101B600023FF81912F01882309F4A5C1853239F41F
:101B700023FD859123FF81912F01853221F490E08F
:101B8000B301B7D1E8CF982FFF24EE249924FFE1C9
:101B9000FF15D0F09B3269F09C3228F4903259F056
:101BA000933291F40EC09D3249F0903369F441E0D4
:101BB00024C052E0F52A84E0F82A28C098E0F92AE7
:101BC00025C0E0E1FE2A22C0F7FC29C0892F8053FE
:101BD0008A3070F4F6FE05C0989C902C1124980E63
:101BE00015C0E89CE02C1124E80EF0E2FF2A0EC09C
:101BF0009E3229F4F6FC5FC140E4F42A07C09C360B
:101C000019F450E8F52A02C0983649F4F20123FD90
:101C1000959123FF91912F01992309F0B8CF892F36
:101C20008554833018F08052833038F444E050E01B
:101C3000A40EB51E5FE359830FC0933631F093377E
:101C400079F0933509F052C01FC0F5018081898376
:101C500042E050E0A40EB51E610101E010E011C0A9
:101C6000F501C080D180F6FC03C06FEF7FEF02C0AA
:101C7000692D70E042E050E0A40EB51EC6012ED1E1
:101C80008C015FE7F52213C0F501C080D180F6FC1E
:101C900003C06FEF7FEF02C0692D70E042E050E0BB
:101CA000A40EB51EC6010FD18C0150E8F52AF3FE33
:101CB00006C018C080E290E0B3011BD1EA948E2DDB
:101CC00090E008171907B0F30DC0F601F7FC8591F5
:101CD000F7FE81916F0190E0B3010BD1E110EA941E
:101CE000015010400115110581F7E2C0943611F042
:101CF000993661F5F7FE08C0F501208131814281F6
:101D0000538184E090E00AC0F501808191819C01BB
:101D1000442737FD4095542F82E090E0A80EB91E6D
:101D20009FE6F92257FF09C05095409530952195BF
:101D30003F4F4F4F5F4FE0E8FE2ACA01B901A101B2
:101D40002AE030E002D1D82ED2183FC0953729F4CE
:101D50001F2D1F7E2AE030E01DC01F2D197F9F36EA
:101D600061F0903720F4983509F0A5C00FC0903786
:101D700039F0983709F09FC004C028E030E00AC06D
:101D8000106114FD146020E130E004C014FD166001
:101D900020E132E017FF08C0F50160817181828186
:101DA000938144E050E008C0F50180819181BC013D
:101DB00080E090E042E050E0A40EB51EA101C5D045
:101DC000D82ED2188FE7F82EF122F6FE0BC05EEF68
:101DD000F522D91438F4F4FE07C0F2FC05C08FEEEA
:101DE000F82202C01D2D01C0192DF4FE0DC0FE0108
:101DF000ED0DF11D8081803319F499EEF92208C0B0
:101E00001F5FF2FE05C003C08F2D867809F01F5FAB
:101E10000F2DF3FC13C0F0FE0EC01E1510F09D2C0C
:101E20000AC09D2C9E0C911A1E2D05C080E290E0E8
:101E3000B3015FD01F5F1E15C8F304C01E1510F458
:101E4000E11A01C0EE2404FF0EC080E390E0B3016C
:101E500050D002FF1BC001FD03C088E790E00EC018
:101E600088E590E00BC0802F867881F001FF02C0EA
:101E70008BE201C080E2F7FC8DE290E0B30139D043
:101E800005C080E390E0B30134D09A94D914C8F32C
:101E9000DA94F101ED0DF11D808190E0B30129D0BC
:101EA000DD20B1F705C080E290E0B30122D0EA94D2
:101EB000EE20C9F750CEF30166817781CB012B96D6
:101EC000E2E10C94BC9CFC01059061507040011053
:101ED000D8F7809590958E0F9F1F0895FC01615053
:101EE000704001900110D8F7809590958E0F9F1F3C
:101EF00008950F931F93CF93DF938C01EB018B8198
:101F000081FF1BC082FF0DC02E813F818C819D818E
:101F10002817390764F4E881F9810193F983E8838C
:101F200006C0E885F985802F0995892B31F48E81CB
:101F30009F8101969F838E8302C00FEF1FEFC80120
:101F4000DF91CF911F910F910895FA01AA272830B0
:101F500051F1203181F1E8946F936E7F6E5F7F4F76
:101F60008F4F9F4FAF4FB1E03ED0B4E03CD0670FF2
:101F7000781F891F9A1FA11D680F791F8A1F911D45
:101F8000A11D6A0F711D811D911DA11D20D009F495
:101F900068943F912AE0269F11243019305D3193D7
:101FA000DEF6CF010895462F4770405D4193B3E0C0
:101FB0000FD0C9F7F6CF462F4F70405D4A3318F067
:101FC000495D31FD4052419302D0A9F7EACFB4E018
:101FD000A6959795879577956795BA95C9F70097D0
:101FE0006105710508959B01AC010A2E0694579571
:101FF000479537952795BA95C9F7620F731F841FC8
:10200000951FA01D0895DF93CF930F92CDB7DEB734
:10201000FC016983A081B18112962D913C911397A7
:10202000BE016F5F7F4F41E050E0F90109950F90CD
:10203000CF91DF9108950F931F93DF93CF93CDB787
:10204000DEB766970FB6F894DEBF0FBECDBF8091A6
:10205000000190910101A0910201B09103018F87CD
:10206000988BA98BBA8BFE013F9644E650E08081A5
:10207000F999FECF1FBA52BD41BD80BD0FB6F8948D
:10208000FA9AF99A0FBE4F5F5F4F4836510511F02B
:102090003196EDCFE1E8F5E08081F999FECF1FBAE6
:1020A00052BD41BD80BD0FB6F894FA9AF99A0FBEA1
:1020B0004F5F5F4F4837510511F03196EDCFE1E7A3
:1020C000F5E08081F999FECF1FBA52BD41BD80BDB8
:1020D0000FB6F894FA9AF99A0FBE4F5F5F4F4838DF
:1020E000510511F03196EDCFE1E9F5E08081F999E4
:1020F000FECF1FBA52BD41BD80BD0FB6F894FA9A0B
:10210000F99A0FBE4F5F5F4F4839510511F0319674
:10211000EDCFE5EAF5E08081F999FECF1FBA52BD17
:1021200041BD80BD0FB6F894FA9AF99A0FBE4F5F81
:102130005F4F4C39510511F03196EDCFE9EAF5E0EA
:102140008081F999FECF1FBA52BD41BD80BD0FB647
:10215000F894FA9AF99A0FBE4F5F5F4F403A5105D3
:1021600011F03196EDCFE1EAF5E08081F999FECFEB
:102170001FBA52BD41BD80BD0FB6F894FA9AF99AC4
:102180000FBE4F5F5F4F443A510511F03196EDCFCE
:10219000E9EBF5E08081F999FECF1FBA52BD41BD50
:1021A00080BD0FB6F894FA9AF99A0FBE4F5F5F4F51
:1021B000483A510511F03196EDCFEDE6F5E080811A
:1021C000F999FECF1FBA52BD41BD80BD0FB6F8943C
:1021D000FA9AF99A0FBE4F5F5F4F4C3A510511F0D2
:1021E0003196EDCFEDEAF5E08081F999FECF1FBA87
:1021F00052BD41BD80BD0FB6F894FA9AF99A0FBE50
:102200004F5F5F4F403B510511F03196EDCFE1EB51
:10221000F5E08081F999FECF1FBA52BD41BD80BD66
:102220000FB6F894FA9AF99A0FBE4F5F5F4F443B8E
:10223000510511F03196EDCFE5EBF5E08081F9998C
:10224000FECF1FBA52BD41BD80BD0FB6F894FA9AB9
:10225000F99A0FBE4F5F5F4F483B510511F0319621
:10226000EDCFE2E7F3E08081F999FECF1FBA52BDCE
:1022700041BD80BD0FB6F894FA9AF99A0FBE4F5F30
:102280005F4F443C510511F03196EDCF84EB90E067
:102290009A8389831C821B822FEF30E03E832D833B
:1022A00080EF90E098878F831A8619863C872B876A
:1022B000FE0131968081F999FECF1FBA52BD41BD12
:1022C00080BD0FB6F894FA9AF99A0FBE4F5F5F4F30
:1022D000463C510571F7FE0133968081F999FECF96
:1022E0001FBA52BD41BD80BD0FB6F894FA9AF99A53
:1022F0000FBE4F5F5F4F483C510511F03196EDCF57
:10230000FE0135968081F999FECF1FBA52BD41BDBD
:1023100080BD0FB6F894FA9AF99A0FBE4F5F5F4FDF
:102320004A3C510511F03196EDCFFE013796808180
:10233000F999FECF1FBA52BD41BD80BD0FB6F894CA
:10234000FA9AF99A0FBE4F5F5F4F4C3C510511F05E
:102350003196EDCFFE0139968081F999FECF1FBAF3
:1023600052BD41BD80BD0FB6F894FA9AF99A0FBEDE
:102370004F5F5F4F4E3C510511F03196EDCFFE019E
:102380003B968081F999FECF1FBA52BD41BD80BDF9
:102390000FB6F894FA9AF99A0FBE4F5F5F4F403D1F
:1023A000510511F03196EDCFE5E5F2E08081F99924
:1023B000FECF1FBA52BD41BD80BD0FB6F894FA9A48
:1023C000F99A0FBE4F5F5F4F443D510511F03196B2
:1023D000EDCFE9E5F2E08081F999FECF1FBA52BD59
:1023E00041BD80BD0FB6F894FA9AF99A0FBE4F5FBF
:1023F0005F4F483D510511F03196EDCFEDE5F2E02C
:102400008081F999FECF1FBA52BD41BD80BD0FB684
:10241000F894FA9AF99A0FBE4F5F5F4F4C3D510501
:1024200011F03196EDCFE3EAF2E08081F999FECF29
:102430001FBA52BD41BD80BD0FB6F894FA9AF99A01
:102440000FBE4F5F5F4F403E510511F03196EDCF0B
:10245000E7EAF2E08081F999FECF1FBA52BD41BD93
:1024600080BD0FB6F894FA9AF99A0FBE4F5F5F4F8E
:10247000443E510511F03196EDCFEBEAF2E0808158
:10248000F999FECF1FBA52BD41BD80BD0FB6F89479
:10249000FA9AF99A0FBE4F5F5F4F483E510511F00F
:1024A0003196EDCF80E290E09E878D87FE013D96CC
:1024B0008081F999FECF1FBA52BD41BD80BD0FB6D4
:1024C000F894FA9AF99A0FBE4F5F5F4F4A3E510552
:1024D00011F03196EDCFE7E9F3E08081F999FECF75
:1024E0001FBA52BD41BD80BD0FB6F894FA9AF99A51
:1024F0000FBE4F5F5F4F4E3E510511F03196EDCF4D
:10250000E9E4F2E08081F999FECF1FBA52BD41BDE6
:1025100080BD0FB6F894FA9AF99A0FBE4F5F5F4FDD
:10252000423F510511F03196EDCFEBE9F3E08081A8
:10253000F999FECF1FBA52BD41BD80BD0FB6F894C8
:10254000FA9AF99A0FBE4F5F5F4F463F510511F05F
:102550003196EDCFEDE4F2E08081F999FECF1FBA1C
:1025600052BD41BD80BD0FB6F894FA9AF99A0FBEDC
:102570004F5F5F4F4A3F510511F03196EDCFEFE9C4
:10258000F3E08081F999FECF1FBA52BD41BD80BDF5
:102590000FB6F894FA9AF99A0FBE4F5F5F4F4E3F0D
:1025A000510511F03196EDCFE1E5F2E08081F99926
:1025B000FECF1FBA52BD41BD80BD0FB6F894FA9A46
:1025C000F99A0FBE81E04130580721F04F5F5F4F0D
:1025D0003196ECCF2091E60AF999FECF1FBA82E03E
:1025E00091E092BD81BD20BD0FB6F894FA9AF99A98
:1025F0000FBE2091E70AF999FECF1FBA83E091E060
:1026000092BD81BD20BD0FB6F894FA9AF99A0FBE1B
:102610002091E80AF999FECF1FBA84E091E092BDBB
:1026200081BD20BD0FB6F894FA9AF99A0FBE209199
:10263000E90AF999FECF1FBA85E091E092BD81BD0C
:1026400020BD0FB6F894FA9AF99A0FBE8091040152
:1026500090910501A0910601B09107018B8B9C8B95
:10266000AD8BBE8BFE01739684E690E02081F999D4
:10267000FECF1FBA92BD81BD20BD0FB6F894FA9A65
:10268000F99A0FBE8736910519F001963196EECF73
:10269000E5E1F1E064918F0107C08BEB9CE0B3DCD6
:1026A0000F5F1F4FF80164916623B9F7EEEBF3E07B
:1026B00064918F0107C08BEB9CE0A5DC0F5F1F4F7F
:1026C000F80164916623B9F78BEB9CE06AE09BDC30
:1026D00066960FB6F894DEBF0FBECDBFCF91DF91E7
:1026E0001F910F910895EF92FF920F931F93DF9325
:1026F000CF93CDB7DEB7E0970FB6F894DEBF0FBE2D
:10270000CDBFDE011196E6EEF2E080E101900D9280
:102710008150E1F7DE015196E6EDF2E080E10190B3
:102720000D928150E1F7DE019196E6ECF2E080E156
:1027300001900D928150E1F789819A81AB81BC8132
:102740008093810590938205A0938305B0938405BF
:1027500089899A89AB89BC898093710590937205A8
:10276000A0937305B093740589A19AA1ABA1BCA1F4
:102770008093910590939205A0939305B09394054F
:102780008D819E81AF81B885809385059093860564
:10279000A0938705B09388058D899E89AF89B88DF0
:1027A0008093750590937605A0937705B09378058F
:1027B0008DA19EA1AFA1B8A5809395059093960594
:1027C000A0939705B093980589859A85AB85BC85BC
:1027D0008093890590938A05A0938B05B0938C050F
:1027E000898D9A8DAB8DBC8D8093790590937A05F8
:1027F000A0937B05B0937C0589A59AA5ABA5BCA544
:102800008093990590939A05A0939B05B0939C059E
:102810008D859E85AF85B88980938D0590938E05B3
:10282000A0938F05B09390058D8D9E8DAF8DB8A12F
:1028300080937D0590937E05A0937F05B0938005DE
:102840008DA59EA5AFA5B8A980939D0590939E05E3
:10285000A0939F05B093A0050E94FF4880E090E000
:10286000AAE7B4E48093A5059093A605A093A705D5
:10287000B093A80580E090E8ABE3B5E48093A905A8
:102880009093AA05A093AB05B093AC050F2EF0E092
:10289000EF2EF0E0FF2EF0E00F2FF0E01F2FF02DD5
:1028A000E092A105F092A2050093A3051093A40560
:1028B00080E29EE4A0E0B0E080936D0590936E0509
:1028C000A0936F05B0937005E092B905F092BA0538
:1028D0000093BB051093BC0580E090E0A0E7B1E455
:1028E0008093AD059093AE05A093AF05B093B0056E
:1028F0008DEC9CECACE4BEE38093B1059093B20503
:10290000A093B305B093B40580E090E0A0EAB0E4F2
:102910008093B5059093B605A093B705B093B8051D
:10292000E0927A03F0927B0300937C0310937D0383
:10293000E0927603F0927703009378031093790383
:10294000E0927203F0927303009374031093750383
:102950008093550290935602A0935702B093580269
:10296000E0925902F0925A0200935B0210935C02CB
:10297000E0925D02F0925E0200935F0210936002AB
:102980008AE999E9A1EBB1E48093A3029093A402B0
:10299000A093A502B093A60261E77DE38AE89FE3D6
:1029A0000E94317A6093A7027093A8028093A902D3
:1029B0009093AA0260E070E084EE92E40E943D7A77
:1029C0006093AB027093AC028093AD029093AE0221
:1029D0000E94F47980E090E0A0E8BFE38093AF022A
:1029E0009093B002A093B102B093B202E092970329
:1029F000F09298030093990310939A03E0929B033B
:102A0000F0929C0300939D0310939E03E0929F031A
:102A1000F092A0030093A1031093A20380E090E042
:102A2000A8ECB2E48093490290934A02A0934B022F
:102A3000B0934C0280E090E0A4EBB3E480934D02AD
:102A400090934E02A0934F02B093500280E090E02A
:102A5000A6E1B3E48093510290935202A0935302F3
:102A6000B09354028FE38093E60A8093E70A809341
:102A7000E80A86E68093E90AE5E1F1E064918F01D6
:102A800007C08BEB9CE0BFDA0F5F1F4FF80164912A
:102A90006623B9F7EBE1F1E064918F0107C08BEB9E
:102AA0009CE0B1DA0F5F1F4FF80164916623B9F71C
:102AB0008BEB9CE06AE0A7DAE0960FB6F894DEBFF5
:102AC0000FBECDBFCF91DF911F910F91FF90EF907F
:102AD0000895CF93DF93DB010D900020E9F7119764
:102AE000A61BB70BEC01E881F9810280F381E02D90
:102AF000AD010995DF91CF9108950F931F93CF9367
:102B0000DF9305E111E0F8016491E80106C08BEB69
:102B10009CE079DA2196FE0164916623C1F7EEEA22
:102B2000F3E06491EF0106C08BEB9CE06CDA219638
:102B3000FE0164916623C1F78BEB9CE06AE063DAE7
:102B4000F8016491C5E1D1E006C08BEB9CE05BDA53
:102B50002196FE0164916623C1F740918105509151
:102B60008205609183057091840586EA93E00E9456
:102B70003A274091850550918605609187057091AF
:102B8000880583EA93E00E943A2740918905509195
:102B90008A0560918B0570918C0580EA93E00E9414
:102BA0003A2740918D0550918E0560918F05709167
:102BB00090058DE993E00E943A278BEB9CE068E05A
:102BC00071E087DF8BEB9CE06AE01DDAF80164912D
:102BD000C5E1D1E006C08BEB9CE015DA2196FE0141
:102BE00064916623C1F7E3E8F3E06491EF0106C066
:102BF0008BEB9CE008DA2196FE0164916623C1F715
:102C00008BEB9CE06AE0FFD9F8016491C5E1D1E06B
:102C100006C08BEB9CE0F7D92196FE0164916623F8
:102C2000C1F74091710550917205609173057091E3
:102C300074058AE793E00E943A2740917505509108
:102C40007605609177057091780587E793E00E949B
:102C50003A274091790550917A0560917B057091F2
:102C60007C0584E793E00E943A2740917D055091CE
:102C70007E0560917F057091800581E793E00E9459
:102C80003A278BEB9CE068E071E023DF8BEB9CE064
:102C90006AE0B9D9F8016491C5E1D1E006C08BEBD7
:102CA0009CE0B1D92196FE0164916623C1F7E3E56A
:102CB000F3E06491EF0106C08BEB9CE0A4D9219670
:102CC000FE0164916623C1F78BEB9CE06AE09BD91F
:102CD000F8016491C5E1D1E006C08BEB9CE093D98B
:102CE0002196FE0164916623C1F7409191055091B0
:102CF000920560919305709194058AE493E00E9497
:102D0000B01E409195055091960560919705709180
:102D1000980587E493E00E94B01E40919905509178
:102D20009A0560919B0570919C0584E493E00E9454
:102D3000B01E40919D0550919E0560919F05709138
:102D4000A00581E493E00E94B01E8BEB9CE068E05C
:102D500071E0BFDE8BEB9CE06AE055D9F80164912D
:102D6000C5E1D1E006C08BEB9CE04DD92196FE0178
:102D700064916623C1F7ECE0F3E06491EF0106C0D3
:102D80008BEB9CE040D92196FE0164916623C1F74C
:102D90008BEB9CE06AE037D9F8016491C5E1D1E0A2
:102DA00006C08BEB9CE02FD92196FE01649166232F
:102DB000C1F74091A5055091A6056091A7057091B6
:102DC000A80583E093E00E943A274091A90550911D
:102DD000AA056091AB057091AC0580E093E00E947C
:102DE0003A278BEB9CE068E071E073DE8BEB9CE0B4
:102DF0006AE009D9F8016491C5E1D1E006C08BEB26
:102E00009CE001D92196FE0164916623C1F7EDE4AF
:102E1000F2E06491EF0106C08BEB9CE0F4D82196C0
:102E2000FE0164916623C1F78BEB9CE06AE0EBD86E
:102E3000F8016491C5E1D1E006C08BEB9CE0E3D8DA
:102E40002196FE0164916623C1F74091A10550913E
:102E5000A2056091A3057091A40584E492E00E940C
:102E60003A274091B9055091BA056091BB05709120
:102E7000BC0581E492E00E943A2740916D05509193
:102E80006E0560916F05709170058EE392E068D7D2
:102E90004091AD055091AE056091AF057091B005C0
:102EA0008BE392E00E943A274091B1055091B20520
:102EB0006091B3057091B40588E392E00E943A27CF
:102EC0004091B5055091B6056091B7057091B80570
:102ED00085E392E00E943A278BEB9CE068E071E08A
:102EE000F8DD8BEB9CE06AE08ED8F8016491C5E1D7
:102EF000D1E006C08BEB9CE086D82196FE01649160
:102F00006623C1F7E3E2F2E06491EF0106C08BEBC8
:102F10009CE079D82196FE0164916623C1F78BEB82
:102F20009CE06AE070D8F8016491C5E1D1E006C088
:102F30008BEB9CE068D82196FE0164916623C1F773
:102F40004091720350917303609174037091750303
:102F50008AE192E00E943A274091760350917703EC
:102F6000609178037091790387E192E00E943A279B
:102F700040917A0350917B0360917C0370917D03B3
:102F800084E192E00E943A278BEB9CE068E071E0DC
:102F9000A0DD8BEB9CE06AE036D8F8016491C5E1D6
:102FA000D1E006C08BEB9CE02ED82196FE01649107
:102FB0006623C1F7E6E0F2E06491EF0106C08BEB17
:102FC0009CE021D82196FE0164916623C1F78BEB2A
:102FD0009CE06AE018D8F8016491C5E1D1E006C030
:102FE0008BEB9CE010D82196FE0164916623C1F71B
:102FF0004091A3025091A4026091A5027091A60293
:103000008CEF91E00E943A276091A7027091A8028C
:103010008091A9029091AA020E94377AAB01BC016B
:1030200089EF91E00E943A276091AB027091AC0267
:103030008091AD029091AE020E94437AAB01BC0137
:1030400086EF91E00E943A278BEB9CE068E071E00C
:1030500040DD8BEB9CE06AE00E940310F801649174
:10306000C5E1D1E007C08BEB9CE00E9403102196E4
:10307000FE0164916623B9F7E3EEF1E06491EF019C
:1030800007C08BEB9CE00E9403102196FE01649127
:103090006623B9F78BEB9CE06AE00E940310F8010D
:1030A0006491C5E1D1E007C08BEB9CE00E94031066
:1030B0002196FE0164916623B9F7409197035091E0
:1030C00098036091990370919A038AED91E00E94B0
:1030D0003A2740919B0350919C0360919D0370910E
:1030E0009E0387ED91E00E943A2740919F03509103
:1030F000A0036091A1037091A20384ED91E00E946E
:103100003A278BEB9CE068E071E0E3DC8BEB9CE022
:103110006AE00E940310F8016491C5E1D1E007C0A4
:103120008BEB9CE00E9403102196FE0164916623C4
:10313000B9F7E1ECF1E06491EF0107C08BEB9CE0A3
:103140000E9403102196FE0164916623B9F78BEB70
:103150009CE06AE00E940310F8016491C5E1D1E0AF
:1031600007C08BEB9CE00E9403102196FE01649146
:103170006623B9F74091490250914A0260914B028F
:1031800070914C0288EB91E00E943A2740914D02E9
:1031900050914E0260914F027091500285EB91E088
:1031A0000E943A274091510250915202609153027D
:1031B0007091540282EB91E00E943A278BEB9CE0E5
:1031C00068E071E086DC8BEB9CE06AE00E94031013
:1031D000F8016491C5E1D1E007C08BEB9CE00E944F
:1031E00003102196FE0164916623B9F7EBE9F1E043
:1031F0006491EF0107C08BEB9CE00E9403102196C5
:10320000FE0164916623B9F78BEB9CE06AE00E94B3
:103210000310F8016491C5E1D1E007C08BEB9CE09D
:103220000E9403102196FE0164916623B9F7409134
:10323000550250915602609157027091580282E9EE
:1032400091E00E943A274091590250915A026091B0
:103250005B0270915C028FE891E00E943A274091F6
:103260005D0250915E0260915F02709160028CE895
:1032700091E00E943A278BEB9CE068E071E029DC4A
:103280008BEB9CE06AE00E940310F8016491C5E1B9
:10329000D1E007C08BEB9CE00E9403102196FE0159
:1032A00064916623B9F7E9E6F1E06491EF0107C0A4
:1032B0008BEB9CE00E9403102196FE016491662333
:1032C000B9F78BEB9CE06AE00E940310F80164916F
:1032D000C5E1D1E007C08BEB9CE00E940310219672
:1032E000FE0164916623B9F76091E60A70E08827D1
:1032F00077FD8095982F0E94FC9820E030E048EC04
:1033000052E40E943A9B20E030E04FE753E40E94F1
:1033100061980E94CE989B01AC0180E691E0622FFB
:1033200001D56091E70A70E0882777FD8095982F96
:103330000E94FC9820E030E048EC52E40E943A9B66
:1033400020E030E04FE753E40E9461980E94CE985D
:103350009B01AC018DE591E0622FE4D46091E80A15
:1033600070E0882777FD8095982F0E94FC9820E0D8
:1033700030E048EC52E40E943A9B20E030E04FE716
:1033800053E40E9461980E94CE989B01AC018AE5AB
:1033900091E0622FC7D46091E90A70E0882777FD39
:1033A0008095982F0E94FC9820E030E048EC52E491
:1033B0000E943A9B20E030E04FE753E40E9461987E
:1033C0000E94CE989B01AC0187E591E0622FAAD4C0
:1033D0008BEB9CE068E071E07CDB8BEB9CE06AE0CF
:1033E0000E940310DF91CF911F910F9108950F93C9
:1033F0001F93DF93CF93CDB7DEB766970FB6F894E0
:10340000DEBF0FBECDBF8091040190910501A09158
:103410000601B09107018B8B9C8BAD8BBE8BFE019F
:103420003F9604E610E0F999FECF12BD01BDF89A6F
:1034300080B580830F5F1F4F0836110511F031965C
:10344000F2CFCE014396BE01615F7F4F43E050E073
:103450000E94620D009709F05BC2E1E8F5E0F9997E
:10346000FECF12BD01BDF89A80B580830F5F1F4F5C
:103470000837110511F03196F2CFE1E7F5E0F9993F
:10348000FECF12BD01BDF89A80B580830F5F1F4F3C
:103490000838110511F03196F2CFE1E9F5E0F9991C
:1034A000FECF12BD01BDF89A80B580830F5F1F4F1C
:1034B0000839110511F03196F2CF0E94FF48E5EA74
:1034C000F5E0F999FECF12BD01BDF89A80B5808371
:1034D0000F5F1F4F0C39110511F03196F2CFE9EA59
:1034E000F5E0F999FECF12BD01BDF89A80B5808351
:1034F0000F5F1F4F003A110511F03196F2CFE1EA4C
:10350000F5E0F999FECF12BD01BDF89A80B5808330
:103510000F5F1F4F043A110511F03196F2CFE9EB1E
:10352000F5E0F999FECF12BD01BDF89A80B5808310
:103530000F5F1F4F083A110511F03196F2CFEDE6FB
:10354000F5E0F999FECF12BD01BDF89A80B58083F0
:103550000F5F1F4F0C3A110511F03196F2CFEDEAD3
:10356000F5E0F999FECF12BD01BDF89A80B58083D0
:103570000F5F1F4F003B110511F03196F2CFE1EBC9
:10358000F5E0F999FECF12BD01BDF89A80B58083B0
:103590000F5F1F4F043B110511F03196F2CFE5EBA1
:1035A000F5E0F999FECF12BD01BDF89A80B5808390
:1035B0000F5F1F4F083B110511F03196F2CFE2E784
:1035C000F3E0F999FECF12BD01BDF89A80B5808372
:1035D0000F5F1F4F043C110511F03196F2CFFE0131
:1035E0003196F999FECF12BD01BDF89A80B580835E
:1035F0000F5F1F4F063C110599F7FE013396F999AD
:10360000FECF12BD01BDF89A80B580830F5F1F4FBA
:10361000083C110511F03196F2CFFE013596F9996B
:10362000FECF12BD01BDF89A80B580830F5F1F4F9A
:103630000A3C110511F03196F2CFFE013796F99947
:10364000FECF12BD01BDF89A80B580830F5F1F4F7A
:103650000C3C110511F03196F2CFFE013996F99923
:10366000FECF12BD01BDF89A80B580830F5F1F4F5A
:103670000E3C110511F03196F2CFFE013B96F999FF
:10368000FECF12BD01BDF89A80B580830F5F1F4F3A
:10369000003D110511F03196F2CFE5E5F2E0F99920
:1036A000FECF12BD01BDF89A80B580830F5F1F4F1A
:1036B000043D110511F03196F2CFE9E5F2E0F999F8
:1036C000FECF12BD01BDF89A80B580830F5F1F4FFA
:1036D000083D110511F03196F2CFEDE5F2E0F999D0
:1036E000FECF12BD01BDF89A80B580830F5F1F4FDA
:1036F0000C3D110511F03196F2CFE3EAF2E0F999B1
:10370000FECF12BD01BDF89A80B580830F5F1F4FB9
:10371000003E110511F03196F2CFE7EAF2E0F99997
:10372000FECF12BD01BDF89A80B580830F5F1F4F99
:10373000043E110511F03196F2CFEBEAF2E0F9996F
:10374000FECF12BD01BDF89A80B580830F5F1F4F79
:10375000083E110511F03196F2CFFE013D96F99920
:10376000FECF12BD01BDF89A80B580830F5F1F4F59
:103770000A3E110511F03196F2CFE7E9F3E0F9992D
:10378000FECF12BD01BDF89A80B580830F5F1F4F39
:103790000E3E110511F03196F2CFE9E4F2E0F9990D
:1037A000FECF12BD01BDF89A80B580830F5F1F4F19
:1037B000023F110511F03196F2CFEBE9F3E0F999F0
:1037C000FECF12BD01BDF89A80B580830F5F1F4FF9
:1037D000063F110511F03196F2CFEDE4F2E0F999D0
:1037E000FECF12BD01BDF89A80B580830F5F1F4FD9
:1037F0000A3F110511F03196F2CFEFE9F3E0F999A4
:10380000FECF12BD01BDF89A80B580830F5F1F4FB8
:103810000E3F110511F03196F2CFE1E5F2E0F99992
:10382000FECF12BD01BDF89A80B5808381E00130E2
:10383000180721F00F5F1F4F3196F1CFF999FECF96
:1038400082E091E092BD81BDF89A80B58093E60A4E
:10385000F999FECF83E091E092BD81BDF89A80B5E1
:103860008093E70AF999FECF84E091E092BD81BD93
:10387000F89A80B58093E80AF999FECF85E091E047
:1038800092BD81BDF89A80B58093E90A8091E60ADD
:103890008D3C18F08CEC8093E60A8091E70A8D3C11
:1038A00018F08CEC8093E70A8091E80A8D3C18F0C0
:1038B0008CEC8093E80A8091E90A8D3C18F08CEC3E
:1038C0008093E90A0E94F479E5E1F1E064918F01C7
:1038D00008C08BEB9CE00E9403100F5F1F4FF801A4
:1038E00064916623B1F7EDE3F1E064918F0108C0C4
:1038F0008BEB9CE00E9403100F5F1F4FF801649157
:103900006623B1F78BEB9CE06AE00E94031002C0D3
:103910000E947313F2D866960FB6F894DEBF0FBEFE
:10392000CDBFCF91DF911F910F910895FC0163836B
:103930000895FC0160834183228381E0838308959D
:10394000FC018081282F30E0F9010E94F68E0000F2
:10395000000000000000000000006EBD0DB407FE76
:10396000FDCF8EB5F9010E94F08E0000000000002E
:10397000000008952F923F924F925F926F927F9234
:103980008F929F92AF92BF92CF92DF92EF92FF926F
:103990000F931F93DF93CF9300D00F92CDB7DEB775
:1039A0009B838A83822F869586958695898330E0CE
:1039B000C90187709070892B19F0E981EF5FE98365
:1039C00080E290E0821B930B66246A94762C43017C
:1039D00004C096948794779467948A95D2F764018B
:1039E0005301461557056805790510F45A016B0116
:1039F000F981F33071F49601442755278A819B8120
:103A0000622F9EDF90E0A0E0B0E02C01332422245E
:103A10000AC08981823020F4EE24FF24870116C079
:103A200022243324210155274D2D3C2D2B2D8A8115
:103A30009B81622F85DF382F20E079010027F7FC7A
:103A40000095102FE228F32804291529E981EE2397
:103A500059F08A819B816A2D73DF90E0A0E0B0E08D
:103A6000E82AF92A0A2B1B2BA40193012E213F21BE
:103A700040235123B901CA010F900F900F90CF91AD
:103A8000DF911F910F91FF90EF90DF90CF90BF904B
:103A9000AF909F908F907F906F905F904F903F90EE
:103AA0002F900895EF92FF920F931F937C0160ED8A
:103AB00047DFC70160E044DF182F00E0C70160E086
:103AC0003FDF282F30E0202B312BC9011F910F91B0
:103AD000FF90EF90089560EA33CFEF92FF920F933B
:103AE0001F93CF93DF93EC01142F052FF62EE72EB3
:103AF0006B81606425DF212F302F4F2D5E2DC90192
:103B0000DA017C018D0180E0E81680E0F80680E4AF
:103B1000080780E0180738F02FEFE22E2FEFF22E83
:103B20002FE3022F112D980144275527CE01622F34
:103B300007DF5527412F302F2F2DCE01622F00DFB9
:103B4000CE016E2DFDDEDF91CF911F910F91FF9081
:103B5000EF900895CF93DF93EC01DA0170E0CB0191
:103B600001978931910508F03EC0845B9F4FFC01AD
:103B7000EE0FFF1F0590F491E02D0994CE01A901ED
:103B8000BD0129E0F7DE9B01AC0134C0CE01A901E3
:103B9000BD0126E1F7CFCE0140E050E060E070E0EB
:103BA00024E1F0CFCE01A901BD012CE0EBCFCE0185
:103BB000A901BD012AE0E6CFCE01A901BD012EE099
:103BC000E1CFCE0160E011C02F700DC02F770BC088
:103BD000CE01A901BD0105C0CE0140E050E060E08A
:103BE00070E020E1CFCFCE01622FAADE282F30E097
:103BF00040E050E0B901CA01DF91CF910895BF9232
:103C0000CF92DF92EF92FF920F931F938C01B62E0B
:103C100069017A0195DEC8016B2DA70196019ADF33
:103C20001F910F91FF90EF90DF90CF90BF9008957C
:103C3000CF93DF93EC0180915A0390915B03892B22
:103C400051F4229A23982B98219A81E090E0909346
:103C50005B0380935A0388810E94B48E8881E82F89
:103C6000F0E00E94F08E89810E94B48E8A818F3F9D
:103C700011F00E94C58E8981E82FF0E00E94F08E3D
:103C800061E070E080E090E00E943B918981E82F44
:103C9000F0E00E94F68E61E070E080E090E00E942B
:103CA0003B918981E82FF0E00E94F08E61E070E0A6
:103CB00080E090E00E943B918CE58CBD81E08DBD61
:103CC000DF91CF910895CF93DF930FB6F894809151
:103CD000B30C9091B40CA091B50CB091B60C0FBE82
:103CE0008093AC039093AD03A093AE03B093AF0366
:103CF000E0E7F4E06491EF0107C08BEB9CE00E94E9
:103D000003102196FE0164916623B9F78BEB9CE0CA
:103D10006AE00E940310DF91CF9108950895809189
:103D2000950308951F93CF93DF93EC01162FFC01A9
:103D3000649107C08BEB9CE00E9403102196FE016A
:103D400064916623B9F7412F50E060E070E08BEB9F
:103D50009CE020E00E945894DF91CF911F9108953C
:103D6000EF92FF920F931F93CF93DF93EC017A01B1
:103D70008B01FC01649107C08BEB9CE00E94031057
:103D80002196FE0164916623B9F78BEB9CE0B801A4
:103D9000A70120E00E945894DF91CF911F910F91CD
:103DA000FF90EF900895CF93DF930E94177A809150
:103DB0009503882309F034C081E0809395038091B6
:103DC000A4039091A503A091A603B091A7038093AB
:103DD000A8039093A903A093AA03B093AB03E4EDC7
:103DE000F3E06491EF0107C08BEB9CE00E940310AD
:103DF0002196FE0164916623B9F7EBEDF3E064913F
:103E0000EF0107C08BEB9CE00E9403102196FE019E
:103E100064916623B9F78BEB9CE06AE00E94031083
:103E2000DF91CF910895CF93DF93F8940E94177A92
:103E30008AEE9AE050DE8EEE9AE04DDE82EF9AE056
:103E40004ADE86EF9AE047DEE4EDF3E06491EF01AD
:103E500007C08BEB9CE00E9403102196FE01649149
:103E60006623B9F7E1E5F4E06491EF0107C08BEB5D
:103E70009CE00E9403102196FE0164916623B9F72D
:103E80008BEB9CE06AE00E940310FFCFEF92FF9261
:103E90000F931F930FB6F8948091B30C9091B40CCC
:103EA000A091B50CB091B60C0FBEE090B003F090AD
:103EB000B1030091B2031091B3032091AC03309190
:103EC000AD034091AE035091AF03821B930BA40B43
:103ED000B50BE816F9060A071B0730F4E114F104E4
:103EE0000105110509F09FDFE0906102F090620288
:103EF0000091630210916402E114F10401051105BF
:103F000071F10FB6F8948091B30C9091B40CA0911C
:103F1000B50CB091B60C0FBE2091AC033091AD033F
:103F20004091AE035091AF03821B930BA40BB50BD2
:103F3000E816F9060A071B0790F49091AE0A8091E3
:103F4000AF0A981761F48AEE9AE0C5DD8EEE9AE02A
:103F5000C2DD82EF9AE0BFDD86EF9AE0BCDD0E9411
:103F60002B4C1F910F91FF90EF9008956F927F92CD
:103F70008F929F92AF92BF92CF92DF92EF92FF9279
:103F80000F931F93F82E6091B4037091B503809145
:103F9000B6039091B7032091B8033091B9034091D3
:103FA000BA035091BB030E94759A3B014C0100D0AB
:103FB00000D000D00DB71EB70F5F1F4F60913802C1
:103FC00070913902882777FD8095982F0E94FC9880
:103FD000209165023091660240916702509168021B
:103FE0000E943A9B20E030E040E752E40E94619852
:103FF00020E030E048EC52E40E9461985B016C01E3
:10400000F8016082718282829382F48280918A03B5
:10401000858382E693E060EC73E044EB53E020E0BC
:1040200001E032E0E32E0E9443448091C00390916E
:10403000C103A091C203B091C30380936203909324
:104040006303A0936403B09365038091C4039091CC
:10405000C503A091C603B091C703809366039093F4
:104060006703A0936803B09369038091C80390919C
:10407000C903A091CA03B091CB0380936A039093C4
:104080006B03A0936C03B0936D038091CC0390916C
:10409000CD03A091CE03B091CF0380936E03909394
:1040A0006F03A0937003B09371030FB6F8948091DF
:1040B000B30C9091B40CA091B50CB091B60C0FBE9E
:1040C0008093AC039093AD03A093AE03B093AF0382
:1040D0008DB79EB706960FB6F8949EBF0FBE8DBFE4
:1040E0001F910F91FF90EF90DF90CF90BF90AF9016
:1040F0009F908F907F906F9008954F925F926F92F4
:104100007F928F929F92AF92BF92CF92DF92EF9267
:10411000FF920F931F93DF93CF9300D000D0CDB7C2
:10412000DEB70FB6F8948091B30C9091B40CA091C7
:10413000B50CB091B60C0FBE8093AC039093AD0359
:10414000A093AE03B093AF038091C0039091C103DD
:10415000A091C203B091C30389839A83AB83BC83CC
:104160006091620370916303809164039091650391
:1041700029813A814B815C810E945A98882309F0F9
:104180009DC04090C4035090C5036090C6037090DA
:10419000C7036091660370916703809168039091F3
:1041A0006903A30192010E945A98882309F086C0EE
:1041B00000D0CDB6DEB60894C11CD11CE090C80377
:1041C000F090C9030091CA031091CB03609165027E
:1041D00070916602809167029091680220E030E061
:1041E00040E752E40E9461984B015C018AE893E049
:1041F000D6018D939C9369817A818B819C81A301E7
:104200009201ECECCE2EE3E0DE2E0E94154F0F90D3
:104210000F908091C0039091C103A091C203B0910F
:10422000C3038093620390936303A0936403B093EA
:1042300065038091C4039091C503A091C603B0911A
:10424000C7038093660390936703A0936803B093BA
:1042500069038091C8039091C903A091CA03B091EA
:10426000CB0380936A0390936B03A0936C03B0938A
:104270006D038091CC039091CD03A091CE03B091BA
:10428000CF0380936E0390936F03A0937003B0935A
:1042900071030F900F900F900F90CF91DF911F91AE
:1042A0000F91FF90EF90DF90CF90BF90AF909F90D5
:1042B0008F907F906F905F904F90089500D0CDB613
:1042C000DEB60894C11CD11C4090C4035090C503B5
:1042D0006090C6037090C703E090C803F090C903D4
:1042E0000091CA031091CB0360913802709139029A
:1042F000882777FD8095982F0E94FC982091650271
:104300003091660240916702509168020E943A9B88
:1043100020E030E040E752E40E94619820E030E085
:1043200048EC52E40E9461984B015C018AE893E0FA
:10433000F601918380835FCFCF93DF938BEB9CE07B
:104340000E94DE95E3E7F4E06491EF0107C08BEB98
:104350009CE00E9403102196FE0164916623B9F748
:104360004091A4035091A5036091A6037091A70307
:104370004F5F5F4F6F4F7F4F8BEB9CE00E94B89475
:104380008BEB9CE06AE00E9403109DDCDF91CF91F3
:1043900008954F925F926F927F928F929F92AF9209
:1043A000BF92CF92DF92EF92FF920F931F934090B4
:1043B00065025090660260906702709068020F2E4E
:1043C000F0E0AF2EF0E8BF2EFBE3CF2EF5E4DF2EBA
:1043D000F02DA0926502B0926602C0926702D09260
:1043E0006802609362037093630380936403909305
:1043F00065032093660330936703409368035093EB
:104400006903E0926A03F0926B0300936C031093CC
:104410006D0300D0EAE8F3E0ADB7BEB71296FC93A7
:10442000EE931197FEE6CF2EF3E0DF2E0F2EF0E095
:104430008F2EF0E09F2EF8E4AF2EF2E4BF2EF02D89
:104440000E94154F0F900F900E9443714092650299
:104450005092660260926702709268021F910F91FB
:10446000FF90EF90DF90CF90BF90AF909F908F9094
:104470007F906F905F904F9008952F923F924F9250
:104480005F926F927F928F929F92AF92BF92CF92E4
:10449000DF92EF92FF920F931F93DF93CF93CDB7ED
:1044A000DEB7A8970FB6F894DEBF0FBECDBF9E87CC
:1044B0008D87892B19F4E5ECF5E010C02D853E853C
:1044C0002130310519F4E6ECF5E008C04D855E8534
:1044D0004230510509F0CAC2E7ECF5E0E491E7FF8C
:1044E000C5C22D843E84220C331C220C331CC10116
:1044F0008E599C4F988B8F8720E030E040E050E051
:10450000DC012D933D934D935C931397609162036F
:104510007091630380916403909165032091660319
:10452000309167034091680350916903E0906A03FA
:10453000F0906B0300916C0310916D03AEE6CA2EF0
:10454000A3E0DA2E0E9447498E010F5F1F4F8CE0D7
:10455000F80111928A95E9F76091490270914A0237
:1045600080914B0290914C022091970330919803D7
:104570004091990350919A030E94809769837A83AE
:104580008B839C8360914D0270914E0280914F020B
:104590009091500220919B0330919C0340919D0388
:1045A00050919E030E9480976D837E838F839887AE
:1045B0006091510270915202809153029091540285
:1045C00020919F033091A0034091A1035091A20339
:1045D0000E94809769877A878B879C87ED85FE8507
:1045E000EB53FA4FD490910120543C4F3A8B298BD6
:1045F000020D131DD8016D917D918D919C9120E04C
:1046000030E040EC5FE30E943A9B7B018C016D2D12
:10461000772767FD7095872F972F0E94FC986B8BEB
:104620007C8B8D8B9E8BC801B7012B893C894D8972
:104630005E890E943A9BE989FA896083718382834B
:1046400093839101285D3D4F388F2F8BD9016D9158
:104650007D918D919C916093650270936602809329
:1046600067029093680200D0CDB6DEB60894C11CF4
:10467000D11C4090C0035090C1036090C203709061
:10468000C3032091C4033091C5034091C6035091E8
:10469000C703298F3A8F4B8F5C8FE090C803F0904F
:1046A000C9030091CA031091CB0320E030E040E73A
:1046B00052E40E9461984B015C01EAE8F3E0D60104
:1046C000ED93FC93C301B201298D3A8D4B8D5C8D26
:1046D000FCECCF2EF3E0DF2E0E94154F0F900F90D1
:1046E0000E94437120E030E040E050E0AF85B8899F
:1046F0002D933D934D935C9313976091620370915A
:104700006303809164039091650320916603309167
:1047100067034091680350916903E0906A03F09049
:104720006B0300916C0310916D03EEE6CE2EE3E077
:10473000DE2E0E944749E9EBF5E02E0E3F1EF10107
:104740004590559065907490C301B20190582B89A3
:104750003C894D895E890E943A9BA989BA896D93EB
:104760007D938D939C93139700D0CDB6DEB60894BD
:10477000C11CD11C2091C0033091C1034091C203E0
:104780005091C3032D8F3E8F4F8F58A38091C40348
:104790009091C503A091C603B091C70389A39AA3C2
:1047A000ABA3BCA3E090C803F090C9030091CA0377
:1047B0001091CB036091650270916602809167024F
:1047C0009091680220E030E040E752E40E94619856
:1047D0004B015C01EAE8F3E0D601ED93FC936D8DAB
:1047E0007E8D8F8D98A129A13AA14BA15CA1BCEC33
:1047F000CB2EB3E0DB2E0E94154F0F900F900E943E
:104800004371C301B201A30192010E9481972B89D8
:104810003C894D895E890E943A9BA989BA896D932A
:104820007D938D939C931397EF89F88D60817181AF
:104830008281938120E030E040E05FE30E943A9B78
:10484000609365027093660280936702909368029A
:1048500000D0CDB6DEB60894C11CD11C4090C00378
:104860005090C1036090C2037090C3032091C403B1
:104870003091C5034091C6035091C7032DA33EA3B9
:104880004FA358A7E090C803F090C9030091CA0352
:104890001091CB0320E030E040E752E40E946198A1
:1048A0004B015C01EAE8F3E0D601ED93FC93C30110
:1048B000B2012DA13EA14FA158A5ACECCA2EA3E098
:1048C000DA2E0E94154F0F900F900E9443710E94A4
:1048D000176F2D853E85232B09F073C080E090E093
:1048E000A0E7B1E48093620390936303A093640311
:1048F000B09365032091660330916703409168038C
:1049000050916903E0906A03F0906B0300916C038F
:1049100010916D03BC01CD01FEE6CF2EF3E0DF2E3A
:104920000E94474980E090E0A0E0B0E08093C0039F
:104930009093C103A093C203B093C3036091280274
:104940007091290280912A0290912B026093650256
:1049500070936602809367029093680200D0CDB690
:10496000DEB60894C11CD11C4090C4035090C5030E
:104970006090C6037090C703E090C803F090C9032D
:104980000091CA031091CB0320E030E040E752E4ED
:104990000E9461984B015C01EAE8F3E0D601ED93D7
:1049A000FC9360E070E080E090E0A3019201ECEC09
:1049B000CE2EE3E0DE2E0E94154F0F900F900E9446
:1049C00043710D851E85000F111F000F111FF80187
:1049D000EE58FC4FC080D180E280F380BEE7AB2E62
:1049E000B3E0BB2EA00EB11EF801E956FC4F60816A
:1049F000718182819381A70196010E948197D501DF
:104A00006D937D938D939C931397ACE3AA2EA2E0B4
:104A1000BA2EA00EB11EF801E75BFD4F60817181D7
:104A200082819381A70196010E948197F50160839D
:104A3000718382839383F801EE59FC4FC082D18247
:104A4000E282F38200541C4FD801CD92DD92ED92A8
:104A5000FC92139780E090E0A0E0B0E080936502C4
:104A600090936602A0936702B0936802A8960FB66F
:104A7000F894DEBF0FBECDBFCF91DF911F910F9194
:104A8000FF90EF90DF90CF90BF90AF909F908F906E
:104A90007F906F905F904F903F902F900895F89483
:104AA0006AE070E080E090E00E943B9181E08093BA
:104AB000E00080E28093D80064E670E080E090E05F
:104AC0000E943B911DBA109268001CBC10BE1FBA18
:104AD00010927A0010926E0010926F001092700087
:104AE000109271001092C9001092BC0011B814B855
:104AF00017B81AB81DB810BA12B815B818B81BB83C
:104B00001EB811BA10926B000C9400F8FFCF4091C0
:104B1000DB035091DC0320E630E0B901469F9001B1
:104B2000479F300D569F300D1124682F772767FD62
:104B30007095C90183529C4F0E94570D9C01909320
:104B4000DA038093D90380E0232B09F081E00895F4
:104B50002F923F924F925F926F927F928F929F928D
:104B6000AF92BF92CF92DF92EF92FF920F931F937B
:104B7000DF93CF93CDB7DEB72E970FB6F894DEBF95
:104B80000FBECDBF8AE692E00E944C866091300253
:104B900070913102809132029091330260936502EC
:104BA00070936602809367029093680200D0CDB63E
:104BB000DEB60894C11CD11CE0906203F090630340
:104BC0000091640310916503409066035090670361
:104BD00060906803709069032EE6222E23E0322E47
:104BE00020E030E040E752E40E9461984B015C0114
:104BF000EAE8F3E0D601ED93FC93C801B701A30105
:104C000092010F2EF0E0EF2EF0E0FF2EF0E20F2FDA
:104C1000F1EC1F2FF02D61010E94154F0F900F90A6
:104C20000E94437182E00E94846F4B015C0160919D
:104C300062037091630380916403909165032091F6
:104C400066033091670340916803509169038501C1
:104C500074010E94474921EC35E0F9018591959155
:104C6000A591B49189839A83AB83BC83C501B401B8
:104C700029813A814B815C810E9481976D837E837B
:104C80008F83988700D0CDB6DEB60894C11CD11CA6
:104C9000E0906203F0906303009164031091650358
:104CA00040906603509067036090680370906903BA
:104CB000609165027091660280916702909168022E
:104CC00020E030E040E752E40E9461984B015C0133
:104CD000EAE8F3E0D601ED93FC93C801B701A30124
:104CE0009201ED80FE800F81188561010E94154FB1
:104CF0000F900F900E9443716091300270913102C9
:104D0000809132029091330220E030E040E85EE38F
:104D10000E943A9B5B016C0160936502709366028E
:104D2000809367029093680200D08DB79EB701967A
:104D30009E878D8740906203509063036090640368
:104D4000709065038091660390916703A09168035A
:104D5000B091690389879A87AB87BC8769817A811B
:104D60008B819C8120E030E040E050EC0E943A9B37
:104D70009B01AC016D817E818F8198850E94819716
:104D80007B018C01C601B50120E030E040E752E430
:104D90000E9461984B015C01EAE8F3E0AD85BE85B5
:104DA000ED93FC93C301B20129853A854B855C855F
:104DB00061010E94154F0F900F900E94437182E095
:104DC0000E94846F7B018C0160936A0370936B0374
:104DD00080936C0390936D03609162037091630301
:104DE000809164039091650320916603309167037D
:104DF00040916803509169030E9447492E960FB66F
:104E0000F894DEBF0FBECDBFCF91DF911F910F9100
:104E1000FF90EF90DF90CF90BF90AF909F908F90DA
:104E20007F906F905F904F903F902F900895EF92FA
:104E3000FF920F931F93CF93DF93EC017A018B01C5
:104E4000FC01649107C08BEB9CE00E94031021964B
:104E5000FE0164916623B9F78BEB9CE0B801A701D2
:104E600022E00E94C594DF91CF911F910F91FF9096
:104E7000EF900895EF92FF920F931F93CF93DF93DC
:104E8000EC017A018B01FC01649107C08BEB9CE083
:104E90000E9403102196FE0164916623B9F78BEB03
:104EA0009CE0B801A70122E00E94C594DF91CF9158
:104EB0001F910F91FF90EF9008958091D9039091E9
:104EC000DA03019660E070E04AE050E00C94F60BE3
:104ED0008091D9039091DA03019660E070E00C9420
:104EE000990A0F931F93CF93DF938C0180918A03CC
:104EF0008093A30384E50BDE882309F44DC0E8DF2B
:104F00000E94CE986093A303662309F445C0EEEC9B
:104F1000F3E06491EF0107C08BEB9CE00E9403106B
:104F20002196FE0164916623B9F70936110599F0BF
:104F30000A36110524F408361105E9F407C00D36C8
:104F4000110571F00A3D1105B1F40FC08BEB9CE027
:104F500069E071E00EC08BEB9CE060E271E009C09B
:104F60008BEB9CE067E371E004C08BEB9CE06EE4AC
:104F700071E00E9469154091A30350E060E070E089
:104F80008BEB9CE020E00E9458948BEB9CE06AE065
:104F90000E94031081E001C080E0DF91CF911F915A
:104FA0000F910895AF92BF92CF92DF92EF92FF924E
:104FB0000F931F93CF93DF9332E6E32E33E0F32E6C
:104FC000C0ECD3E000E010E0F801EA50FD4F808132
:104FD0009EDD882331F17CDF5B016C01F801E45A2E
:104FE000FC4F8081882311F061E002C06091D00302
:104FF00070E0882777FD8095982F0E94FC98F70134
:1050000020813181428153810E943A9B9B01AC01F6
:10501000C601B5010E948197688379838A839B8347
:1050200009C0F70180819181A281B381888399832E
:10503000AA83BB830F5F1F4F84E090E0E80EF91E48
:1050400024960430110509F0BFCF86E460DD882383
:10505000D9F03EDF7B018C016093D1037093D203C2
:105060008093D3039093D40320E030E040E050E0FD
:105070000E94689A181644F4E0926502F092660263
:105080000093670210936802DF91CF911F910F91F7
:10509000FF90EF90DF90CF90BF90AF90089582DFA8
:1050A00089E435DD882351F013DF6093B4037093F6
:1050B000B5038093B6039093B7030CC080E090E0F3
:1050C000A0E0B0E08093B4039093B503A093B6033F
:1050D000B093B7038AE41BDD882351F0F9DE6093B7
:1050E000B8037093B9038093BA039093BB030895F8
:1050F00080E090E0A0E0B0E08093B8039093B90323
:10510000A093BA03B093BB0308952F923F924F929E
:105110005F926F927F928F929F92AF92BF92CF9247
:10512000DF92EF92FF920F931F93DF93CF93CDB750
:10513000DEB7C95CD0400FB6F894DEBF0FBECDBF5E
:1051400087E4E5DC882311F40C94DE30C1DE0E9494
:10515000C9986C31710509F4A2C06D3171059CF4D8
:1051600062307105A1F16330710524F4772334F5C1
:105170000C94223E6330710589F16430710511F0A1
:105180000C94223E35C06A35710509F4A8C76B3509
:10519000710554F46D31710509F49CC26E317105CD
:1051A00011F00C94223ED3C66B35710509F49BC7F0
:1051B0006C35710511F00C94223E9AC780919503CD
:1051C000882329F4EFDE0E947D200C94553E8091C7
:1051D0009503882319F463DF81E006C0809195036D
:1051E000882331F45CDF80E00E94B61F0C94553EAA
:1051F00080E58DDC882321F4AA24BB24650105C049
:1052000067DE0E94CE985B016C0183E580DC882319
:1052100059F05EDE20E030E04AE754E40E943A9B19
:105220000E94CE985B016C010E9443710FB6F89406
:10523000E090B30CF090B40C0091B50C1091B60C4A
:105240000FBEEA0CFB1C0C1D1D1D0FB6F8948091BF
:10525000B30C9091B40CA091B50CB091B60C0FBEEC
:105260008093AC039093AD03A093AE03B093AF03D0
:1052700004C00E94327E0E94461F0FB6F8948091AF
:10528000B30C9091B40CA091B50CB091B60C0FBEBC
:105290008E159F05A007B10760F30C94223E8AE6A5
:1052A00092E00E944C868091650290916602A091E6
:1052B0006702B09168028093D5039093D603A093C0
:1052C000D703B093D803809138029091390290931C
:1052D00061038093600384E690E0909339028093A9
:1052E00038020FB6F8948091B30C9091B40CA09151
:1052F000B50CB091B60C0FBE8093AC039093AD0388
:10530000A093AE03B093AF0381E00E941E6F809123
:10531000620390916303A0916403B091650380934D
:10532000C0039093C103A093C203B093C3038091C1
:10533000660390916703A0916803B091690380931D
:10534000C4039093C503A093C603B093C703809191
:105350006A0390916B03A0916C03B0916D038093ED
:10536000C8039093C903A093CA03B093CB03809161
:105370006E0390916F03A0917003B09171038093BD
:10538000CC039093CD03A093CE03B093CF0380E0E2
:1053900090E0A0E0B0E08093650290936602A09355
:1053A0006702B093680288E5B2DB882351F489E58F
:1053B000AEDB882331F48AE5AADB882311F481E08F
:1053C00001C080E080936902882329F488E59FDB8F
:1053D000882309F4C9C080E00E941E6F60916A03AF
:1053E00070916B0380916C0390916D0320E030E02D
:1053F00040E850E40E948197FB01D82EC92E9B0102
:10540000482F592F20936A0330936B0340936C030A
:1054100050936D03CB01DA018093C8039093C903C5
:10542000A093CA03B093CB036091620370916303AE
:105430008091640390916503209166033091670326
:1054400040916803509169037F010D2D1C2D0E942E
:10545000C9210F2EF0E06F2EF0E07F2EF0E08F2EAE
:10546000F0E09F2EF02D60926203709263038092B1
:105470006403909265036091660370916703809165
:10548000680390916903A40193010E9481975B01D5
:105490006C0160916A0370916B0380916C03909131
:1054A0006D03A40193010E9481977B018C0160E050
:1054B00070E080E791E4A60195010E94C921609205
:1054C000620370926303809264039092650381E0AB
:1054D0000E941E6F80E090E00E943D2280E00E94CA
:1054E0001E6F6092620370926303809264039092D5
:1054F000650360919703709198038091990390914F
:105500009A03A40193010E9481971B012C016091D1
:105510006603709167038091680390916903A40109
:1055200093010E9481975B016C0160916A03709105
:105530006B0380916C0390916D03A40193010E9411
:1055400081977B018C01C201B101A60195010E94E6
:10555000C921609262037092630380926403909207
:10556000650381E00E941E6F80916902882321F407
:1055700089E5CDDA882321F081E090E00E943D2288
:1055800080916902882321F48AE5C1DA882321F019
:1055900082E090E00E943D2288E5B9DA8823B1F0EC
:1055A0008CDC611571058105910581F08091720394
:1055B00090917303A0917403B0917503809362037B
:1055C00090936303A0936403B093650389E59FDA26
:1055D0008823B1F072DC611571058105910581F0B8
:1055E0008091760390917703A0917803B09179032D
:1055F0008093660390936703A0936803B093690355
:105600008AE585DA8823B1F058DC611571058105DA
:10561000910581F080917A0390917B03A0917C03A6
:10562000B0917D0380936A0390936B03A0936C0306
:10563000B0936D0360916203709163038091640382
:105640009091650320916603309167034091680350
:1056500050916903E0906A03F0906B0300916C0332
:1056600010916D03FEE6CF2EF3E0DF2E0E94474936
:1056700080E00E941E6F8091D5039091D603A09187
:10568000D703B091D8038093650290936602A093EC
:105690006702B093680280916003909161039093D8
:1056A0003902809338020FB6F8948091B30C909130
:1056B000B40CA091B50CB091B60C0FBE8093AC03A6
:1056C0009093AD03A093AE03B093AF030E94176F06
:1056D0000C94223E0E9443718AE692E00E944C861E
:1056E000CE010D960E94374A6D857E858F859889FB
:1056F00060936203709363038093640390936503E4
:1057000029893A894B895C89209366033093670322
:105710004093680350936903ED88FE880F89188DC4
:10572000E0926A03F0926B0300936C0310936D0395
:10573000EEE6CE2EE3E0DE2E0E9447498091650220
:1057400090916602A0916702B09168028093D503A0
:105750009093D603A093D703B093D80380913802D7
:1057600090913902909361038093600384E690E006
:1057700090933902809338020FB6F8948091B30C5D
:105780009091B40CA091B50CB091B60C0FBE809363
:10579000AC039093AD03A093AE03B093AF0381E04D
:1057A0000E941E6F8091300290913102A0913202CE
:1057B000B09133028093650290936602A0936702D2
:1057C000B0936802C554DF4F1882CB5BD04035E000
:1057D000232E312C8DE290E0C754DF4F99838883CC
:1057E000C95BD040C454DF4F19821882CC5BD040D3
:1057F000CD54DF4F188219821A821B82C35BD040BE
:10580000E1EBF5E09491CA53DF4F9883C65CD0403A
:10581000ECEAF5E0A491C953DF4FA883C75CD04000
:10582000E7EAF5E0B491C853DF4FB883C85CD040D5
:10583000E5EAF5E02491C753DF4F2883C95CD040E7
:105840003DC0C554DF4F8881CB5BD040882391F4A5
:1058500091E0C554DF4F9883CB5BD04022E3222EEA
:10586000312CA3EDBFEFC754DF4FB983A883C95BC9
:10587000D04010C0C554DF4F1882CB5BD04095E0BC
:10588000292E312CEDE2F0E0C754DF4FF983E88395
:10589000C95BD040CD54DF4F88819981AA81BB81FB
:1058A000C35BD0408C549F4FAF4FBF4FCD54DF4FA1
:1058B00088839983AA83BB83C35BD040C454DF4FE2
:1058C00048805980CC5BD040A2E0B0E0C954DF4FA3
:1058D000B983A883C75BD040CD54DF4F88819981BD
:1058E000C35BD040AA2797FDA095BA2FCE53DF4FB8
:1058F00088839983AA83BB83C25CD040411451043E
:10590000D9F4609162037091630380916403909174
:1059100065032091660330916703409168035091BD
:1059200069030F2EF0E0EF2EF0E0FF2EF0E80F2FCE
:10593000F0E41F2FF02D24C0A0906203B090630309
:10594000C0906403D0906503609066037090670315
:10595000809068039090690360916A0370916B0373
:1059600080916C0390916D0320E030E040EA50E4B8
:105970000E9481977B018C01C601B501A4019301AE
:105980000E94C921B101882777FD8095982F0E9438
:10599000FC983B014C01CE53DF4F688179818A81AD
:1059A0009B81C25CD0400E94FC98C254DF4F688348
:1059B00079838A839B83CE5BD040C401B30120915D
:1059C00055023091560240915702509158020E9460
:1059D00080975B016C01C254DF4F688179818A81B5
:1059E0009B81CE5BD0402091590230915A02409168
:1059F0005B0250915C020E9480979B01AC01E09099
:105A00006A03F0906B0300916C0310916D03C60163
:105A1000B5010E94C9219CD8F201EE0FFF1FEE0FC5
:105A2000FF1FA1E0B0E0AC0FBD1FEA0FFB1F80918C
:105A30006A0390916B03A0916C03B0916D0380ABEE
:105A400091ABA2ABB3ABCA53DF4F6881C65CD04009
:105A500001EB15E008C08BEB9CE00E9403100F5F88
:105A60001F4FF80164916623B1F7A101662757FD26
:105A70006095762F8BEB9CE00E94B894C953DF4F62
:105A80006881C75CD0400CEA15E008C08BEB9CE055
:105A90000E9403100F5F1F4FF80164916623B1F756
:105AA0008BEB9CE0CD54DF4F488159816A817B812B
:105AB000C35BD0400E94B894C853DF4F6881C85C74
:105AC000D04007EA15E008C08BEB9CE00E94031071
:105AD0000F5F1F4FF80164916623B1F740916A038D
