:100000000C942F0A0C945A0A0C945A0A0C945A0A0B
:100010000C945A0A0C945A0A0C945A0A0C945A0AD0
:100020000C945A0A0C948F730C94117C0C948B7A58
:100030000C945A0A0C945A0A0C945A0A0C945A0AB0
:100040000C945A0A0C94185C0C945A0A0C945A0A90
:100050000C945A0A0C945A0A0C94B6630C94547972
:100060000C945A0A0C945A0A0C945A0A0C945A0A80
:100070000C945A0A0C945A0A0C945A0A0C945A0A70
:100080000C945A0A0C945A0A0C945A0A0C945A0A60
:100090000C9478750C945A0A084AD73B3BCE016EF3
:1000A00084BCBFFDC12F3D6C74319ABD56833DDACF
:1000B0003D00C77F11BED9E4BB4C3E916BAAAABEDE
:1000C000000000803F05A84CCDB2D44EB93836A907
:1000D000020C50B9918688083CA6AAAA2ABE000044
:1000E00000803F6563686F3A0048617264636F64C3
:1000F00065642044656661756C7420536574746929
:100100006E6773204C6F616465640053746F726531
:10011000642073657474696E6773207265747269A4
:100120006576656400205A0020590020204D323148
:10013000322058004265642070726F6265206F66DD
:100140006673657420286D6D293A00205A00205985
:100150000020204D3231312058004D617820706FE1
:10016000736974696F6E20286D6D293A00205A00FA
:1001700020590020204D3231302058004D696E202A
:10018000706F736974696F6E20286D6D293A002055
:1001900044002049002020204D33303120500050B1
:1001A00049442073657474696E67733A00205A007D
:1001B00020590020204D323036205800486F6D65A0
:1001C000206F666673657420286D6D293A0020459E
:1001D00000205A0020580020420020540020204DCA
:1001E000323035205300416476616E636564207659
:1001F00061726961626C65733A20533D4D696E208E
:10020000666565647261746520286D6D2F73292C95
:1002100020543D4D696E2074726176656C20666570
:1002200065647261746520286D6D2F73292C2042DE
:100230003D6D696E696D756D207365676D656E7472
:100240002074696D6520286D73292C20583D6D61DF
:1002500078696D756D205859206A65726B20286D1C
:100260006D2F73292C20205A3D6D6178696D756D55
:10027000205A206A65726B20286D6D2F73292C20FF
:1002800020453D6D6178696D756D2045206A657208
:100290006B20286D6D2F73290020540020204D32D3
:1002A0003034205300416363656C65726174696F1B
:1002B0006E3A20533D616363656C65726174696F6A
:1002C0006E2C20543D7265747261637420616363A7
:1002D000656C65726174696F6E00204500205A007C
:1002E00020590020204D3230312058004D6178696E
:1002F0006D756D20416363656C65726174696F6EC5
:1003000020286D6D2F7332293A00204500205A00B5
:1003100020590020204D3230332058004D6178693B
:100320006D756D2066656564726174657320286DF6
:100330006D2F73293A00204500205A0020590020D3
:10034000204D3932205800537465707320706572E7
:1003500020756E69743A0053657474696E67732012
:1003600053746F726564006563686F3A004572721A
:100370006F723A005072696E7465722073746F7098
:100380007065642064756520746F206572726F7289
:10039000732E2046697820746865206572726F72CA
:1003A00020616E6420757365204D39393920746F72
:1003B00020726573746172742E202854656D7065A7
:1003C0007261747572652069732072657365742E2D
:1003D00020536574206974206166746572207265AB
:1003E0007374617274696E6729005072696E746506
:1003F000722068616C7465642E206B696C6C2829AE
:100400002063616C6C656421006F6B0052657365DD
:100410006E643A20002200556E6B6E6F776E20631B
:100420006F6D6D616E643A2022007A5F6D696E3A7D
:100430002000795F6D696E3A2000785F6D696E3AD1
:1004400020005A3A00593A0020436F756E742058C4
:100450003A2000453A005A3A00593A00583A004DBD
:10046000616368696E652D547970653A20506F6CD0
:1004700061722033442C204669726D776172652D5C
:1004800056657273696F6E3A20312E312E313630D7
:100490003931336120202020416C6C20526967681B
:1004A00074732052657365727665642C20506F6C8E
:1004B0006172203344204C4C430A0020423A002011
:1004C000453A00543A0020573A0020453A00543A41
:1004D000002042403A0020403A00202F003A0020FD
:1004E0005400202F0020423A00202F006F6B205430
:1004F0003A002569206D696E2C202569207365639B
:10050000000A00205A3A200020593A20004265642F
:1005100020506F736974696F6E20583A20000A008A
:10052000207A3A200020793A200042656420783A07
:1005300020000A00207A3A200020793A2000426503
:100540006420783A20000A00207A3A200020793A84
:10055000200042656420783A20000000A04100009D
:10056000A04000004040FFFFFF5072696E7465724A
:100570002073746F707065642064756520746F20DB
:100580006572726F72732E204669782074686520D8
:100590006572726F7220616E6420757365204D39CB
:1005A000393920746F20726573746172742E20283B
:1005B00054656D706572617475726520697320721F
:1005C000657365742E2053657420697420616674A8
:1005D00065722072657374617274696E6729006F49
:1005E0006B004E6F204C696E65204E756D626572B2
:1005F000207769746820636865636B73756D2C2060
:100600004C617374204C696E653A20004E6F204334
:100610006865636B73756D2077697468206C696EAB
:1006200065206E756D6265722C204C617374204C70
:10063000696E653A2000636865636B73756D206D44
:1006400069736D617463682C204C617374204C690C
:100650006E653A20004C696E65204E756D6265725C
:10066000206973206E6F74204C617374204C696E26
:1006700065204E756D6265722B312C204C61737450
:10068000204C696E653A20004D31313000202050F9
:100690006C616E6E657242756666657242797465EC
:1006A000733A20002046726565204D656D6F727942
:1006B0003A20005365702031332032303136004308
:1006C0006F6D70696C65643A200028777374656596
:1006D0006C652C20506F6C6172426F6172642031C6
:1006E0003630393133612900207C20417574686FC0
:1006F000723A200053657020313320323031362079
:1007000030383A31303A333200204C61737420551E
:100710007064617465643A2000312E302E30004DD3
:1007200061726C696E200020536F66747761726528
:1007300020526573657400205761746368646F6745
:10074000205265736574002042726F776E206F755A
:1007500074205265736574002045787465726E610B
:100760006C20526573657400506F77657255700028
:100770007374617274002200656E717565696E67CD
:100780002022002200656E717565696E6720220067
:100790006563686F3A0020746F6F206C6F6E67201E
:1007A000657874727573696F6E2070726576656EA8
:1007B0007465640020636F6C64206578747275736F
:1007C000696F6E2070726576656E74656400453180
:1007D0003A200045303A20005A3A2000593A200089
:1007E000583A20004D53312C4D53322050696E73CE
:1007F0000A006563686F3A0028002920453A0028FE
:100800000029205A3A0028002920593A00280020BF
:10081000583A005374657070657220637572726522
:100820006E742076616C756573205B252872617724
:10083000295D3A0024F404D9201BC40C5C0E9804F2
:10084000C4095F0265077101F405F900FB04B300F8
:1008500048048700C103690058035500030345009D
:10086000BE023A008402310053022A002902250008
:1008700004022000E4011C00C8011900AF011700A8
:10088000980114008401130071011000610110002F
:1008900051010E0043010D0036010B002B010B002E
:1008A00020010B00150109000C01090003010800DB
:1008B000FB000800F3000800EB000700E40006005E
:1008C000DE000600D8000600D2000600CC000500BD
:1008D000C7000500C2000500BD000400B900040007
:1008E000B5000400B1000400AD000400A90004003C
:1008F000A5000300A20003009F0004009B0003006A
:10090000980003009500020093000300900003008C
:100910008D0002008B0003008800020086000200A8
:1009200084000300810002007F0002007D000200BD
:100930007B000200790002007700010076000200CF
:100940007400020072000100710002006F000200DA
:100950006D0001006C0002006A00010069000200E5
:1009600067000100660001006500010064000200EC
:100970006200010061000100600001005F000200F0
:100980005D0001005C0001005B0001005A000100F5
:1009900059000100580001005700010056000100F5
:1009A00055000100540001005300000053000100F5
:1009B0005200010051000100500001004F000100F1
:1009C0004E0000004E0001004D0001004C000100EF
:1009D0004B0000004B0001004A00010049000100EB
:1009E00048000000480001004700010046000000E8
:1009F00046000100450000004500010044000100E0
:100A000043000000430001004200000042000100DA
:100A10004100000041000100400001003F000000D3
:100A20003F0001003E0000003E0001003D000000CC
:100A30003D0001003C0000003C0000003C000100C3
:100A40003B0000003B0001003A0000003A000100BA
:100A500039000000390001003800000038000000B3
:100A600038000100370000003700010036000000A8
:100A7000360000003600010035000000350000009F
:100A80003500010034000000340000003400010093
:100A9000330000003300000033000100320000008A
:100AA000320000003200010031000000310000007F
:100AB0003100010030000000300000003000010073
:100AC0002F0000002F0000002F0000002F00010069
:100AD0002E0000002E0000002E0001002D0000005E
:100AE0002D0000002D0000002D0001002C00000052
:100AF0002C0000002C0000002C0001002B00000046
:100B00002B0000002B0000002B0001002A00000039
:100B10002A0000002A0000002A000100290000002D
:100B20002900000029000000290000002900010020
:100B30002800000028000000280000002800000015
:100B40002800010027000000270000002700000007
:100B500027000000270001002600000026000000FA
:100B600026000000260000002600010025000000ED
:100B700025000000250000002500000025000000E1
:100B800025000100240000002400000024000000D3
:100B900024000000240001002300000023000000C6
:100BA00023000000230000002300000023000000B9
:100BB00023000100220000002200000022000000AB
:100BC000220000002200000022000100210000009D
:100BD0002100000021000000210000002100000091
:100BE0002100000021000100200000002000000082
:100BF0002000000020000000200000002000000075
:100C000020000000200001001F0000001F00000065
:100C10001F0000001F0000001F0000001F00000058
:100C20001F0001001E0000001E0000001E0000004A
:100C30001E00000024F4D43050C38E20C2A24017FE
:100C4000828B7011127A910D816CD90AA861E1082A
:100C5000C7586607615143061E4B5D05C145A70491
:100C60001A411104093D9803713931034036DB0202
:100C700065339102D4305402802E1D02632CEE01A4
:100C8000752AC501B028A001102781018F256401B4
:100C90002B244B01E0223401AC211F018D200D01DA
:100CA000801FFC00841EED00971DDF00B81CD200E1
:100CB000E61BC600201BBC00641AB200B219A800D3
:100CC0000A19A0006A189900D117910040178B00EB
:100CD000B516840031167E00B31579003A157300FD
:100CE000C7146F0058146A00EE136600881363007F
:100CF00025135E00C7125B006C12570015125400DA
:100D0000C111510070114F0021114B00D610490044
:100D10008D1047004610440002104200C00F4000F2
:100D2000800F3E00420F3C00060F3B00CB0E380008
:100D3000930E37005C0E3500270E3400F30D3200A1
:100D4000C10D3100900D3000600D2E00320D2D00D0
:100D5000050D2C00D90C2B00AE0C2900850C2900A8
:100D60005C0C2700350C27000E0C2600E80B240035
:100D7000C40B2400A00B23007D0B23005A0B210081
:100D8000390B2100180B2000F80A1F00D90A1E0099
:100D9000BB0A1E009D0A1D00800A1D00630A1C007C
:100DA000470A1B002C0A1B00110A1A00F7091A0037
:100DB000DD091900C4091900AB09190092091700CF
:100DC0007B091800630917004C0916003609160044
:100DD000200916000A091500F5081500E00814009E
:100DE000CC081400B8081400A408140090081300DC
:100DF0007D0812006B081300580812004608120004
:100E00003408110023081100120811000108110014
:100E1000F0071000E0071000D0071000C007100016
:100E2000B0070F00A107100091070E0083070F0005
:100E300074070F0065070E0057070E0049070E00E4
:100E40003B070D002E070E0020070D0013070D00B5
:100E500006070D00F9060C00ED060D00E0060C007B
:100E6000D4060C00C8060C00BC060C00B0060C0032
:100E7000A4060B0099060C008D060B0082060B00E1
:100E800077060B006C060B0061060A0057060B0084
:100E90004C060A0042060A0038060A002E060A001E
:100EA00024060A001A060A001006090007060A00AE
:100EB000FD050900F4050900EB050900E20509003C
:100EC000D9050900D0050900C7050900BE050900BC
:100ED000B5050800AD050800A50509009C0508003A
:100EE000940508008C050800840508007C050800AE
:100EF000740508006C050700650508005D0507001E
:100F0000560508004E050700470507004005080084
:100F100038050700310507002A05070023050700EB
:100F20001C050600160507000F050700080506004A
:100F300002050700FB040600F5040700EE040600A6
:100F4000E8040600E2040700DB040600D5040600FE
:100F5000CF040600C9040600C3040600BD04060051
:100F6000B7040600B1040500AC040600A6040600A0
:100F7000A00405009B0406009504050090040600EB
:100F80008A04050085040500800406007A04050033
:100F900075040500700405006B0405006604050077
:100FA000610405005C0405005704050052040500B7
:100FB0004D04050048040500430405003E040400F8
:100FC0003A04050035040500300404002C04050033
:100FD00027040400230405001E0404001A0404006E
:100FE00016040500110404000D04040009040500A2
:100FF0000404040000040400FC030400F8030400DB
:10100000F4030400F0030400EC030400E80304000C
:10101000E4030400E0030400DC030400D80304003C
:10102000D4030400D0030400CC030400C80303006D
:10103000C5030300205A3A0020593A0020583A00CC
:10104000656E6473746F7073206869743A2000452C
:1010500072726F723A0054656D7065726174757268
:1010600065206865617465642062656420737769D2
:101070007463686564206F66662E204D4158544540
:101080004D50207472696767657265642021210084
:101090003A20457874727564657220737769746359
:1010A000686564206F66662E204D494E54454D504C
:1010B000207472696767657265642021003A204573
:1010C0007874727564657220737769746368656497
:1010D000206F66662E204D415854454D5020747245
:1010E00069676765726564202100202D20496E764E
:1010F000616C6964206578747275646572206E75C0
:101100006D626572202100504944204175746F74EE
:10111000756E652066696E69736865642120507517
:101120007420746865204B702C204B6920616E64BC
:10113000204B6420636F6E7374616E747320696EEC
:10114000746F20436F6E66696775726174696F6E44
:101150002E6800504944204175746F74756E652087
:101160006661696C6564212074696D656F757400D2
:1011700020403A006F6B20543A006F6B20423A00D7
:10118000504944204175746F74756E6520666169BD
:101190006C6564212054656D70657261747572654B
:1011A00020746F6F206869676800204B643A2000E4
:1011B000204B693A2000204B703A200020436C619C
:1011C0007369632050494420002054753A20002060
:1011D0004B753A2000206D61783A2000206D696ED1
:1011E0003A200020643A200020626961733A2000AE
:1011F00070012C0190012701B0012201C0011D01E5
:10120000F00118011002130130020E016002090101
:1012100090020401C002FF000003FA004003F50041
:101220008003F000D003EB002004E6007004E1002E
:10123000E004DC004005D700C005D2004006CD0028
:10124000D006C8008007C3003008BE00F008B9000F
:10125000C009B400B00AAF00B00BAA00D00CA500C2
:10126000000EA000500F9B00C0109600501291007D
:1012700000148C00C0158700B0178200B0197D00E3
:10128000D01B7800001E730040206E009022690081
:10129000F024640040275F0090295A00E02B55009D
:1012A000102E500020304B0010324600E033410039
:1012B00090353C001037370070383200A0392D00CF
:1012C000B03A2800A03B2300603C1E00103D1900EE
:1012D000903D1400103E0F00703E0A00C03E050015
:1012E000003F00000129022904290829102920298A
:1012F00040298029012C022C0126022604260826DA
:101300001026202640268026402C802C01230223F4
:1013100004230823102320234023802301200220BC
:10132000042008201020202040208020102C202C79
:10133000012F022F042F082F102F202F402F802F36
:101340007EFE7EFD7EFB7EF77EEF7EDF7EBF7E7FB4
:1013500000010000841312000200009613430003F2
:101360000000D9130401030904DD13180203090462
:10137000F71316030309040F140C0001C1020180C6
:10138000360181361201000202000020C0168304DB
:1013900000010102030109024300020100C03209F9
:1013A00004000001020201000524001001052401CF
:1013B0000001042402060524060001070582030833
:1013C000004009040100020A000000070503024072
:1013D00000000705840240000004030904180354B8
:1013E00000650065006E0073007900640075006997
:1013F000006E006F000000160355005300420020ED
:1014000000530065007200690061006C0000000C70
:1014100003310032003300340035000000494E46ED
:10142000494E4954594E414ECDCCCC3D0AD7233C70
:1014300017B7D13877CC2B329595E6241FB14F0AD8
:10144000000020410000C84200401C4620BCBE4CA9
:10145000CA1B0E5AAEC59D747C5A0074627F11245B
:101460001FBECFEFD0E2DEBFCDBF13E0A0E0B1E002
:10147000E4E6FAE001E00BBF02C007900D92A83449
:10148000B107D9F71BBE1CE0A8E4B3E001C01D9270
:10149000A838B107E1F714E1CEE5D4E104C0229702
:1014A000FE010E94EA84C835D107C9F70E948F7CEB
:1014B0000C9430850C940000A0E0B0E0E2E6FAE085
:1014C0000C94FF84EC015B016115710519F0FB01BF
:1014D00091838083F9908F2D90E00E94EE84892B78
:1014E000C9F7FDE2FF1621F4F990EE24E39405C05C
:1014F0002BE2F21609F4F990EE248E01015010400F
:10150000C8016DE174E143E050E062D2892BF9F447
:101510008E010E5F1F4FC80160E274E145E050E0AC
:1015200057D2892B19F48E01095F1F4FA114B10402
:1015300019F0F50111830083E0FC04C070E090E035
:1015400080E813C070E090E080E86FEF07C1C80149
:1015500065E274E143E050E03BD2892B69F4A114C9
:10156000B10429F470E090E080EC6FE7F7C02296B8
:10157000F501D183C083F6CF8824992440E050E060
:1015800060E070E0EF2DE053EA30A0F5F2E0EF2AE2
:101590008E2D90E09C0128703070E2FE06C0232B57
:1015A00079F50894811C911C2BC0232B19F0089409
:1015B00081089108DB01CA0112E0880F991FAA1F58
:1015C000BB1F1A95D1F7480F591F6A1F7B1F440F85
:1015D000551F661F771F4E0F511D611D711D483924
:1015E00029E9520729E9620729E1720748F084E0F6
:1015F000E82A06C0EE3F31F4E3FC39C098E0E92A5E
:10160000F990C0CFE53311F0E53189F529912D32FC
:1016100019F4E0E1EE2A05C02B3219F081E090E0E8
:1016200003C0299182E090E0E22FE053EA3018F005
:10163000C81BD90B1CC020E030E0FCE020383F077D
:101640005CF4C901880F991F880F991F280F391F53
:10165000220F331F2E0F311DE991E053EA3068F35A
:10166000E4FE03C0309521953F4F820E931ECE2C91
:10167000DD24E1FE07C0A114B10421F02197F5019A
:10168000D183C083CB01BA010E9453817B018C01BD
:10169000F3E0CF22DD2423E0C216D10421F417FBAE
:1016A000109517F9109557016801C801B70120E09E
:1016B00030E040E050E00E94B380882309F44AC043
:1016C00097FE0DC02CE3E22E24E1F22E909481943B
:1016D00091089394C0E2D0E000E010E012C094E5DD
:1016E000E92E94E1F92EF6CFF70125913591459138
:1016F0005491C601B5010E9493835B016C018C1A61
:101700009D0A8C169D0684F7D595C7950F5F1F4FD0
:101710000630110529F08CEF9FEFE80EF91EF1CF8E
:10172000C501D6017C018D018C2D880F8D2D881F60
:101730008F3F51F0C601B50120E030E040E050E0BD
:101740000E94B380882331F482E290E09093870C6A
:101750008093860C7E2D9F2D802F612F272F392F70
:10176000482F562FB901CA01CDB7DEB7ECE00C9473
:101770001B852F923F925F926F927F928F929F92E2
:10178000AF92BF92CF92DF92EF92FF920F931F938F
:10179000CF93DF938C011B01EA016115710519F0EC
:1017A000FB0191838083209749F0CE0102978397B4
:1017B00028F020E030E040E050E0F6C0F801A190D1
:1017C0008F018A2D90E00E94EE84892BB9F7FDE20B
:1017D000AF1631F4F801A1908F015524539407C03E
:1017E000FBE2AF1619F4F801A1908F015524209760
:1017F00019F0C031D105C1F4F0E3AF1679F4F80166
:101800008081883711F0883549F4F801A1800E5F96
:101810001F4FF2E05F2AC0E1D0E006C0209721F41C
:1018200080E3A816E9F427C0C830D10531F1C930EA
:10183000D10524F4C230D10531F50CC0CA30D10530
:1018400089F0C031D105F9F4C12CD12CE12CB8E0DC
:10185000FB2E28C0C12CD12CE12CA0E4FA2E22C0F2
:10186000CAE0D0E0FCECCF2EFCECDF2EFCECEF2E3F
:10187000FCE0FF2E17C0C8E0D0E0C12CD12CE12C39
:10188000E0E1FE2E0FC09E01442737FD4095542F06
:1018900060E070E080E090E80E94AB84C901DA016A
:1018A0006C017D0120E030E040E050E060E03E016E
:1018B000882477FC8094982C70EDB72EBA0CE9E060
:1018C000EB1570F48A2D81548A3118F499ECB92EF5
:1018D00006C08A2D81568A3150F589EAB82EBA0C95
:1018E0008B2D90E08C179D0714F56F3FE1F0C21629
:1018F000D306E406F506B0F0CA01B901A4019301CC
:101900000E9465849B01AC012B0D311D411D511DB1
:101910002130F0E03F07F0E04F07F0E85F0710F4F8
:1019200061E001C06FEFF801A1908F01C5CF2114D4
:10193000310481F0662331F001501040F101118330
:10194000008308C051FE1AC002501040F1011183FB
:10195000008314C067FF12C050FC05C02FEF3FEF9B
:101960004FEF5FE704C020E030E040E050E882E263
:1019700090E09093870C8093860C16C050FE08C0B0
:1019800050954095309521953F4F4F4F5F4F0CC07C
:1019900057FF0AC082E290E09093870C8093860CF8
:1019A0002FEF3FEF4FEF5FE7B901CA01DF91CF9112
:1019B0001F910F91FF90EF90DF90CF90BF90AF906D
:1019C0009F908F907F906F905F903F902F900895A1
:1019D000FB01DC014150504088F08D9181341CF0B6
:1019E0008B350CF4805E659161341CF06B350CF422
:1019F000605E861B611171F3990B0895881BFCCF03
:101A0000FB0155915523A9F0BF01DC014D9145170C
:101A10004111E1F759F4CD010590002049F04D91B5
:101A200040154111C9F3FB014111EFCF81E090E076
:101A300001970895FC018191861721F08823D9F739
:101A4000992708953197CF010895FB01DC0141509A
:101A5000504030F08D910190801919F40020B9F7B1
:101A6000881B990B0895AEE0B0E0E9E3FDE00C942B
:101A700007850D891E898EE08C831A8309838FEF79
:101A80009FE79E838D839E01275E3F4FCE01019687
:101A90006F89788DA9010AD02F813885020F131F15
:101AA000F80110822E96E4E00C942385ABE0B0E0C0
:101AB000ECE5FDE00C94F9843C012B015A01FC019A
:101AC00017821682838181FD03C06FEF7FEFB9C15A
:101AD0009AE0892E1E010894211C311CF3012381F8
:101AE000F20123FD859123FF81912F01882309F4C1
:101AF000A5C1853239F423FD859123FF81912F0102
:101B0000853221F490E0B301B7D1E8CF982FFF24BC
:101B1000EE249924FFE1FF15D0F09B3269F09C324E
:101B200028F4903259F0933291F40EC09D3249F06E
:101B3000903369F441E024C052E0F52A84E0F82AA9
:101B400028C098E0F92A25C0E0E1FE2A22C0F7FC6F
:101B500029C0892F80538A3070F4F6FE05C0989C06
:101B6000902C1124980E15C0E89CE02C1124E80E4E
:101B7000F0E2FF2A0EC09E3229F4F6FC5FC140E479
:101B8000F42A07C09C3619F450E8F52A02C09836AA
:101B900049F4F20123FD959123FF91912F0199239F
:101BA00009F0B8CF892F8554833018F080528330E4
:101BB00038F444E050E0A40EB51E5FE359830FC033
:101BC000933631F0933779F0933509F052C01FC046
:101BD000F5018081898342E050E0A40EB51E6101C9
:101BE00001E010E011C0F501C080D180F6FC03C017
:101BF0006FEF7FEF02C0692D70E042E050E0A40E6D
:101C0000B51EC6012ED18C015FE7F52213C0F50188
:101C1000C080D180F6FC03C06FEF7FEF02C0692D5A
:101C200070E042E050E0A40EB51EC6010FD18C0159
:101C300050E8F52AF3FE06C018C080E290E0B30138
:101C40001BD1EA948E2D90E008171907B0F30DC050
:101C5000F601F7FC8591F7FE81916F0190E0B301E9
:101C60000BD1E110EA94015010400115110581F7E4
:101C7000E2C0943611F0993661F5F7FE08C0F5011F
:101C8000208131814281538184E090E00AC0F501D6
:101C9000808191819C01442737FD4095542F82E03B
:101CA00090E0A80EB91E9FE6F92257FF09C0509593
:101CB0004095309521953F4F4F4F5F4FE0E8FE2A0A
:101CC000CA01B901A1012AE030E002D1D82ED21810
:101CD0003FC0953729F41F2D1F7E2AE030E01DC03C
:101CE0001F2D197F9F3661F0903720F4983509F049
:101CF000A5C00FC0903739F0983709F09FC004C0D5
:101D000028E030E00AC0106114FD146020E130E0EA
:101D100004C014FD166020E132E017FF08C0F50191
:101D2000608171818281938144E050E008C0F501B7
:101D300080819181BC0180E090E042E050E0A40EFF
:101D4000B51EA101C5D0D82ED2188FE7F82EF122EA
:101D5000F6FE0BC05EEFF522D91438F4F4FE07C08E
:101D6000F2FC05C08FEEF82202C01D2D01C0192D16
:101D7000F4FE0DC0FE01ED0DF11D8081803319F4DC
:101D800099EEF92208C01F5FF2FE05C003C08F2D37
:101D9000867809F01F5F0F2DF3FC13C0F0FE0EC014
:101DA0001E1510F09D2C0AC09D2C9E0C911A1E2D04
:101DB00005C080E290E0B3015FD01F5F1E15C8F33D
:101DC00004C01E1510F4E11A01C0EE2404FF0EC079
:101DD00080E390E0B30150D002FF1BC001FD03C0BF
:101DE00088E790E00EC088E590E00BC0802F8678F1
:101DF00081F001FF02C08BE201C080E2F7FC8DE2BE
:101E000090E0B30139D005C080E390E0B30134D055
:101E10009A94D914C8F3DA94F101ED0DF11D808183
:101E200090E0B30129D0DD20B1F705C080E290E059
:101E3000B30122D0EA94EE20C9F750CEF3016681B7
:101E40007781CB012B96E2E10C941585FC0105907E
:101E5000615070400110D8F7809590958E0F9F1FAC
:101E60000895FC016150704001900110D8F78095F1
:101E700090958E0F9F1F08950F931F93CF93DF931D
:101E80008C01EB018B8181FF1BC082FF0DC02E8175
:101E90003F818C819D812817390764F4E881F9819D
:101EA0000193F983E88306C0E885F985802F0995B9
:101EB000892B31F48E819F8101969F838E8302C08E
:101EC0000FEF1FEFC801DF91CF911F910F91089580
:101ED000FA01AA27283051F1203181F1E8946F935B
:101EE0006E7F6E5F7F4F8F4F9F4FAF4FB1E03ED001
:101EF000B4E03CD0670F781F891F9A1FA11D680F9F
:101F0000791F8A1F911DA11D6A0F711D811D911DD1
:101F1000A11D20D009F468943F912AE0269F112446
:101F20003019305D3193DEF6CF010895462F4770AA
:101F3000405D4193B3E00FD0C9F7F6CF462F4F7005
:101F4000405D4A3318F0495D31FD4052419302D063
:101F5000A9F7EACFB4E0A695979587957795679509
:101F6000BA95C9F700976105710508959B01AC0109
:101F70000A2E06945795479537952795BA95C9F730
:101F8000620F731F841F951FA01D0895DF93CF93C9
:101F90000F92CDB7DEB7FC016983A081B1811296A3
:101FA0002D913C911397BE016F5F7F4F41E050E050
:101FB000F90109950F90CF91DF9108950F931F9329
:101FC000DF93CF93CDB7DEB766970FB6F894DEBF39
:101FD0000FBECDBF8091000190910101A09102013F
:101FE000B09103018F87988BA98BBA8BFE013F9626
:101FF00044E650E08081F999FECF1FBA52BD41BD41
:1020000080BD0FB6F894FA9AF99A0FBE4F5F5F4FF2
:102010004836510511F03196EDCFE8E5F5E08081C5
:10202000F999FECF1FBA52BD41BD80BD0FB6F894DD
:10203000FA9AF99A0FBE4F5F5F4F4837510511F07A
:102040003196EDCFE8E4F5E08081F999FECF1FBA33
:1020500052BD41BD80BD0FB6F894FA9AF99A0FBEF1
:102060004F5F5F4F4838510511F03196EDCFE8E6EC
:10207000F5E08081F999FECF1FBA52BD41BD80BD08
:102080000FB6F894FA9AF99A0FBE4F5F5F4F48392E
:10209000510511F03196EDCFECE7F5E08081F9992B
:1020A000FECF1FBA52BD41BD80BD0FB6F894FA9A5B
:1020B000F99A0FBE4F5F5F4F4C39510511F03196C1
:1020C000EDCFE0E8F5E08081F999FECF1FBA52BD6F
:1020D00041BD80BD0FB6F894FA9AF99A0FBE4F5FD2
:1020E0005F4F403A510511F03196EDCFE8E7F5E04A
:1020F0008081F999FECF1FBA52BD41BD80BD0FB698
:10210000F894FA9AF99A0FBE4F5F5F4F443A51051F
:1021100011F03196EDCFE0E9F5E08081F999FECF3D
:102120001FBA52BD41BD80BD0FB6F894FA9AF99A14
:102130000FBE4F5F5F4F483A510511F03196EDCF1A
:10214000E4E4F5E08081F999FECF1FBA52BD41BDAC
:1021500080BD0FB6F894FA9AF99A0FBE4F5F5F4FA1
:102160004C3A510511F03196EDCFE4E8F5E080816D
:10217000F999FECF1FBA52BD41BD80BD0FB6F8948C
:10218000FA9AF99A0FBE4F5F5F4F403B510511F02D
:102190003196EDCFE8E8F5E08081F999FECF1FBADE
:1021A00052BD41BD80BD0FB6F894FA9AF99A0FBEA0
:1021B0004F5F5F4F443B510511F03196EDCFECE896
:1021C000F5E08081F999FECF1FBA52BD41BD80BDB7
:1021D0000FB6F894FA9AF99A0FBE4F5F5F4F483BDB
:1021E000510511F03196EDCFEEE5F3E08081F999DC
:1021F000FECF1FBA52BD41BD80BD0FB6F894FA9A0A
:10220000F99A0FBE4F5F5F4F443C510511F0319674
:10221000EDCF84EB90E09A83898386E490E09C8301
:102220008B832FEF30E03E832D8380EF90E0988703
:102230008F8384E690E09A8789873C872B87FE010D
:1022400031968081F999FECF1FBA52BD41BD80BD44
:102250000FB6F894FA9AF99A0FBE4F5F5F4F463C5B
:10226000510571F7FE0133968081F999FECF1FBAAF
:1022700052BD41BD80BD0FB6F894FA9AF99A0FBECF
:102280004F5F5F4F483C510511F03196EDCFFE0195
:1022900035968081F999FECF1FBA52BD41BD80BDF0
:1022A0000FB6F894FA9AF99A0FBE4F5F5F4F4A3C07
:1022B000510511F03196EDCFFE0137968081F999E5
:1022C000FECF1FBA52BD41BD80BD0FB6F894FA9A39
:1022D000F99A0FBE4F5F5F4F4C3C510511F031969C
:1022E000EDCFFE0139968081F999FECF1FBA52BD1C
:1022F00041BD80BD0FB6F894FA9AF99A0FBE4F5FB0
:102300005F4F4E3C510511F03196EDCFFE013B96EB
:102310008081F999FECF1FBA52BD41BD80BD0FB675
:10232000F894FA9AF99A0FBE4F5F5F4F403D5105FE
:1023300011F03196EDCFE9E4F2E08081F999FECF1A
:102340001FBA52BD41BD80BD0FB6F894FA9AF99AF2
:102350000FBE4F5F5F4F443D510511F03196EDCFF9
:10236000EDE4F2E08081F999FECF1FBA52BD41BD84
:1023700080BD0FB6F894FA9AF99A0FBE4F5F5F4F7F
:10238000483D510511F03196EDCFE1E5F2E0808155
:10239000F999FECF1FBA52BD41BD80BD0FB6F8946A
:1023A000FA9AF99A0FBE4F5F5F4F4C3D510511F0FD
:1023B0003196EDCFE7E9F2E08081F999FECF1FBABF
:1023C00052BD41BD80BD0FB6F894FA9AF99A0FBE7E
:1023D0004F5F5F4F403E510511F03196EDCFEBE975
:1023E000F2E08081F999FECF1FBA52BD41BD80BD98
:1023F0000FB6F894FA9AF99A0FBE4F5F5F4F443EBA
:10240000510511F03196EDCFEFE9F2E08081F999B5
:10241000FECF1FBA52BD41BD80BD0FB6F894FA9AE7
:10242000F99A0FBE4F5F5F4F483E510511F031964C
:10243000EDCF80E290E09E878D87FE013D96808102
:10244000F999FECF1FBA52BD41BD80BD0FB6F894B9
:10245000FA9AF99A0FBE4F5F5F4F4A3E510511F04D
:102460003196EDCFE1E3F2E08081F999FECF1FBA1A
:1024700052BD41BD80BD0FB6F894FA9AF99A0FBECD
:102480004F5F5F4F4E3E510511F03196EDCFEDE3BA
:10249000F2E08081F999FECF1FBA52BD41BD80BDE7
:1024A0000FB6F894FA9AF99A0FBE4F5F5F4F423F0A
:1024B000510511F03196EDCFE5E3F2E08081F99915
:1024C000FECF1FBA52BD41BD80BD0FB6F894FA9A37
:1024D000F99A0FBE4F5F5F4F463F510511F031969D
:1024E000EDCFE1E4F2E08081F999FECF1FBA52BD51
:1024F00041BD80BD0FB6F894FA9AF99A0FBE4F5FAE
:102500005F4F4A3F510511F03196EDCFE9E3F2E01C
:102510008081F999FECF1FBA52BD41BD80BD0FB673
:10252000F894FA9AF99A0FBE4F5F5F4F4E3F5105EC
:1025300011F03196EDCFE5E4F2E08081F999FECF1C
:102540001FBA52BD41BD80BD0FB6F894FA9AF99AF0
:102550000FBE81E04130580721F04F5F5F4F319649
:10256000ECCF8091040190910501A0910601B091FA
:1025700007018B8B9C8BAD8BBE8BFE01739684E623
:1025800090E02081F999FECF1FBA92BD81BD20BD98
:102590000FB6F894FA9AF99A0FBE8736910519F09A
:1025A00001963196EECFE3EEF0E064918F0107C023
:1025B0008CE79CE0EBDC0F5F1F4FF8016491662312
:1025C000B9F7E7E5F3E064918F0107C08CE79CE081
:1025D000DDDC0F5F1F4FF80164916623B9F78CE7CC
:1025E0009CE06AE0D3DC66960FB6F894DEBF0FBEBF
:1025F000CDBFCF91DF911F910F910895EF92FF9280
:102600000F931F93DF93CF93CDB7DEB7E0970FB64D
:10261000F894DEBF0FBECDBFDE011196E4EDF2E00F
:1026200080E101900D928150E1F7DE015196E4ECDA
:10263000F2E080E101900D928150E1F7DE01919688
:10264000E4EBF2E080E101900D928150E1F78981A5
:102650009A81AB81BC818093580590935905A093D2
:102660005A05B0935B0589899A89AB89BC898093A7
:10267000480590934905A0934A05B0934B0589A15D
:102680009AA1ABA1BCA18093680590936905A09322
:102690006A05B0936B058D819E81AF81B88580936B
:1026A0005C0590935D05A0935E05B0935F058D89F1
:1026B0009E89AF89B88D80934C0590934D05A0936A
:1026C0004E05B0934F058DA19EA1AFA1B8A58093F3
:1026D0006C0590936D05A0936E05B0936F05898589
:1026E0009A85AB85BC858093600590936105A09326
:1026F0006205B0936305898D9A8DAB8DBC8D8093F7
:10270000500590935105A0935205B093530589A5A8
:102710009AA5ABA5BCA58093700590937105A09375
:102720007205B09373058D859E85AF85B8898093BA
:10273000640590936505A0936605B09367058D8D3C
:102740009E8DAF8DB8A18093540590935505A093AD
:102750005605B09357058DA59EA5AFA5B8A9809342
:10276000740590937505A0937605B09377050E9444
:10277000F94680E090E0AAE7B4E480937C0590936A
:102780007D05A0937E05B0937F0580E090E8ABE3E4
:10279000B5E48093800590938105A0938205B09362
:1027A00083050F2EF0E0EF2EF0E0FF2EF0E00F2F6C
:1027B000F0E01F2FF02DE0927805F092790500935C
:1027C0007A0510937B0580E29EE4A0E0B0E0809360
:1027D000440590934505A0934605B0934705E092C4
:1027E0009005F0929105009392051093930580E077
:1027F00090E0A0E7B1E48093840590938505A093D1
:102800008605B09387058DEC9CECACE4BEE3809329
:10281000880590938905A0938A05B0938B0580E085
:1028200090E0A0EAB0E480938C0590938D05A0938E
:102830008E05B0938F05E0925E03F0925F030093E4
:10284000600310936103E0926203F09263030093CC
:1028500064031093650380E090E0A0E8BFEB8093F1
:10286000660390936703A0936803B0936903E092B3
:102870004902F0924A0200934B0210934C02E092FC
:102880004D02F0924E0200934F021093500280933B
:10289000510290935202A0935302B09354028AE9DA
:1028A00099E9A1EBB1E48093970290939802A093E9
:1028B0009902B0939A0261E77DE38AE89FE30E9460
:1028C000206360939B0270939C0280939D0290937F
:1028D0009E0260E070E084EE92E40E942C636093BC
:1028E0009F027093A0028093A1029093A2020E9483
:1028F000E36280E090E0A0E8BFE38093A3029093BE
:10290000A402A093A502B093A60280E090E0A0EA02
:10291000B1EC8093310290933202A0933302B093D2
:102920003402E0923502F09236020093370210939F
:102930003802E0923902F0923A0200933B0210937F
:102940003C0280E090E0A8ECB2E480933D029093DA
:102950003E02A0933F02B093400280E090E0A4EBDF
:10296000B3E48093410290934202A0934302B09358
:10297000440280E090E0A6E1B3E4809345029093A6
:102980004602A0934702B0934802E3EEF0E0649160
:102990008F0107C08CE79CE0F9DA0F5F1F4FF80149
:1029A00064916623B9F7E9EEF0E064918F0107C006
:1029B0008CE79CE0EBDA0F5F1F4FF8016491662310
:1029C000B9F78CE79CE06AE0E1DAE0960FB6F8949C
:1029D000DEBF0FBECDBFCF91DF911F910F91FF9052
:1029E000EF900895CF93DF93DB010D900020E9F77E
:1029F0001197A61BB70BEC01E881F9810280F381E6
:102A0000E02DAD010995DF91CF9108950F931F93AC
:102A1000CF93DF9303EE10E0F8016491E80106C064
:102A20008CE79CE0B3DA2196FE0164916623C1F73E
:102A3000E7E4F3E06491EF0106C08CE79CE0A6DADE
:102A40002196FE0164916623C1F78CE79CE06AE061
:102A50009DDAF8016491C3EED0E006C08CE79CE0FB
:102A600095DA2196FE0164916623C1F740915805DD
:102A70005091590560915A0570915B058FE393E081
:102A80000E94DD2040915C0550915D0560915E05DE
:102A900070915F058CE393E00E94DD20409160051A
:102AA00050916105609162057091630589E393E03F
:102AB0000E94DD2040916405509165056091660596
:102AC0007091670586E393E00E94DD208CE79CE02F
:102AD00068E071E087DF8CE79CE06AE057DAF80194
:102AE0006491C3EED0E006C08CE79CE04FDA2196FB
:102AF000FE0164916623C1F7ECE1F3E06491EF011C
:102B000006C08CE79CE042DA2196FE0164916623C0
:102B1000C1F78CE79CE06AE039DAF8016491C3EE12
:102B2000D0E006C08CE79CE031DA2196FE0164918A
:102B30006623C1F7409148055091490560914A05C7
:102B400070914B0583E193E00E94DD2040914C059C
:102B500050914D0560914E0570914F0580E193E0D5
:102B60000E94DD2040915005509151056091520521
:102B7000709153058DE093E00E94DD204091540553
:102B80005091550560915605709157058AE093E084
:102B90000E94DD208CE79CE068E071E023DF8CE799
:102BA0009CE06AE0F3D9F8016491C3EED0E006C07E
:102BB0008CE79CE0EBD92196FE0164916623C1F776
:102BC000ECEEF2E06491EF0106C08CE79CE0DED908
:102BD0002196FE0164916623C1F78CE79CE06AE0D0
:102BE000D5D9F8016491C3EED0E006C08CE79CE033
:102BF000CDD92196FE0164916623C1F74091680505
:102C00005091690560916A0570916B0583EE92E0C1
:102C100062D540916C0550916D0560916E05709183
:102C20006F0580EE92E057D5409170055091710587
:102C300060917205709173058DED92E04CD54091D5
:102C400074055091750560917605709177058AED50
:102C500092E041D58CE79CE068E071E0C3DE8CE750
:102C60009CE06AE093D9F8016491C3EED0E006C01D
:102C70008CE79CE08BD92196FE0164916623C1F715
:102C8000E5EAF2E06491EF0106C08CE79CE07ED9B2
:102C90002196FE0164916623C1F78CE79CE06AE00F
:102CA00075D9F8016491C3EED0E006C08CE79CE0D2
:102CB0006DD92196FE0164916623C1F740917C0590
:102CC00050917D0560917E0570917F058CE992E0C1
:102CD0000E94DD2040918005509181056091820520
:102CE0007091830589E992E00E94DD208CE79CE0E9
:102CF00068E071E077DE8CE79CE06AE047D9F80194
:102D00006491C3EED0E006C08CE79CE03FD92196E9
:102D1000FE0164916623C1F7E6EEF1E06491EF01F4
:102D200006C08CE79CE032D92196FE0164916623AF
:102D3000C1F78CE79CE06AE029D9F8016491C3EE01
:102D4000D0E006C08CE79CE021D92196FE01649179
:102D50006623C1F7409178055091790560917A0515
:102D600070917B058DED91E00E94DD2040919005F2
:102D70005091910560919205709193058AED91E0D3
:102D80000E94DD2040914405509145056091460523
:102D90007091470587ED91E09ED440918405509154
:102DA0008505609186057091870584ED91E00E940C
:102DB000DD20409188055091890560918A057091C8
:102DC0008B0581ED91E00E94DD2040918C055091B2
:102DD0008D0560918E0570918F058EEC91E00E94BB
:102DE000DD208CE79CE068E071E0FCDD8CE79CE096
:102DF0006AE0CCD8F8016491C3EED0E006C08CE75D
:102E00009CE0C4D82196FE0164916623C1F7ECEBE7
:102E1000F1E06491EF0106C08CE79CE0B7D8219601
:102E2000FE0164916623C1F78CE79CE06AE0AED8AE
:102E3000F8016491C3EED0E006C08CE79CE0A6D810
:102E40002196FE0164916623C1F740915E03509183
:102E50005F03609160037091610383EB91E00E94D6
:102E6000DD2040916203509163036091640370918F
:102E7000650380EB91E00E94DD2040916603509154
:102E8000670360916803709169038DEA91E00E9485
:102E9000DD208CE79CE068E071E0A4DD8CE79CE03D
:102EA0006AE074D8F8016491C3EED0E006C08CE704
:102EB0009CE06CD82196FE0164916623C1F7EFE98E
:102EC000F1E06491EF0106C08CE79CE05FD82196A9
:102ED000FE0164916623C1F78CE79CE06AE056D856
:102EE000F8016491C3EED0E006C08CE79CE04ED8B8
:102EF0002196FE0164916623C1F74091970250919B
:102F000098026091990270919A0285E991E00E947D
:102F1000DD2060919B0270919C0280919D029091B6
:102F20009E020E942663AB01BC0182E991E00E94EF
:102F3000DD2060919F027091A0028091A10290918A
:102F4000A2020E943263AB01BC018FE891E00E94B3
:102F5000DD208CE79CE068E071E044DD8CE79CE0DC
:102F60006AE014D8F8016491C3EED0E006C08CE7A3
:102F70009CE00CD82196FE0164916623C1F7ECE732
:102F8000F1E06491EF0107C08CE79CE00E94C60F5E
:102F90002196FE0164916623B9F78CE79CE06AE014
:102FA0000E94C60FF8016491C3EED0E007C08CE721
:102FB0009CE00E94C60F2196FE0164916623B9F73A
:102FC000409131025091320260913302709134028B
:102FD00083E791E00E94DD20409135025091360256
:102FE000609137027091380280E791E00E94DD2005
:102FF0004091390250913A0260913B0270913C023B
:103000008DE691E00E94DD208CE79CE068E071E0B5
:10301000E9DC8CE79CE06AE00E94C60FF80164914D
:10302000C3EED0E007C08CE79CE00E94C60F21965B
:10303000FE0164916623B9F7EAE5F1E06491EF01DE
:1030400007C08CE79CE00E94C60F2196FE016491A8
:103050006623B9F78CE79CE06AE00E94C60FF8018E
:103060006491C3EED0E007C08CE79CE00E94C60FDD
:103070002196FE0164916623B9F740913D0250917B
:103080003E0260913F027091400281E591E00E9412
:10309000DD204091410250914202609143027091C3
:1030A00044028EE491E00E94DD204091450250915F
:1030B000460260914702709148028BE491E00E94C1
:1030C000DD208CE79CE068E071E08CDC8CE79CE024
:1030D0006AE00E94C60FF8016491C3EED0E007C019
:1030E0008CE79CE00E94C60F2196FE016491662346
:1030F000B9F7E4E3F1E06491EF0107C08CE79CE0ED
:103100000E94C60F2196FE0164916623B9F78CE7F1
:103110009CE06AE00E94C60FF8016491C3EED0E023
:1031200007C08CE79CE00E94C60F2196FE016491C7
:103130006623B9F74091490250914A0260914B02CF
:1031400070914C028BE291E00E94DD2040914D0293
:1031500050914E0260914F027091500288E291E0CE
:103160000E94DD2040915102509152026091530221
:103170007091540285E291E00E94DD208CE79CE092
:1031800068E071E02FDC8CE79CE06AE00E94C60FEB
:10319000DF91CF911F910F9108950F931F93DF93AC
:1031A000CF93CDB7DEB766970FB6F894DEBF0FBEEC
:1031B000CDBF8091040190910501A0910601B091CD
:1031C00007018B8B9C8BAD8BBE8BFE013F9604E67B
:1031D00010E0F999FECF12BD01BDF89A80B5808349
:1031E0000F5F1F4F0836110511F03196F2CFCE0157
:1031F0004396BE01615F7F4F43E050E00E94250D82
:10320000009709F017C2E8E5F5E0F999FECF12BD85
:1032100001BDF89A80B580830F5F1F4F08371105F5
:1032200011F03196F2CFE8E4F5E0F999FECF12BD46
:1032300001BDF89A80B580830F5F1F4F08381105D4
:1032400011F03196F2CFE8E6F5E0F999FECF12BD24
:1032500001BDF89A80B580830F5F1F4F08391105B3
:1032600011F03196F2CF0E94F946ECE7F5E0F999BA
:10327000FECF12BD01BDF89A80B580830F5F1F4F4E
:103280000C39110511F03196F2CFE0E8F5E0F9992B
:10329000FECF12BD01BDF89A80B580830F5F1F4F2E
:1032A000003A110511F03196F2CFE8E7F5E0F9990F
:1032B000FECF12BD01BDF89A80B580830F5F1F4F0E
:1032C000043A110511F03196F2CFE0E9F5E0F999F1
:1032D000FECF12BD01BDF89A80B580830F5F1F4FEE
:1032E000083A110511F03196F2CFE4E4F5E0F999CE
:1032F000FECF12BD01BDF89A80B580830F5F1F4FCE
:103300000C3A110511F03196F2CFE4E8F5E0F999A5
:10331000FECF12BD01BDF89A80B580830F5F1F4FAD
:10332000003B110511F03196F2CFE8E8F5E0F9998C
:10333000FECF12BD01BDF89A80B580830F5F1F4F8D
:10334000043B110511F03196F2CFECE8F5E0F99964
:10335000FECF12BD01BDF89A80B580830F5F1F4F6D
:10336000083B110511F03196F2CFEEE5F3E0F99943
:10337000FECF12BD01BDF89A80B580830F5F1F4F4D
:10338000043C110511F03196F2CFFE013196F99906
:10339000FECF12BD01BDF89A80B580830F5F1F4F2D
:1033A000063C110599F7FE013396F999FECF12BD3F
:1033B00001BDF89A80B580830F5F1F4F083C11054F
:1033C00011F03196F2CFFE013596F999FECF12BD7C
:1033D00001BDF89A80B580830F5F1F4F0A3C11052D
:1033E00011F03196F2CFFE013796F999FECF12BD5A
:1033F00001BDF89A80B580830F5F1F4F0C3C11050B
:1034000011F03196F2CFFE013996F999FECF12BD37
:1034100001BDF89A80B580830F5F1F4F0E3C1105E8
:1034200011F03196F2CFFE013B96F999FECF12BD15
:1034300001BDF89A80B580830F5F1F4F003D1105D5
:1034400011F03196F2CFE9E4F2E0F999FECF12BD26
:1034500001BDF89A80B580830F5F1F4F043D1105B1
:1034600011F03196F2CFEDE4F2E0F999FECF12BD02
:1034700001BDF89A80B580830F5F1F4F083D11058D
:1034800011F03196F2CFE1E5F2E0F999FECF12BDED
:1034900001BDF89A80B580830F5F1F4F0C3D110569
:1034A00011F03196F2CFE7E9F2E0F999FECF12BDC3
:1034B00001BDF89A80B580830F5F1F4F003E110554
:1034C00011F03196F2CFEBE9F2E0F999FECF12BD9F
:1034D00001BDF89A80B580830F5F1F4F043E110530
:1034E00011F03196F2CFEFE9F2E0F999FECF12BD7B
:1034F00001BDF89A80B580830F5F1F4F083E11050C
:1035000011F03196F2CFFE013D96F999FECF12BD32
:1035100001BDF89A80B580830F5F1F4F0A3E1105E9
:1035200011F03196F2CFE1E3F2E0F999FECF12BD4E
:1035300001BDF89A80B580830F5F1F4F0E3E1105C5
:1035400011F03196F2CFEDE3F2E0F999FECF12BD22
:1035500001BDF89A80B580830F5F1F4F023F1105B0
:1035600011F03196F2CFE5E3F2E0F999FECF12BD0A
:1035700001BDF89A80B580830F5F1F4F063F11058C
:1035800011F03196F2CFE1E4F2E0F999FECF12BDED
:1035900001BDF89A80B580830F5F1F4F0A3F110568
:1035A00011F03196F2CFE9E3F2E0F999FECF12BDC6
:1035B00001BDF89A80B580830F5F1F4F0E3F110544
:1035C00011F03196F2CFE5E4F2E0F999FECF12BDA9
:1035D00001BDF89A80B5808381E00130180721F0A1
:1035E0000F5F1F4F3196F1CF0E94E362E3EEF0E0F0
:1035F00064918F0108C08CE79CE00E94C60F0F5FAA
:103600001F4FF80164916623B1F7EBE0F1E064919C
:103610008F0108C08CE79CE00E94C60F0F5F1F4F10
:10362000F80164916623B1F78CE79CE06AE00E94A0
:10363000C60F02C00E94FE12E9D966960FB6F89432
:10364000DEBF0FBECDBFCF91DF911F910F910895C7
:10365000CF93DF930FB6F8948091740C9091750C12
:10366000A091760CB091770C0FBE8093830390935A
:103670008403A0938503B0938603E9E0F4E06491AA
:10368000EF0107C08CE79CE00E94C60F2196FE0167
:1036900064916623B9F78CE79CE06AE00E94C60F4C
:1036A000DF91CF9108950895809178030895CF9385
:1036B000DF93DB010D900020E9F71197A61BB70BF4
:1036C000EC01E881F9810280F381E02DAD010995DB
:1036D000DF91CF910895EF92FF920F931F93CF93B5
:1036E000DF93EC017A018B01FC01649107C08CE748
:1036F0009CE00E94C60F2196FE0164916623B9F7F3
:103700008CE79CE0B801A70120E00E94B17CDF912A
:10371000CF911F910F91FF90EF900895CF93DF937A
:103720000E94066380917803882309F034C081E009
:103730008093780380917B0390917C03A0917D031B
:10374000B0917E0380937F0390938003A0938103C5
:10375000B0938203EDE6F3E06491EF0107C08CE7DC
:103760009CE00E94C60F2196FE0164916623B9F782
:10377000E4E7F3E06491EF0107C08CE79CE00E946E
:10378000C60F2196FE0164916623B9F78CE79CE091
:103790006AE00E94C60FDF91CF910895CF93DF9327
:1037A000F8940E940663779A10926A03769A1092B0
:1037B0006B03479A10926C03439AEDE6F3E0649131
:1037C000EF0107C08CE79CE00E94C60F2196FE0126
:1037D00064916623B9F7EAEEF3E06491EF0107C064
:1037E0008CE79CE00E94C60F2196FE01649166233F
:1037F000B9F78CE79CE06AE00E94C60FFFCFEF921A
:10380000FF920F931F930FB6F8948091740C9091D0
:10381000750CA091760CB091770C0FBEE0908703E9
:10382000F09088030091890310918A03209183030B
:10383000309184034091850350918603821B930B42
:10384000A40BB50BE816F9060A071B0730F4E114C0
:10385000F1040105110509F0A1DFE0905502F09097
:1038600056020091570210915802E114F10401052B
:10387000110561F10FB6F8948091740C9091750C5C
:10388000A091760CB091770C0FBE209183033091FC
:1038900084034091850350918603821B930BA40BF4
:1038A000B50BE816F9060A071B0780F49091850A04
:1038B0008091860A981751F4779A10926A03769A43
:1038C00010926B03479A10926C03439A0E94C4466D
:1038D0001F910F91FF90EF9008956F927F928F92BA
:1038E0009F92AF92BF92CF92DF92EF92FF920F938F
:1038F0001F93F82E60918B0370918C0380918D0340
:1039000090918E0320918F03309190034091910309
:10391000509192030E94CE823B014C0100D000D016
:1039200000D00DB71EB70F5F1F4F60912C02709132
:103930002D02882777FD8095982F0E945581209130
:10394000590230915A0240915B0250915C020E94F0
:10395000938320E030E040E752E40E94BA8020E008
:1039600030E048EC52E40E94BA805B016C01F8013F
:103970006082718282829382F48280916D0385835A
:103980008EE493E067E973E04BE853E020E001E068
:1039900032E0E32E0E9411428091970390919803A8
:1039A000A0919903B0919A0380934E0390934F0393
:1039B000A0935003B093510380919B0390919C037B
:1039C000A0919D03B0919E03809352039093530363
:1039D000A0935403B093550380919F039091A0034B
:1039E000A091A103B091A203809356039093570333
:1039F000A0935803B09359038091A3039091A4031B
:103A0000A091A503B091A60380935A0390935B0302
:103A1000A0935C03B0935D030FB6F8948091740C8F
:103A20009091750CA091760CB091770C0FBE80939D
:103A3000830390938403A0938503B09386038DB78B
:103A40009EB706960FB6F8949EBF0FBE8DBF1F910E
:103A50000F91FF90EF90DF90CF90BF90AF909F902D
:103A60008F907F906F9008954F925F926F927F92A8
:103A70008F929F92AF92BF92CF92DF92EF92FF927E
:103A80000F931F93DF93CF9300D000D0CDB7DEB755
:103A90000FB6F8948091740C9091750CA091760CEF
:103AA000B091770C0FBE8093830390938403A0930F
:103AB0008503B09386038091970390919803A0911A
:103AC0009903B0919A0389839A83AB83BC836091F5
:103AD0004E0370914F0380915003909151032981BF
:103AE0003A814B815C810E94B380882309F09DC09C
:103AF00040909B0350909C0360909D0370909E03A8
:103B00006091520370915303809154039091550337
:103B1000A30192010E94B380882309F086C000D0DF
:103B2000CDB6DEB60894C11CD11CE0909F03F09086
:103B3000A0030091A1031091A2036091590270911A
:103B40005A0280915B0290915C0220E030E040E7F5
:103B500052E40E94BA804B015C018DE693E0D601ED
:103B60008D939C9369817A818B819C81A3019201C1
:103B7000E3EACE2EE3E0DE2E0E94E24C0F900F909F
:103B80008091970390919803A0919903B0919A0323
:103B900080934E0390934F03A0935003B09351032F
:103BA00080919B0390919C03A0919D03B0919E03F3
:103BB0008093520390935303A0935403B0935503FF
:103BC00080919F039091A003A091A103B091A203C3
:103BD0008093560390935703A0935803B0935903CF
:103BE0008091A3039091A403A091A503B091A60393
:103BF00080935A0390935B03A0935C03B0935D039F
:103C00000F900F900F900F90CF91DF911F910F9118
:103C1000FF90EF90DF90CF90BF90AF909F908F90EC
:103C20007F906F905F904F90089500D0CDB6DEB634
:103C30000894C11CD11C40909B0350909C03609041
:103C40009D0370909E03E0909F03F090A00300916D
:103C5000A1031091A20360912C0270912D0288277C
:103C600077FD8095982F0E945581209159023091BF
:103C70005A0240915B0250915C020E94938320E0C3
:103C800030E040E752E40E94BA8020E030E048ECA7
:103C900052E40E94BA804B015C018DE693E0F6018C
:103CA000918380835FCFCF93DF938CE79CE00E946A
:103CB000377EECE0F4E06491EF0107C08CE79CE014
:103CC0000E94C60F2196FE0164916623B9F74091C8
:103CD0007B0350917C0360917D0370917E034F5F65
:103CE0005F4F6F4F7F4F8CE79CE00E94117D8CE708
:103CF0009CE06AE00E94C60FABDCDF91CF91089593
:103D00004F925F926F927F928F929F92AF92BF92EB
:103D1000CF92DF92EF92FF920F931F934090590240
:103D200050905A0260905B0270905C020F2EF0E09F
:103D3000AF2EF0E8BF2EFBE3CF2EF5E4DF2EF02D03
:103D4000A0925902B0925A02C0925B02D0925C02D9
:103D500060934E0370934F038093500390935103ED
:103D600020935203309353034093540350935503CD
:103D7000E0925603F09257030093580310935903AF
:103D800000D0EDE6F3E0ADB7BEB71296FC93EE932C
:103D90001197FAE5CF2EF3E0DF2E0F2EF0E08F2EF5
:103DA000F0E09F2EF8E4AF2EF2E4BF2EF02D0E943B
:103DB000E24C0F900F900E94005C4092590250928A
:103DC0005A0260925B0270925C021F910F91FF9009
:103DD000EF90DF90CF90BF90AF909F908F907F90AB
:103DE0006F905F904F900895F8946AE070E080E0E3
:103DF00090E00E94947981E08093E00080E28093DB
:103E0000D80064E670E080E090E00E9494791DBAEA
:103E1000109268001CBC10BE1FBA10927A0010925B
:103E20006E0010926F00109270001092710010924C
:103E3000C9001092BC0011B814B817B81AB81DB850
:103E400010BA12B815B818B81BB81EB811BA0C942D
:103E500000F8FFCF4091B2035091B30320E630E069
:103E6000B901469F9001479F300D569F300D112498
:103E7000682F772767FD7095C9018C549C4F0E946D
:103E80001A0D9C019093B1038093B00380E0232B23
:103E900009F081E008952F923F924F925F926F92C6
:103EA0007F928F929F92AF92BF92CF92DF92EF92CA
:103EB000FF920F931F93DF93CF93CDB7DEB72E976B
:103EC0000FB6F894DEBF0FBECDBF8EE592E00E9424
:103ED0006E7060912402709125028091260290916B
:103EE00027026093590270935A0280935B02909369
:103EF0005C0200D0CDB6DEB60894C11CD11CE090A7
:103F00004E03F0904F0300915003109151034090E5
:103F10005203509053036090540370905503AAE5E8
:103F20002A2EA3E03A2E20E030E040E752E40E943F
:103F3000BA804B015C01EDE6F3E0D601ED93FC9312
:103F4000C801B701A30192010F2EF0E0EF2EF0E0BF
:103F5000FF2EF0E20F2FF1EC1F2FF02D61010E94D8
:103F6000E24C0F900F900E94005C82E00E945D5A2C
:103F70004B015C0160914E0370914F03809150039F
:103F80009091510320915203309153034091540377
:103F900050915503850174010E94414722E635E0A6
:103FA000F90185919591A591B49189839A83AB8309
:103FB000BC83C501B40129813A814B815C810E9497
:103FC000DA7F6D837E838F83988700D0CDB6DEB68F
:103FD0000894C11CD11CE0904E03F0904F03009157
:103FE000500310915103409052035090530360903E
:103FF0005403709055036091590270915A02809158
:104000005B0290915C0220E030E040E752E40E94C5
:10401000BA804B015C01EDE6F3E0D601ED93FC9331
:10402000C801B701A3019201ED80FE800F811885C0
:1040300061010E94E24C0F900F900E94005C609121
:10404000240270912502809126029091270220E09F
:1040500030E040E85EE30E9493835B016C01609373
:10406000590270935A0280935B0290935C0200D0D5
:104070008DB79EB701969E878D8740904E035090D6
:104080004F036090500370905103809152039091C0
:104090005303A0915403B091550389879A87AB8746
:1040A000BC8769817A818B819C8120E030E040E08F
:1040B00050EC0E9493839B01AC016D817E818F81C6
:1040C00098850E94DA7F7B018C01C601B50120E052
:1040D00030E040E752E40E94BA804B015C01EDE61B
:1040E000F3E0AD85BE85ED93FC93C301B201298554
:1040F0003A854B855C8561010E94E24C0F900F90E0
:104100000E94005C82E00E945D5A7B018C016093FA
:10411000560370935703809358039093590360910B
:104120004E0370914F038091500390915103209161
:1041300052033091530340915403509155030E9410
:1041400041472E960FB6F894DEBF0FBECDBFCF917C
:10415000DF911F910F91FF90EF90DF90CF90BF9074
:10416000AF909F908F907F906F905F904F903F9017
:104170002F900895EF92FF920F931F93CF93DF93A9
:10418000EC017A018B01FC01649107C08CE79CE093
:104190000E94C60F2196FE0164916623B9F78CE751
:1041A0009CE0B801A70122E00E941E7DDF91CF9123
:1041B0001F910F91FF90EF900895EF92FF920F9350
:1041C0001F93CF93DF93EC017A018B01FC01649183
:1041D00007C08CE79CE00E94C60F2196FE01649107
:1041E0006623B9F78CE79CE0B801A70122E00E94A2
:1041F0001E7DDF91CF911F910F91FF90EF90089559
:104200008091B0039091B103019660E070E04AE0C4
:1042100050E00C94B90B8091B0039091B1030196DA
:1042200060E070E00C945C0A0F931F93CF93DF93D0
:104230008C0180916D0380937A0384E50BDE8823E3
:1042400009F44CC0E8DF0E94278160937A0366235B
:1042500009F444C0E7E6F3E06491EF0107C08CE79E
:104260009CE00E94C60F2196FE0164916623B9F777
:104270000936110599F00A36110524F4083611059E
:10428000E1F407C00D36110571F00A3D1105A9F4DE
:104290000FC08CE79CE069E071E00EC08CE79CE009
:1042A00060E271E009C08CE79CE067E371E004C064
:1042B0008CE79CE06EE471E0FAD940917A0350E01B
:1042C00060E070E08CE79CE020E00E94B17C8CE72D
:1042D0009CE06AE00E94C60F81E001C080E0DF91AF
:1042E000CF911F910F910895AF92BF92CF92DF921D
:1042F000EF92FF920F931F93CF93DF93BEE4EB2EC9
:10430000B3E0FB2EC7E9D3E000E010E0F801EC5188
:10431000FD4F80819FDD882331F17DDF5B016C01E2
:10432000F801E85BFC4F8081882311F061E002C056
:104330006091A70370E0882777FD8095982F0E94F1
:104340005581F70120813181428153810E949383FD
:104350009B01AC01C601B5010E94DA7F68837983B5
:104360008A839B8309C0F70180819181A281B381F7
:1043700088839983AA83BB830F5F1F4F84E090E0FB
:10438000E80EF91E24960430110509F0BFCF86E42B
:1043900061DD8823D9F03FDF7B018C016093A803A6
:1043A0007093A9038093AA039093AB0320E030E0BD
:1043B00040E050E00E94C182181644F4E092590295
:1043C000F0925A0200935B0210935C02DF91CF914E
:1043D0001F910F91FF90EF90DF90CF90BF90AF9023
:1043E000089582DF89E436DD882351F014DF60937D
:1043F0008B0370938C0380938D0390938E030CC07A
:1044000080E090E0A0E0B0E080938B0390938C0379
:10441000A0938D03B0938E038AE41CDD882351F0B2
:10442000FADE60938F0370939003809391039093CF
:104430009203089580E090E0A0E0B0E080938F03C5
:1044400090939003A0939103B093920308952F92B9
:104450003F924F925F926F927F928F929F92AF9214
:10446000BF92CF92DF92EF92FF920F931F93DF9351
:10447000CF93CDB7DEB7AC970FB6F894DEBF0FBEC3
:10448000CDBF9E878D87892B19F4E6E6F5E007C03E
:104490002D853E852130310531F4E7E6F5E0E491E4
:1044A000E7FF50C30CC04D855E854230510509F0D1
:1044B00049C3E8E6F5E0E491E7FF44C398C08D8581
:1044C0009E85029709F0A5C092C0A5DE0894211C24
:1044D000311C0E94F04620E030E040E050E02093A4
:1044E0005A0330935B0340935C0350935D036091E8
:1044F0004E0370914F03809150039091510320918E
:104500005203309153034091540350915503E0906E
:104510005603F09057030091580310915903FAE5A0
:10452000CF2EF3E0DF2E0E94414780E090E0A0E82C
:10453000BFE38093A3039093A403A093A503B09338
:10454000A603609124027091250280912602909129
:1045500027026093590270935A0280935B029093F2
:104560005C0200D0CDB6DEB60894C11CD11C4090D0
:104570009703509098036090990370909A0320914C
:104580009B0330919C0340919D0350919E032F8784
:10459000388B498B5A8BE0909F03F090A0030091D9
:1045A000A1031091A20320E030E040E752E40E9412
:1045B000BA804B015C01EDE6F3E0D601ED93FC938C
:1045C000C301B2012F85388949895A89E3EACE2E81
:1045D000E3E0DE2E0E94E24C0F900F900E94005C00
:1045E00060E070E080E293E40E94F04602C0222482
:1045F0003324649B0EC0FFE02F16310451F083E595
:1046000029DC882309F061CF60E070E080E090E071
:104610005DCF2D843E84220C331C220C331C91016F
:10462000225B3C4F3C8B2B8B80E090E0A0E0B0E025
:10463000F90180839183A283B38360914E037091CB
:104640004F03809150039091510320915203309178
:1046500053034091540350915503E0905603F0905A
:1046600057030091580310915903AAE5CA2EA3E0FD
:10467000DA2E0E9441478E010F5F1F4F8CE0D80158
:104680001D928A95E9F760913D0270913E028091FA
:104690003F029091400220913102309132024091CC
:1046A0003302509134020E94D97F69837A838B83CD
:1046B0009C836091410270914202809143029091EB
:1046C00044022091350230913602409137025091D8
:1046D00038020E94D97F6D837E838F839887609193
:1046E00045027091460280914702909148022091C4
:1046F000390230913A0240913B0250913C020E94B3
:10470000D97F69877A878B879C87ED85FE85EA59F3
:10471000FA4FD490F101E956FC4FFE8BED8B020D60
:10472000131DD8016D917D918D919C9120E030E019
:1047300040EC5FE30E9493837B018C016D2D772712
:1047400067FD7095872F972F0E9455816F8B788F0B
:10475000898F9A8FC801B7012F89388D498D5A8D5D
:104760000E949383ED89FE896083718382839383A2
:104770009101245E3D4F3C8F2B8FD9016D917D912E
:104780008D919C916093590270935A0280935B02C1
:1047900090935C0200D0CDB6DEB60894C11CD11C4B
:1047A00040909703509098036090990370909A03FB
:1047B00020919B0330919C0340919D0350919E0357
:1047C0002D8F3E8F4F8F58A3E0909F03F090A00352
:1047D0000091A1031091A20320E030E040E752E4F1
:1047E0000E94BA804B015C01EDE6F3E0D601ED9347
:1047F000FC93C301B2012D8D3E8D4F8D58A1F3EA7C
:10480000CF2EF3E0DF2E0E94E24C0F900F900E941B
:10481000005C20E030E040E050E0AB89BC892D93A3
:104820003D934D935C93139760914E0370914F03AA
:104830008091500390915103209152033091530382
:104840004091540350915503E0905603F090570364
:104850000091580310915903EAE5CE2EE3E0DE2ED5
:104860000E944147EAE5F5E02E0E3F1EF10145901A
:10487000559065907490C301B20190582F89388D7E
:10488000498D5A8D0E949383AD89BE896D937D9326
:104890008D939C93139700D0CDB6DEB60894C11CBF
:1048A000D11C209197033091980340919903509126
:1048B0009A0329A33AA34BA35CA380919B039091F5
:1048C0009C03A0919D03B0919E038DA39EA3AFA3D3
:1048D000B8A7E0909F03F090A0030091A10310916E
:1048E000A2036091590270915A0280915B029091EB
:1048F0005C0220E030E040E752E40E94BA804B01C5
:104900005C01EDE6F3E0D601ED93FC9369A17AA199
:104910008BA19CA12DA13EA14FA158A5B3EACB2EFE
:10492000B3E0DB2E0E94E24C0F900F900E94005CDF
:10493000C301B201A30192010E94DA7F2F89388D51
:10494000498D5A8D0E949383AD89BE896D937D9365
:104950008D939C931397EB8DFC8D60817181828187
:10496000938120E030E040E05FE30E949383609316
:10497000590270935A0280935B0290935C0200D0BC
:10498000CDB6DEB60894C11CD11C40909703509060
:1049900098036090990370909A0320919B03309143
:1049A0009C0340919D0350919E0329A73AA74BA7D2
:1049B0005CA7E0909F03F090A0030091A1031091E9
:1049C000A20320E030E040E752E40E94BA804B01AD
:1049D0005C01EDE6F3E0D601ED93FC93C301B20177
:1049E00029A53AA54BA55CA5A3EACA2EA3E0DA2E19
:1049F0000E94E24C0F900F900E94005C0E9494591C
:104A00002D853E85232B09F076C06091310270918F
:104A100032028091330290913402905860934E0399
:104A200070934F038093500390935103209152034E
:104A3000309153034091540350915503E090560335
:104A4000F09057030091580310915903FAE5CF2EC7
:104A5000F3E0DF2E0E94414780E090E0A0E0B0E06C
:104A60008093970390939803A0939903B0939A032C
:104A700060911C0270911D0280911E0290911F0294
:104A80006093590270935A0280935B0290935C0288
:104A900000D0CDB6DEB60894C11CD11C40909B035B
:104AA00050909C0360909D0370909E03E0909F0344
:104AB000F090A0030091A1031091A20320E030E048
:104AC00040E752E40E94BA804B015C01EDE6F3E05E
:104AD000D601ED93FC9360E070E080E090E0A301EC
:104AE0009201E3EACE2EE3E0DE2E0E94E24C0F902C
:104AF0000F900E94005CED85FE85EE0FFF1FEE0F0C
:104B0000FF1FDF01A25ABC4F2D913D914D915C9149
:104B1000DF01A25BBC4F2D933D934D935C931397A4
:104B2000E956FC4F208331834283538380E090E039
:104B3000A0E0B0E08093590290935A02A0935B02E8
:104B4000B0935C02AC960FB6F894DEBF0FBECDBF3B
:104B5000CF91DF911F910F91FF90EF90DF90CF9059
:104B6000BF90AF909F908F907F906F905F904F908D
:104B70003F902F9008952F923F924F925F926F92A5
:104B80007F928F929F92AF92BF92CF92DF92EF92DD
:104B9000FF920F931F93DF93CF93CDB7DEB7C65D20
:104BA000D0400FB6F894DEBF0FBECDBF87E452D918
:104BB000882311F40C940F2F2EDB0E9422816C317C
:104BC000710509F4A5C06D3171059CF46230710561
:104BD000B9F16330710524F477234CF50C94E83B6C
:104BE00063307105A1F16430710511F00C94E83B5C
:104BF00038C06A35710511F40C94A02E6B3571051F
:104C000054F46D31710509F447C36E31710511F02B
:104C10000C94E83BCDC76B35710511F40C94A42EB0
:104C20006C35710511F00C94E83B0C94A92E809121
:104C30007803882329F458DB0E94341D0C941B3C14
:104C400080917803882319F4CCDB81E006C0809141
:104C50007803882331F4C5DB80E00E946D1C0C943E
:104C60001B3C80E5F7D8882321F4AA24BB246501E6
:104C700005C0D1DA0E9427815B016C0183E5EAD887
:104C8000882359F0C8DA20E030E04AE754E40E9473
:104C900093830E9427815B016C010E94005C0FB628
:104CA000F894E090740CF090750C0091760C1091D3
:104CB000770C0FBEEA0CFB1C0C1D1D1D0FB6F894E3
:104CC0008091740C9091750CA091760CB091770C3A
:104CD0000FBE8093830390938403A0938503B093C6
:104CE000860304C00E9421670E94FF1B0FB6F89440
:104CF0008091740C9091750CA091760CB091770C0A
:104D00000FBE8E159F05A007B10760F30C94E83B1A
:104D10008EE592E00E946E708091590290915A0245
:104D2000A0915B02B0915C028093AC039093AD03C1
:104D3000A093AE03B093AF0380912C0290912D020B
:104D400090934D0380934C0384E690E090932D0262
:104D500080932C020FB6F8948091740C9091750C8E
:104D6000A091760CB091770C0FBE80938303909343
:104D70008403A0938503B093860381E00E949B592E
:104D800080914E0390914F03A0915003B091510335
:104D90008093970390939803A0939903B0939A03F9
:104DA0008091520390915303A0915403B091550305
:104DB00080939B0390939C03A0939D03B0939E03C9
:104DC0008091560390915703A0915803B0915903D5
:104DD00080939F039093A003A093A103B093A20399
:104DE00080915A0390915B03A0915C03B0915D03A5
:104DF0008093A3039093A403A093A503B093A60369
:104E000080E090E0A0E0B0E08093590290935A02D5
:104E1000A0935B02B0935C0288E51CD8882351F410
:104E200089E518D8882331F48AE514D8882311F449
:104E300081E001C080E080935D02882329F488E549
:104E400009D8882309F427C180E00E949B5960910A
:104E5000240270912502809126029091270220E081
:104E600030E040E05FE30E949383609359027093C7
:104E70005A0280935B0290935C026091560370919A
:104E80005703809158039091590320E030E040E0AF
:104E900050E40E94DA7FFB01D82EC92E9B01482FD7
:104EA000592F209356033093570340935803509340
:104EB0005903CB01DA0180939F039093A003A09341
:104EC000A103B093A20360914E0370914F038091B0
:104ED000500390915103209152033091530340911C
:104EE0005403509155037F010D2D1C2D0E94801EEF
:104EF00080911C0290911D02A0911E02B0911F0290
:104F00008093590290935A02A0935B02B0935C0283
:104F10000F2EF0E02F2EF0E03F2EF0E04F2EF0E0CD
:104F20005F2EF02D20924E0330924F03409250039B
:104F30005092510360E070E080EA90E420913102E9
:104F40003091320240913302509134020E94D97F55
:104F5000A20191010E94DA7F3B014C016091520352
:104F6000709153038091540390915503A2019101D4
:104F70000E94DA7F5B016C016091560370915703C8
:104F80008091580390915903A20191010E94DA7F08
:104F90007B018C01C401B301A60195010E94801E12
:104FA00020924E0330924F0340925003509251038F
:104FB00081E00E949B5980E090E049DA80E00E9405
:104FC0009B5960913102709132028091330290912D
:104FD000340260934E0370934F0380935003909379
:104FE0005103A20191010E94DA7F3B014C016091C3
:104FF0005203709153038091540390915503A20181
:1050000091010E94DA7F5B016C01609156037091FF
:1050100057038091580390915903A20191010E9476
:10502000DA7F7B018C01C401B301A60195010E94C6
:10503000801E80915D02882389F080915E039091AB
:105040005F03A0916003B091610380934E0390933E
:105050004F03A0935003B09351031AC060915E03B5
:1050600070915F0380916003909161032091310200
:105070003091320240913302509134020E94D97F24
:1050800060934E0370934F038093500390935103AA
:1050900081E00E949B5980915D02882329F489E573
:1050A0000E942A1F882319F081E090E0D0D98091D6
:1050B0005D02882329F48AE50E942A1F882319F0BB
:1050C00082E090E0C4D980915D02882329F488E5CC
:1050D0000E942A1F882351F193D86115710581051B
:1050E0009105A1F098D820915E0330915F03409123
:1050F0006003509161030E94DA7F60934E037093C6
:105100004F03809350039093510310C080915E032E
:1051100090915F03A0916003B091610380934E036F
:1051200090934F03A0935003B093510380915D027D
:10513000882329F489E50E942A1F882351F160D829
:105140006115710581059105A1F065D82091620373
:105150003091630340916403509165030E94DA7FAC
:1051600060935203709353038093540390935503B9
:1051700010C08091620390916303A0916403B09189
:1051800065038093520390935303A0935403B09309
:10519000550380915D02882329F48AE50E942A1F25
:1051A000882351F12DD86115710581059105A1F074
:1051B00032D8209166033091670340916803509183
:1051C00069030E94DA7F60935603709357038093BC
:1051D00058039093590310C0809166039091670320
:1051E000A0916803B091690380935603909357038D
:1051F000A0935803B093590360914E0370914F03ED
:1052000080915003909151032091520330915303A8
:105210004091540350915503E0905603F09057038A
:105220000091580310915903FAE5CF2EF3E0DF2ED9
:105230000E94414780E00E949B598091AC0390916D
:10524000AD03A091AE03B091AF0380935902909348
:105250005A02A0935B02B0935C0280914C03909140
:105260004D0390932D0280932C020FB6F8948091F9
:10527000740C9091750CA091760CB091770C0FBEC8
:105280008093830390938403A0938503B093860354
:105290000E9494590C94E83B0E94005C8EE592E0D9
:1052A0000E946E70CE010D960E9431486D857E85FC
:1052B0008F85988960934E0370934F0380935003BA
:1052C0009093510329893A894B895C892093520331
:1052D000309353034093540350935503ED88FE8855
:1052E0000F89188DE0925603F092570300935803EC
:1052F00010935903EAE5CE2EE3E0DE2E0E944147EB
:105300008091590290915A02A0915B02B0915C0287
:105310008093AC039093AD03A093AE03B093AF031F
:1053200080912C0290912D0290934D0380934C0319
:1053300084E690E090932D0280932C020FB6F894AF
:105340008091740C9091750CA091760CB091770CB3
:105350000FBE8093830390938403A0938503B0933F
:10536000860381E00E949B5980912402909125023E
:10537000A0912602B09127028093590290935A027D
:10538000A0935B02B0935C0260914E0370914F0357
:105390008091500390915103209152033091530317
:1053A00040915403509155030F2EF0E0EF2EF0E0A2
:1053B000FF2EF0E00F2FF0E41F2FF02D0E94801E33
:1053C00060E070E080E89FE32091490230914A025A
:1053D00040914B0250914C020E94D97F5B016C01BD
:1053E00060E070E084EB92E420914D0230914E0237
:1053F00040914F02509150020E94D97F9B01AC0115
:10540000E0905603F0905703009158031091590310
:10541000C601B5010E94801E0E944B1F8091560359
:1054200090915703A0915803B0915903CD52DF4F8B
:1054300088839983AA83BB83C35DD040E2E5F5E00E
:1054400064918F0108C08CE79CE00E94C60F0F5F3B
:105450001F4FF80164916623B1F78CE79CE041E0AF
:1054600050E060E070E00E94117DEDE4F5E06491B1
:105470008F0108C08CE79CE00E94C60F0F5F1F4F92
:10548000F80164916623B1F78CE79CE04AE550E0AF
:1054900060E070E00E94117DE8E4F5E064918F0126
:1054A00008C08CE79CE00E94C60F0F5F1F4FF801F9
:1054B00064916623B1F74091560350915703609170
:1054C0005803709159038CE79CE022E00E941E7DF6
:1054D000E6E4F5E064918F0108C08CE79CE00E944F
:1054E000C60F0F5F1F4FF80164916623B1F7A090BC
:1054F0004E03B0904F03C0905003D0905103609082
:105500005203709053038090540390905503609120
:10551000560370915703809158039091590320E0EE
:1055200030E040E050E40E94DA7F7B018C01C6014C
:10553000B501A40193010E94801E60E070E080E844
:105540009FE32091490230914A0240914B025091D1
:105550004C020E94D97F5B016C0160E070E080E04A
:1055600090E020914D0230914E0240914F025091B7
:1055700050020E94D97F9B01AC01E0905603F0904D
:1055800057030091580310915903C601B5010E94B9
:10559000801E0E944B1F209056033090570340906E
:1055A000580350905903EEE3F5E064918F0108C071
:1055B0008CE79CE00E94C60F0F5F1F4FF8016491BB
:1055C0006623B1F78CE79CE041E050E060E070E0DA
:1055D0000E94117DE9E3F5E064918F0108C08CE73A
:1055E0009CE00E94C60F0F5F1F4FF8016491662375
:1055F000B1F78CE79CE040E050E060E070E00E9492
:10560000117DE4E3F5E064918F0108C08CE79CE034
:105610000E94C60F0F5F1F4FF80164916623B1F718
:10562000409156035091570360915803709159036C
:105630008CE79CE022E00E941E7DE2E3F5E06491AD
:105640008F0108C08CE79CE00E94C60F0F5F1F4FC0
:10565000F80164916623B1F7A0904E03B0904F0318
:10566000C0905003D0905103609052037090530348
:1056700080905403909055036091560370915703A6
:10568000809158039091590320E030E040E050E4CD
:105690000E94DA7F7B018C01C601B501A401930150
:1056A0000E94801E60E070E088E492E4209149024C
:1056B00030914A0240914B0250914C020E94D97F96
:1056C0005B016C0160E070E080E090E020914D02B1
:1056D00030914E0240914F02509150020E94D97F6A
:1056E0009B01AC01E0905603F090570300915803E2
:1056F00010915903C601B5010E94801E0E944B1FE4
:10570000EAE2F5E064918F0108C08CE79CE00E941A
:10571000C60F0F5F1F4FF80164916623B1F78CE746
:105720009CE042E350E060E070E00E94117DE5E221
:10573000F5E064918F0108C08CE79CE00E94C60FE1
:105740000F5F1F4FF80164916623B1F78CE79CE06F
:1057500040E050E060E070E00E94117DE0E2F5E0A2
:1057600064918F0108C08CE79CE00E94C60F0F5F18
:105770001F4FF80164916623B1F740915603509191
:10578000570360915803709159038CE79CE022E025
:105790000E941E7DEEE1F5E064918F0108C08CE768
:1057A0009CE00E94C60F0F5F1F4FF80164916623B3
:1057B000B1F780E00E949B598091AC039091AD03BA
:1057C000A091AE03B091AF038093590290935A0217
:1057D000A0935B02B0935C0280914C0390914D03C7
:1057E00090932D0280932C020FB6F8948091740C44
:1057F0009091750CA091760CB091770C0FBE8093B0
:10580000830390938403A0938503B09386038EE56E
:1058100092E00E946E70CE01499640E050E060E850
:105820007FE300E010E020E030E0720161010E94BF
:10583000C06D85E2682E712C6C0E7D1EC30140E0A8
:1058400050E060E87FE300E010E024EB32E4CD526A
:10585000DF4FC880D980EA80FB80C35DD0400E94C2
:10586000C06D01E3A02EB12CAC0EBD1EC50140E001
:1058700050E068E472E400E010E020E030E0720103
:1058800061010E94C06D1DE6812E912C8C0E9D1E23
:10589000C401B501A98CBA8CCB8CDC8CED8CFE8C50
:1058A0000F8D18A129A13AA14BA15CA10E949D6E68
:1058B000CE01CD96B4010E94B671B9E78B2E912C22
:1058C0008C0E9D1EC401B301A98CBA8CCB8CDC8CD0
:1058D000ED8CFE8C0F8D18A129A13AA14BA15CA1E2
:1058E0000E949D6E8E01075B1F4FC801B4010E948C
:1058F000B6718DB79EB70C970FB6F8949EBF0FBECA
:105900008DBFADB7BEB71196F8018CE001900D9236
:105910008150E1F7CE018B579F4FCDACDEACEFACA1
:10592000FE01E05CFF4FF080FE01EF5BFF4F008166
:10593000FE01EE5BFF4F1081FE01ED5BFF4F20810A
:10594000FE01EC5BFF4F3081FE01EB5BFF4F4081BE
:10595000FE01EA5BFF4F5081FE01E95BFF4F608172
:10596000FE01E85BFF4F70810E94DA6DA5E5AA2E6B
:10597000B12CAC0EBD1EADB7BEB71C960FB6F894D9
:10598000BEBF0FBEADBFC501BE016B577F4F0E94AA
:10599000B671FFEA8F2E912C8C0E9D1EC401F5016D
:1059A000C080D180E280F380048115812681378117
:1059B00040855185628573850E94E171AEE5B2E054
:1059C000F40184E201900D928150E1F78E010F59AC
:1059D0001F4FC8010E943148D8016D917D918D9172
:1059E0009C91139760934E0370934F0380935003E1
:1059F0009093510314962D913D914D915C91179781
:105A00002093520330935303409354035093550310
:105A1000E0905102F0905202009153021091540212
:105A200017FB109517F91095E0925603F092570363
:105A30000093580310935903EAE5CE2EE3E0DE2EDF
:105A40000E9441470E94005C82E00E944B5A0E94E3
:105A5000558120916005309161054091620550911A
:105A600063050E94BA807B018C0160914E037091A6
:105A70004F0380915003909151032091490230913E
:105A80004A0240914B0250914C020E94DA7F698396
:105A90007A838B839C83609152037091530380912E
:105AA00054039091550320914D0230914E02409144
:105AB0004F02509150020E94DA7F6D837E838F8364
:105AC0009887609156037091570380915803909185
:105AD0005903209166033091670340916803509108
