:100000000C94310A0C945C0A0C945C0A0C945C0A03
:100010000C945C0A0C945C0A0C945C0A0C945C0AC8
:100020000C945C0A0C941F750C94AB7D0C94247C8E
:100030000C945C0A0C945C0A0C945C0A0C945C0AA8
:100040000C945C0A0C948E5D0C945C0A0C945C0A13
:100050000C945C0A0C945C0A0C9436650C94E77A58
:100060000C945C0A0C945C0A0C945C0A0C945C0A78
:100070000C945C0A0C945C0A0C945C0A0C945C0A68
:100080000C945C0A0C945C0A0C945C0A0C945C0A58
:100090000C9413770C945C0A084AD73B3BCE016E54
:1000A00084BCBFFDC12F3D6C74319ABD56833DDACF
:1000B0003D00C77F11BED9E4BB4C3E916BAAAABEDE
:1000C000000000803F05A84CCDB2D44EB93836A907
:1000D000020C50B9918688083CA6AAAA2ABE000044
:1000E00000803F6563686F3A0048617264636F64C3
:1000F00065642044656661756C7420536574746929
:100100006E6773204C6F616465640053746F726531
:10011000642073657474696E6773207265747269A4
:100120006576656400205A0020590020204D323148
:10013000322058004265642070726F6265206F66DD
:100140006673657420286D6D293A00205A00205985
:100150000020204D3231312058004D617820706FE1
:10016000736974696F6E20286D6D293A00205A00FA
:1001700020590020204D3231302058004D696E202A
:10018000706F736974696F6E20286D6D293A002055
:1001900044002049002020204D33303120500050B1
:1001A00049442073657474696E67733A00205A007D
:1001B00020590020204D323036205800486F6D65A0
:1001C000206F666673657420286D6D293A0020459E
:1001D00000205A0020580020420020540020204DCA
:1001E000323035205300416476616E636564207659
:1001F00061726961626C65733A20533D4D696E208E
:10020000666565647261746520286D6D2F73292C95
:1002100020543D4D696E2074726176656C20666570
:1002200065647261746520286D6D2F73292C2042DE
:100230003D6D696E696D756D207365676D656E7472
:100240002074696D6520286D73292C20583D6D61DF
:1002500078696D756D205859206A65726B20286D1C
:100260006D2F73292C20205A3D6D6178696D756D55
:10027000205A206A65726B20286D6D2F73292C20FF
:1002800020453D6D6178696D756D2045206A657208
:100290006B20286D6D2F73290020540020204D32D3
:1002A0003034205300416363656C65726174696F1B
:1002B0006E3A20533D616363656C65726174696F6A
:1002C0006E2C20543D7265747261637420616363A7
:1002D000656C65726174696F6E00204500205A007C
:1002E00020590020204D3230312058004D6178696E
:1002F0006D756D20416363656C65726174696F6EC5
:1003000020286D6D2F7332293A00204500205A00B5
:1003100020590020204D3230332058004D6178693B
:100320006D756D2066656564726174657320286DF6
:100330006D2F73293A00204500205A0020590020D3
:10034000204D3932205800537465707320706572E7
:1003500020756E69743A0053657474696E67732012
:1003600053746F726564006563686F3A004572721A
:100370006F723A005072696E7465722073746F7098
:100380007065642064756520746F206572726F7289
:10039000732E2046697820746865206572726F72CA
:1003A00020616E6420757365204D39393920746F72
:1003B00020726573746172742E202854656D7065A7
:1003C0007261747572652069732072657365742E2D
:1003D00020536574206974206166746572207265AB
:1003E0007374617274696E6729005072696E746506
:1003F000722068616C7465642E206B696C6C2829AE
:100400002063616C6C656421006F6B0052657365DD
:100410006E643A20002200556E6B6E6F776E20631B
:100420006F6D6D616E643A2022007A5F6D696E3A7D
:100430002000795F6D696E3A2000785F6D696E3AD1
:1004400020005A3A00593A0020436F756E742058C4
:100450003A2000453A005A3A00593A00583A004DBD
:10046000616368696E652D547970653A20506F6CD0
:10047000617220334420322E302C204669726D7711
:100480006172652D56657273696F6E3A20322E3037
:100490002E31363039323120202020416C6C2052F0
:1004A00069676874732052657365727665642C2081
:1004B000506F6C6172203344204C4C430A00204240
:1004C0003A0020453A00543A0020573A0020453A75
:1004D00000543A002042403A0020403A00202F00C9
:1004E0003A00205400202F0020423A00202F006FB5
:1004F0006B20543A002569206D696E2C20256920F7
:10050000736563000A00205A3A200020593A2000FF
:1005100042656420506F736974696F6E20583A2089
:10052000000A00207A3A200020793A2000426564CF
:1005300020783A20000A00207A3A200020793A20D8
:100540000042656420783A20000A00207A3A2000B0
:1005500020793A200042656420783A20000000A00B
:10056000410000A04000004040FFFFFF5072696E54
:100570007465722073746F70706564206475652093
:10058000746F206572726F72732E204669782074C2
:100590006865206572726F7220616E642075736584
:1005A000204D39393920746F20726573746172740B
:1005B0002E202854656D70657261747572652069AE
:1005C000732072657365742E2053657420697420DE
:1005D00061667465722072657374617274696E67A6
:1005E00029006F6B004E6F204C696E65204E756D53
:1005F000626572207769746820636865636B7375E0
:100600006D2C204C617374204C696E653A20004E4D
:100610006F20436865636B73756D2077697468201C
:100620006C696E65206E756D6265722C204C61730D
:1006300074204C696E653A2000636865636B73755E
:100640006D206D69736D617463682C204C617374E7
:10065000204C696E653A20004C696E65204E756DC0
:10066000626572206973206E6F74204C6173742010
:100670004C696E65204E756D6265722B312C204C75
:10068000617374204C696E653A20004D3131300041
:100690002020506C616E6E657242756666657242AE
:1006A000797465733A20002046726565204D656D4A
:1006B0006F72793A20005365702032332032303126
:1006C0003600436F6D70696C65643A20002877735B
:1006D0007465656C652C205072696E7472626F610E
:1006E0007264205265762046362900207C204175B0
:1006F00074686F723A2000536570203233203230B4
:1007000031362030393A32323A303900204C617378
:100710007420557064617465643A2000312E302E67
:1007200030004D61726C696E200020536F667477E3
:100730006172652052657365740020576174636847
:10074000646F67205265736574002042726F776E24
:10075000206F757420526573657400204578746548
:10076000726E616C20526573657400506F776572AC
:100770005570007374617274002200656E71756546
:10078000696E672022002200656E717565696E676B
:100790002022006563686F3A0020746F6F206C6FD1
:1007A0006E6720657874727573696F6E20707265FC
:1007B00076656E7465640020636F6C642065787480
:1007C000727573696F6E2070726576656E7465649C
:1007D0000045313A200045303A20005A3A2000596D
:1007E0003A2000583A20004D53312C4D53322050BE
:1007F000696E730A006563686F3A00280029204516
:100800003A00280029205A3A0028002920593A00A5
:10081000280020583A005374657070657220637523
:100820007272656E742076616C756573205B252825
:10083000726177295D3A0024F404D9201BC40C5C52
:100840000E9804C4095F0265077101F405F900FB05
:1008500004B30048048700C103690058035500032E
:10086000034500BE023A008402310053022A0029E7
:1008700002250004022000E4011C00C8011900AF99
:100880000117009801140084011300710110006128
:1008900001100051010E0043010D0036010B002B29
:1008A000010B0020010B00150109000C01090003D8
:1008B000010800FB000800F3000800EB000700E45B
:1008C000000600DE000600D8000600D2000600CCBC
:1008D000000500C7000500C2000500BD000400B906
:1008E000000400B5000400B1000400AD000400A93C
:1008F000000400A5000300A20003009F0004009B69
:10090000000300980003009500020093000300908C
:100910000003008D0002008B0003008800020086A7
:1009200000020084000300810002007F0002007DBD
:100930000002007B000200790002007700010076CF
:100940000002007400020072000100710002006FDA
:100950000002006D0001006C0002006A00010069E5
:1009600000020067000100660001006500010064EC
:100970000002006200010061000100600001005FF0
:100980000002005D0001005C0001005B0001005AF4
:1009900000010059000100580001005700010056F5
:1009A00000010055000100540001005300000053F5
:1009B0000001005200010051000100500001004FF1
:1009C0000001004E0000004E0001004D0001004CEF
:1009D0000001004B0000004B0001004A00010049EB
:1009E00000010048000000480001004700010046E7
:1009F00000000046000100450000004500010044E1
:100A000000010043000000430001004200000042DA
:100A10000001004100000041000100400001003FD2
:100A20000000003F0001003E0000003E0001003DCC
:100A30000000003D0001003C0000003C0000003CC4
:100A40000001003B0000003B0001003A0000003ABA
:100A500000010039000000390001003800000038B2
:100A600000000038000100370000003700010036A8
:100A7000000000360000003600010035000000359F
:100A80000000003500010034000000340000003494
:100A90000001003300000033000000330001003289
:100AA000000000320000003200010031000000317F
:100AB0000000003100010030000000300000003074
:100AC0000001002F0000002F0000002F0000002F69
:100AD0000001002E0000002E0000002E0001002D5D
:100AE0000000002D0000002D0000002D0001002C52
:100AF0000000002C0000002C0000002C0001002B46
:100B00000000002B0000002B0000002B0001002A39
:100B10000000002A0000002A0000002A000100292D
:100B20000000002900000029000000290000002921
:100B30000001002800000028000000280000002814
:100B40000000002800010027000000270000002707
:100B500000000027000000270001002600000026FA
:100B600000000026000000260000002600010025ED
:100B700000000025000000250000002500000025E1
:100B800000000025000100240000002400000024D3
:100B900000000024000000240001002300000023C6
:100BA00000000023000000230000002300000023B9
:100BB00000000023000100220000002200000022AB
:100BC000000000220000002200000022000100219D
:100BD0000000002100000021000000210000002191
:100BE0000000002100000021000100200000002082
:100BF0000000002000000020000000200000002075
:100C000000000020000000200001001F0000001F65
:100C10000000001F0000001F0000001F0000001F58
:100C20000000001F0001001E0000001E0000001E4A
:100C30000000001E00000024F4D43050C38E20C2F7
:100C4000A24017828B7011127A910D816CD90AA87B
:100C500061E108C7586607615143061E4B5D05C137
:100C600045A7041A411104093D9803713931034025
:100C700036DB0265339102D4305402802E1D0263AC
:100C80002CEE01752AC501B028A001102781018F23
:100C90002564012B244B01E0223401AC211F018D7E
:100CA000200D01801FFC00841EED00971DDF00B8A1
:100CB0001CD200E61BC600201BBC00641AB200B2A6
:100CC00019A8000A19A0006A189900D117910040CC
:100CD000178B00B516840031167E00B31579003AE3
:100CE000157300C7146F0058146A00EE136600886D
:100CF00013630025135E00C7125B006C12570015CA
:100D0000125400C111510070114F0021114B00D637
:100D10001049008D1047004610440002104200C0E8
:100D20000F4000800F3E00420F3C00060F3B00CBFF
:100D30000E3800930E37005C0E3500270E3400F39A
:100D40000D3200C10D3100900D3000600D2E0032CB
:100D50000D2D00050D2C00D90C2B00AE0C290085A3
:100D60000C29005C0C2700350C27000E0C2600E82F
:100D70000B2400C40B2400A00B23007D0B23005A7E
:100D80000B2100390B2100180B2000F80A1F00D995
:100D90000A1E00BB0A1E009D0A1D00800A1D00637A
:100DA0000A1C00470A1B002C0A1B00110A1A00F734
:100DB000091A00DD091900C4091900AB09190092CC
:100DC0000917007B091800630917004C0916003643
:100DD000091600200916000A091500F5081500E09B
:100DE000081400CC081400B8081400A408140090DB
:100DF0000813007D0812006B081300580812004603
:100E00000812003408110023081100120811000113
:100E1000081100F0071000E0071000D0071000C014
:100E2000071000B0070F00A107100091070E008304
:100E3000070F0074070F0065070E0057070E0049E3
:100E4000070E003B070D002E070E0020070D0013B4
:100E5000070D0006070D00F9060C00ED060D00E079
:100E6000060C00D4060C00C8060C00BC060C00B032
:100E7000060C00A4060B0099060C008D060B0082E0
:100E8000060B0077060B006C060B0061060A005784
:100E9000060B004C060A0042060A0038060A002E1D
:100EA000060A0024060A001A060A001006090007AE
:100EB000060A00FD050900F4050900EB050900E23A
:100EC000050900D9050900D0050900C7050900BEBC
:100ED000050900B5050800AD050800A50509009C39
:100EE000050800940508008C050800840508007CAE
:100EF000050800740508006C050700650508005D1D
:100F0000050700560508004E050700470507004085
:100F100005080038050700310507002A05070023EA
:100F20000507001C050600160507000F0507000849
:100F300005060002050700FB040600F5040700EEA5
:100F4000040600E8040600E2040700DB040600D5FE
:100F5000040600CF040600C9040600C3040600BD51
:100F6000040600B7040600B1040500AC040600A6A0
:100F7000040600A00405009B0406009504050090EB
:100F80000406008A04050085040500800406007A32
:100F900004050075040500700405006B0405006677
:100FA000040500610405005C0405005704050052B7
:100FB0000405004D04050048040500430405003EF7
:100FC0000404003A04050035040500300404002C34
:100FD00004050027040400230405001E0404001A6D
:100FE00004040016040500110404000D04040009A3
:100FF0000405000404040000040400FC030400F8D9
:10100000030400F4030400F0030400EC030400E80C
:10101000030400E4030400E0030400DC030400D83C
:10102000030400D4030400D0030400CC030400C86C
:10103000030300C5030300205A3A0020593A002058
:10104000583A00656E6473746F7073206869743AFF
:1010500020004572726F723A0054656D706572615E
:1010600074757265206865617465642062656420CA
:101070007377697463686564206F66662E204D41DE
:101080005854454D502074726967676572656420D5
:101090002121003A20457874727564657220737757
:1010A000697463686564206F66662E204D494E54EE
:1010B000454D502074726967676572656420210030
:1010C0003A20457874727564657220737769746329
:1010D000686564206F66662E204D415854454D501A
:1010E00020747269676765726564202100202D2075
:1010F000496E76616C696420657874727564657296
:10110000206E756D62657220210050494420417542
:10111000746F74756E652066696E697368656421A5
:101120002050757420746865204B702C204B69200A
:10113000616E64204B6420636F6E7374616E7473B0
:1011400020696E746F20436F6E6669677572617493
:10115000696F6E2E6800504944204175746F747534
:101160006E65206661696C6564212074696D656FC8
:1011700075740020403A006F6B20543A006F6B206A
:10118000423A00504944204175746F74756E652071
:101190006661696C6564212054656D706572617467
:1011A00075726520746F6F206869676800204B64F2
:1011B0003A2000204B693A2000204B703A20002052
:1011C000436C617369632050494420002054753A90
:1011D0002000204B753A2000206D61783A200020D5
:1011E0006D696E3A200020643A20002062696173C4
:1011F0003A200070012C0190012701B0012201C0AA
:10120000011D01F00118011002130130020E0160EE
:1012100002090190020401C002FF000003FA00402D
:1012200003F5008003F000D003EB002004E600701B
:1012300004E100E004DC004005D700C005D2004016
:1012400006CD00D006C8008007C3003008BE00F0FD
:1012500008B900C009B400B00AAF00B00BAA00D0B2
:101260000CA500000EA000500F9B00C0109600506F
:1012700012910000148C00C0158700B0178200B0D6
:10128000197D00D01B7800001E730040206E009076
:10129000226900F024640040275F0090295A00E092
:1012A0002B5500102E500020304B0010324600E02D
:1012B00033410090353C001037370070383200A0C1
:1012C000392D00B03A2800A03B2300603C1E0010DE
:1012D0003D1900903D1400103E0F00703E0A00C002
:1012E0003E0500003F0000012902290429082910B9
:1012F00029202940298029012C022C0126022604BC
:101300002608261026202640268026402C802C01E8
:1013100023022304230823102320234023802301B6
:1013200020022004200820102020204020802010AF
:101330002C202C012F022F042F082F102F202F409C
:101340002F802F7EFE7EFD7EFB7EF77EEF7EDF7E92
:10135000BF7E7F0001000087131200020000991376
:101360004300030000DC130401030904E013180226
:10137000030904FA13160303090412140C0001C133
:10138000020180360181361201000202000020C0F5
:101390001683040001010203010902430002010057
:1013A000C0320904000001020201000524001001FE
:1013B0000524010001042402060524060001070596
:1013C000820308004009040100020A00000007052A
:1013D00003024000000705840240000004030904E2
:1013E00018035400650065006E0073007900640006
:1013F000750069006E006F00000016035500530071
:1014000042002000530065007200690061006C001A
:1014100000000C03310032003300340035000000BE
:10142000494E46494E4954594E414ECDCCCC3D0AC9
:10143000D7233C17B7D13877CC2B329595E6241FAC
:10144000B14F0A000020410000C84200401C462065
:10145000BCBE4CCA1B0E5AAEC59D7400F05B9175A4
:10146000428111241FBECFEFD0E2DEBFCDBF13E01B
:10147000A0E0B1E0EAE2FEE001E00BBF02C00790AD
:101480000D92AA34B107D9F71BBE1CE0AAE4B3E061
:1014900001C01D92A938B107E1F714E1C2E6D4E119
:1014A00004C02297FE010E94CD86CC35D107C9F732
:1014B0000E942A7E0C9413870C940000A0E0B0E0F8
:1014C000E4E6FAE00C94E286EC015B01611571053B
:1014D00019F0FB0191838083F9908F2D90E00E9499
:1014E000D186892BC9F7FDE2FF1621F4F990EE248D
:1014F000E39405C02BE2F21609F4F990EE248E0174
:1015000001501040C80160E274E143E050E00E94E5
:10151000ED0C892B01F58E010E5F1F4FC80163E2B0
:1015200074E145E050E00E94ED0C892B19F48E0126
:10153000095F1F4FA114B10419F0F5011183008355
:10154000E0FC04C070E090E080E814C070E090E03F
:1015500080E86FEF08C1C80168E274E143E050E041
:101560000E94ED0C892B69F4A114B10429F470E0F8
:1015700090E080EC6FE7F7C02296F501D183C0833D
:10158000F6CF8824992440E050E060E070E0EF2D31
:10159000E053EA30A0F5F2E0EF2A8E2D90E09C01B6
:1015A00028703070E2FE06C0232B79F50894811C68
:1015B000911C2BC0232B19F0089481089108DB01A2
:1015C000CA0112E0880F991FAA1FBB1F1A95D1F7F5
:1015D000480F591F6A1F7B1F440F551F661F771F37
:1015E0004E0F511D611D711D483929E9520729E926
:1015F000620729E1720748F084E0E82A06C0EE3F5E
:1016000031F4E3FC39C098E0E92AF990C0CFE53322
:1016100011F0E53189F529912D3219F4E0E1EE2A36
:1016200005C02B3219F081E090E003C0299182E0DF
:1016300090E0E22FE053EA3018F0C81BD90B1CC031
:1016400020E030E0FCE020383F075CF4C901880F5F
:10165000991F880F991F280F391F220F331F2E0F34
:10166000311DE991E053EA3068F3E4FE03C03095A0
:1016700021953F4F820E931ECE2CDD24E1FE07C044
:10168000A114B10421F02197F501D183C083CB01CE
:10169000BA010E9436837B018C01F3E0CF22DD2466
:1016A00023E0C216D10421F417FB109517F9109509
:1016B00057016801C801B70120E030E040E050E088
:1016C0000E949682882309F44AC097FE0DC02FE33A
:1016D000E22E24E1F22E9094819491089394C0E23A
:1016E000D0E000E010E012C097E5E92E94E1F92E79
:1016F000F6CFF7012591359145915491C601B50179
:101700000E9476855B016C018C1A9D0A8C169D06E1
:1017100084F7D595C7950F5F1F4F0630110529F047
:101720008CEF9FEFE80EF91EF1CFC501D6017C01C9
:101730008D018C2D880F8D2D881F8F3F51F0C60194
:10174000B50120E030E040E050E00E94968288231E
:1017500031F482E290E09093880C8093870C7E2D88
:101760009F2D802F612F272F392F482F562FB901FA
:10177000CA01CDB7DEB7ECE00C94FE862F923F9203
:101780005F926F927F928F929F92AF92BF92CF9211
:10179000DF92EF92FF920F931F93CF93DF938C0111
:1017A0001B01EA016115710519F0FB01918380832A
:1017B000209749F0CE010297839728F020E030E08F
:1017C00040E050E0F6C0F801A1908F018A2D90E032
:1017D0000E94D186892BB9F7FDE2AF1631F4F801EA
:1017E000A1908F015524539407C0FBE2AF1619F462
:1017F000F801A1908F015524209719F0C031D1052F
:10180000C1F4F0E3AF1679F4F8018081883711F064
:10181000883549F4F801A1800E5F1F4FF2E05F2A7E
:10182000C0E1D0E006C0209721F480E3A816E9F4D7
:1018300027C0C830D10531F1C930D10524F4C230F8
:10184000D10531F50CC0CA30D10589F0C031D105C0
:10185000F9F4C12CD12CE12CB8E0FB2E28C0C12C0E
:10186000D12CE12CA0E4FA2E22C0CAE0D0E0FCEC9E
:10187000CF2EFCECDF2EFCECEF2EFCE0FF2E17C091
:10188000C8E0D0E0C12CD12CE12CE0E1FE2E0FC04D
:101890009E01442737FD4095542F60E070E080E0C2
:1018A00090E80E948E86C901DA016C017D0120E07A
:1018B00030E040E050E060E03E01882477FC809416
:1018C000982C70EDB72EBA0CE9E0EB1570F48A2D68
:1018D00081548A3118F499ECB92E06C08A2D8156AC
:1018E0008A3150F589EAB82EBA0C8B2D90E08C170E
:1018F0009D0714F56F3FE1F0C216D306E406F50626
:10190000B0F0CA01B901A40193010E9448869B016D
:10191000AC012B0D311D411D511D2130F0E03F0761
:10192000F0E04F07F0E85F0710F461E001C06FEFEF
:10193000F801A1908F01C5CF2114310481F06623F5
:1019400031F001501040F1011183008308C051FEB5
:101950001AC002501040F1011183008314C067FFC8
:1019600012C050FC05C02FEF3FEF4FEF5FE704C000
:1019700020E030E040E050E882E290E09093880C74
:101980008093870C16C050FE08C050954095309546
:1019900021953F4F4F4F5F4F0CC057FF0AC082E267
:1019A00090E09093880C8093870C2FEF3FEF4FEFE0
:1019B0005FE7B901CA01DF91CF911F910F91FF90AD
:1019C000EF90DF90CF90BF90AF909F908F907F90DF
:1019D0006F905F903F902F900895FB01DC01415084
:1019E000504088F08D9181341CF08B350CF4805E72
:1019F000659161341CF06B350CF4605E861B6111DF
:101A000071F3990B0895881BFCCFFB015591552369
:101A1000A9F0BF01DC014D9145174111E1F759F4DF
:101A2000CD010590002049F04D9140154111C9F3B9
:101A3000FB014111EFCF81E090E001970895FC0197
:101A40008191861721F08823D9F799270895319736
:101A5000CF010895FB01DC014150504030F08D91E1
:101A60000190801919F40020B9F7881B990B08958B
:101A7000AEE0B0E0EEE3FDE00C94EA860D891E894D
:101A80008EE08C831A8309838FEF9FE79E838D837B
:101A90009E01275E3F4FCE0101966F89788DA90187
:101AA0000E945C0D2F813885020F131FF8011082F0
:101AB0002E96E4E00C940687ABE0B0E0E2E6FDE0B1
:101AC0000C94DC863C012B015A01FC011782168222
:101AD000838181FD03C06FEF7FEFC6C19AE0892E3D
:101AE0001E010894211C311CF3012381F20123FD06
:101AF000859123FF81912F01882309F4B2C185329A
:101B000039F423FD859123FF81912F01853229F43A
:101B100090E0B3010E944F0FE7CF982FFF24EE24EF
:101B20009924FFE1FF15D0F09B3269F09C3228F434
:101B3000903259F0933291F40EC09D3249F09033B7
:101B400069F441E024C052E0F52A84E0F82A28C074
:101B500098E0F92A25C0E0E1FE2A22C0F7FC29C05E
:101B6000892F80538A3070F4F6FE05C0989C902C23
:101B70001124980E15C0E89CE02C1124E80EF0E228
:101B8000FF2A0EC09E3229F4F6FC6BC140E4F42A11
:101B900007C09C3619F450E8F52A02C0983649F47B
:101BA000F20123FD959123FF91912F01992309F0D3
:101BB000B8CF892F8554833018F08052833038F4A1
:101BC00044E050E0A40EB51E5FE359830FC0933686
:101BD00031F0933779F0933509F056C020C0F50104
:101BE0008081898342E050E0A40EB51E610101E0CE
:101BF00010E012C0F501C080D180F6FC03C06FEF89
:101C00007FEF02C0692D70E042E050E0A40EB51EE7
:101C1000C6010E94440F8C015FE7F52214C0F50154
:101C2000C080D180F6FC03C06FEF7FEF02C0692D4A
:101C300070E042E050E0A40EB51EC6010E94390FCC
:101C40008C0150E8F52AF3FE07C01AC080E290E04C
:101C5000B3010E944F0FEA948E2D90E008171907E8
:101C6000A8F30EC0F601F7FC8591F7FE81916F0194
:101C700090E0B3010E944F0FE110EA940150104030
:101C80000115110579F7EAC0943611F0993669F516
:101C9000F7FE08C0F501208131814281538184E043
:101CA00090E00AC0F501808191819C01442737FDB5
:101CB0004095542F82E090E0A80EB91E9FE6F922CD
:101CC00057FF09C050954095309521953F4F4F4F94
:101CD0005F4FE0E8FE2ACA01B901A1012AE030E025
:101CE0000E947B0FD82ED21840C0953729F41F2DA3
:101CF0001F7E2AE030E01DC01F2D197F9F3661F046
:101D0000903720F4983509F0ACC00FC0903739F007
:101D1000983709F0A6C004C028E030E00AC010617E
:101D200014FD146020E130E004C014FD166020E1D1
:101D300032E017FF08C0F5016081718182819381D3
:101D400044E050E008C0F50180819181BC0180E051
:101D500090E042E050E0A40EB51EA1010E947B0F6E
:101D6000D82ED2188FE7F82EF122F6FE0BC05EEFC8
:101D7000F522D91438F4F4FE07C0F2FC05C08FEE4A
:101D8000F82202C01D2D01C0192DF4FE0DC0FE0168
:101D9000ED0DF11D8081803319F499EEF92208C010
:101DA0001F5FF2FE05C003C08F2D867809F01F5F0C
:101DB0000F2DF3FC14C0F0FE0FC01E1510F09D2C6B
:101DC0000BC09D2C9E0C911A1E2D06C080E290E047
:101DD000B3010E944F0F1F5F1E15C0F304C01E15F4
:101DE00010F4E11A01C0EE2404FF0FC080E390E07C
:101DF000B3010E944F0F02FF1DC001FD03C088E721
:101E000090E00EC088E590E00BC0802F867891F0BE
:101E100001FF02C08BE201C080E2F7FC8DE290E09E
:101E2000B3010E944F0F06C080E390E0B3010E940F
:101E30004F0F9A94D914C0F3DA94F101ED0DF11D0E
:101E4000808190E0B3010E944F0FDD20A9F706C00A
:101E500080E290E0B3010E944F0FEA94EE20C1F7B8
:101E600043CEF30166817781CB012B96E2E10C949E
:101E7000F886FC010590615070400110D8F78095FC
:101E800090958E0F9F1F0895FC0161507040019046
:101E90000110D8F7809590958E0F9F1F08950F938E
:101EA0001F93CF93DF938C01EB018B8181FF1BC0CC
:101EB00082FF0DC02E813F818C819D8128173907BB
:101EC00064F4E881F9810193F983E88306C0E88529
:101ED000F985802F0995892B31F48E819F81019698
:101EE0009F838E8302C00FEF1FEFC801DF91CF9158
:101EF0001F910F910895FA01AA27283051F120313E
:101F000081F1E8946F936E7F6E5F7F4F8F4F9F4F8D
:101F1000AF4FB1E03ED0B4E03CD0670F781F891FCF
:101F20009A1FA11D680F791F8A1F911DA11D6A0F9D
:101F3000711D811D911DA11D20D009F468943F9150
:101F40002AE0269F11243019305D3193DEF6CF014F
:101F50000895462F4770405D4193B3E00FD0C9F715
:101F6000F6CF462F4F70405D4A3318F0495D31FD82
:101F70004052419302D0A9F7EACFB4E0A6959795D5
:101F8000879577956795BA95C9F7009761057105AB
:101F900008959B01AC010A2E0694579547953795F5
:101FA0002795BA95C9F7620F731F841F951FA01D4F
:101FB0000895DF93CF930F92CDB7DEB7FC0169830D
:101FC000A081B18112962D913C911397BE016F5F54
:101FD0007F4F41E050E0F90109950F90CF91DF91DB
:101FE00008950F931F93DF93CF93CDB7DEB7669716
:101FF0000FB6F894DEBF0FBECDBF80910001909167
:102000000101A0910201B09103018F87988BA98BE8
:10201000BA8BFE013F9644E650E08081F999FECFED
:102020001FBA52BD41BD80BD0FB6F894FA9AF99A15
:102030000FBE4F5F5F4F4836510511F03196EDCF1F
:10204000EAE5F5E08081F999FECF1FBA52BD41BDA6
:1020500080BD0FB6F894FA9AF99A0FBE4F5F5F4FA2
:102060004837510511F03196EDCFEAE4F5E0808173
:10207000F999FECF1FBA52BD41BD80BD0FB6F8948D
:10208000FA9AF99A0FBE4F5F5F4F4838510511F029
:102090003196EDCFEAE6F5E08081F999FECF1FBADF
:1020A00052BD41BD80BD0FB6F894FA9AF99A0FBEA1
:1020B0004F5F5F4F4839510511F03196EDCFEEE794
:1020C000F5E08081F999FECF1FBA52BD41BD80BDB8
:1020D0000FB6F894FA9AF99A0FBE4F5F5F4F4C39DA
:1020E000510511F03196EDCFE2E8F5E08081F999E4
:1020F000FECF1FBA52BD41BD80BD0FB6F894FA9A0B
:10210000F99A0FBE4F5F5F4F403A510511F031967B
:10211000EDCFEAE7F5E08081F999FECF1FBA52BD15
:1021200041BD80BD0FB6F894FA9AF99A0FBE4F5F81
:102130005F4F443A510511F03196EDCFE2E9F5E0F9
:102140008081F999FECF1FBA52BD41BD80BD0FB647
:10215000F894FA9AF99A0FBE4F5F5F4F483A5105CB
:1021600011F03196EDCFE6E4F5E08081F999FECFEC
:102170001FBA52BD41BD80BD0FB6F894FA9AF99AC4
:102180000FBE4F5F5F4F4C3A510511F03196EDCFC6
:10219000E6E8F5E08081F999FECF1FBA52BD41BD56
:1021A00080BD0FB6F894FA9AF99A0FBE4F5F5F4F51
:1021B000403B510511F03196EDCFEAE8F5E0808122
:1021C000F999FECF1FBA52BD41BD80BD0FB6F8943C
:1021D000FA9AF99A0FBE4F5F5F4F443B510511F0D9
:1021E0003196EDCFEEE8F5E08081F999FECF1FBA88
:1021F00052BD41BD80BD0FB6F894FA9AF99A0FBE50
:102200004F5F5F4F483B510511F03196EDCFE0E64F
:10221000F3E08081F999FECF1FBA52BD41BD80BD68
:102220000FB6F894FA9AF99A0FBE4F5F5F4F443C8D
:10223000510511F03196EDCF8AEA90E09A838983B7
:102240001C821B822FEF30E03E832D838CED90E0CB
:1022500098878F831A8619863C872B87FE013196D3
:102260008081F999FECF1FBA52BD41BD80BD0FB626
:10227000F894FA9AF99A0FBE4F5F5F4F463C5105AA
:1022800071F7FE0133968081F999FECF1FBA52BDD6
:1022900041BD80BD0FB6F894FA9AF99A0FBE4F5F10
:1022A0005F4F483C510511F03196EDCFFE01359658
:1022B0008081F999FECF1FBA52BD41BD80BD0FB6D6
:1022C000F894FA9AF99A0FBE4F5F5F4F4A3C510556
:1022D00011F03196EDCFFE0137968081F999FECF4E
:1022E0001FBA52BD41BD80BD0FB6F894FA9AF99A53
:1022F0000FBE4F5F5F4F4C3C510511F03196EDCF53
:10230000FE0139968081F999FECF1FBA52BD41BDB9
:1023100080BD0FB6F894FA9AF99A0FBE4F5F5F4FDF
:102320004E3C510511F03196EDCFFE013B96808178
:10233000F999FECF1FBA52BD41BD80BD0FB6F894CA
:10234000FA9AF99A0FBE4F5F5F4F403D510511F069
:102350003196EDCFE9E4F2E08081F999FECF1FBA22
:1023600052BD41BD80BD0FB6F894FA9AF99A0FBEDE
:102370004F5F5F4F443D510511F03196EDCFEDE4D5
:10238000F2E08081F999FECF1FBA52BD41BD80BDF8
:102390000FB6F894FA9AF99A0FBE4F5F5F4F483D17
:1023A000510511F03196EDCFE1E5F2E08081F99928
:1023B000FECF1FBA52BD41BD80BD0FB6F894FA9A48
:1023C000F99A0FBE4F5F5F4F4C3D510511F03196AA
:1023D000EDCFE7E9F2E08081F999FECF1FBA52BD57
:1023E00041BD80BD0FB6F894FA9AF99A0FBE4F5FBF
:1023F0005F4F403E510511F03196EDCFEBE9F2E031
:102400008081F999FECF1FBA52BD41BD80BD0FB684
:10241000F894FA9AF99A0FBE4F5F5F4F443E510508
:1024200011F03196EDCFEFE9F2E08081F999FECF1E
:102430001FBA52BD41BD80BD0FB6F894FA9AF99A01
:102440000FBE4F5F5F4F483E510511F03196EDCF03
:1024500080E290E09E878D87FE013D968081F9990C
:10246000FECF1FBA52BD41BD80BD0FB6F894FA9A97
:10247000F99A0FBE4F5F5F4F4A3E510511F03196FA
:10248000EDCFE1E3F2E08081F999FECF1FBA52BDB2
:1024900041BD80BD0FB6F894FA9AF99A0FBE4F5F0E
:1024A0005F4F4E3E510511F03196EDCFEDE3F2E076
:1024B0008081F999FECF1FBA52BD41BD80BD0FB6D4
:1024C000F894FA9AF99A0FBE4F5F5F4F423F510559
:1024D00011F03196EDCFE5E3F2E08081F999FECF7E
:1024E0001FBA52BD41BD80BD0FB6F894FA9AF99A51
:1024F0000FBE4F5F5F4F463F510511F03196EDCF54
:10250000E1E4F2E08081F999FECF1FBA52BD41BDEE
:1025100080BD0FB6F894FA9AF99A0FBE4F5F5F4FDD
:102520004A3F510511F03196EDCFE9E3F2E08081A9
:10253000F999FECF1FBA52BD41BD80BD0FB6F894C8
:10254000FA9AF99A0FBE4F5F5F4F4E3F510511F057
:102550003196EDCFE5E4F2E08081F999FECF1FBA24
:1025600052BD41BD80BD0FB6F894FA9AF99A0FBEDC
:1025700081E04130580721F04F5F5F4F3196ECCF3B
:102580008091040190910501A0910601B09107018D
:102590008B8B9C8BAD8BBE8BFE01739684E690E09B
:1025A0002081F999FECF1FBA92BD81BD20BD0FB623
:1025B000F894FA9AF99A0FBE8736910519F00196A8
:1025C0003196EECFE3EEF0E064918F0108C08DE725
:1025D0009CE00E94D90F0F5F1F4FF80164916623A2
:1025E000B1F7E7E5F3E064918F0108C08DE79CE067
:1025F0000E94D90F0F5F1F4FF80164916623B1F756
:102600008DE79CE06AE00E94D90F66960FB6F894B9
:10261000DEBF0FBECDBFCF91DF911F910F91089507
:10262000EF92FF920F931F93DF93CF93CDB7DEB757
:10263000E0970FB6F894DEBF0FBECDBFDE01119656
:10264000E6EDF2E080E101900D928150E1F7DE01CC
:102650005196E6ECF2E080E101900D928150E1F7B5
:10266000DE019196E6EBF2E080E101900D9281505F
:10267000E1F789819A81AB81BC8180935A0590935F
:102680005B05A0935C05B0935D0589899A89AB8948
:10269000BC8980934A0590934B05A0934C05B09359
:1026A0004D0589A19AA1ABA1BCA180936A05909325
:1026B0006B05A0936C05B0936D058D819E81AF81F4
:1026C000B88580935E0590935F05A0936005B093F5
:1026D00061058D899E89AF89B88D80934E05909351
:1026E0004F05A0935005B09351058DA19EA1AFA1B8
:1026F000B8A580936E0590936F05A0937005B09375
:10270000710589859A85AB85BC8580936205909318
:102710006305A0936405B0936505898D9A8DAB8D93
:10272000BC8D8093520590935305A0935405B093AC
:10273000550589A59AA5ABA5BCA580937205909374
:102740007305A0937405B09375058D859E85AF853F
:10275000B8898093660590936705A0936805B09348
:1027600069058D8D9E8DAF8DB8A180935605909390
:102770005705A0935805B09359058DA59EA5AFA503
:10278000B8A98093760590937705A0937805B093C8
:1027900079050E94354880E090E0AAE7B4E4809390
:1027A0007E0590937F05A0938005B093810580E01E
:1027B00090E8ABE3B5E48093820590938305A09302
:1027C0008405B09385050F2EF0E0EF2EF0E0FF2E8C
:1027D000F0E00F2FF0E01F2FF02DE0927A05F0923D
:1027E0007B0500937C0510937D0580E29EE4A0E0CC
:1027F000B0E08093460590934705A0934805B093B9
:102800004905E0929205F092930500939405109388
:10281000950580E090E0A0E7B1E480938605909371
:102820008705A0938805B09389058DEC9CECACE4FA
:10283000BEE380938A0590938B05A0938C05B0939B
:102840008D0580E090E0A0EAB0E480938E0590933F
:102850008F05A0939005B0939105E0926003F092EC
:1028600061030093620310936303E0926403F092A8
:10287000650300936603109367038AE999E9A9E168
:10288000BEEB8093680390936903A0936A03B093AF
:102890006B03E0924902F0924A0200934B021093BC
:1028A0004C0280E090E0A4E3B3E480934D02909367
:1028B0004E02A0934F02B09350028DEC9CECACE41E
:1028C000BFE38093510290935202A0935302B093BE
:1028D00054028AE999E9A1EBB1E4809397029093BD
:1028E0009802A0939902B0939A0261E77DE38AE887
:1028F0009FE30E949A6460939B0270939C02809372
:102900009D0290939E0260E070E084EE92E40E944B
:10291000A86460939F027093A0028093A102909399
:10292000A2020E945D6480E090E0A0E8BFE3809393
:10293000A3029093A402A093A502B093A60280E004
:1029400090E0A0EAB1EC8093310290933202A09320
:102950003302B0933402E0923502F09236020093D3
:10296000370210933802E0923902F0923A02009353
:102970003B0210933C0280E090E0A8ECB2E480932C
:102980003D0290933E02A0933F02B093400280E04C
:1029900090E0A4EBB3E48093410290934202A093B1
:1029A0004302B093440280E090E0A6E1B3E4809358
:1029B000450290934602A0934702B0934802E3EE8B
:1029C000F0E064918F0108C08DE79CE00E94D90F70
:1029D0000F5F1F4FF80164916623B1F7E9EEF0E055
:1029E00064918F0108C08DE79CE00E94D90F0F5FB2
:1029F0001F4FF80164916623B1F78DE79CE06AE010
:102A00000E94D90FE0960FB6F894DEBF0FBECDBF7F
:102A1000CF91DF911F910F91FF90EF900895CF9389
:102A2000DF93DB010D900020E9F71197A61BB70B90
:102A3000EC01E881F9810280F381E02DAD01099577
:102A4000DF91CF9108950F931F93CF93DF9303EE00
:102A500010E0F8016491E80107C08DE79CE00E9456
:102A6000D90F2196FE0164916623B9F7E7E4F3E0FC
:102A70006491EF0107C08DE79CE00E94D90F219679
:102A8000FE0164916623B9F78DE79CE06AE00E943D
:102A9000D90FF8016491C3EED0E007C08DE79CE048
:102AA0000E94D90F2196FE0164916623B9F74091E7
:102AB0005A0550915B0560915C0570915D058FE34F
:102AC00093E00E94312140915E0550915F05609135
:102AD0006005709161058CE393E00E943121409183
:102AE000620550916305609164057091650589E305
:102AF00093E00E94312140916605509167056091F5
:102B000068057091690586E393E00E9431218DE7A5
:102B10009CE068E071E00E940F158DE79CE06AE0A0
:102B20000E94D90FF8016491C3EED0E007C08DE791
:102B30009CE00E94D90F2196FE0164916623B9F7AB
:102B4000ECE1F3E06491EF0107C08DE79CE00E94A7
:102B5000D90F2196FE0164916623B9F78DE79CE0B9
:102B60006AE00E94D90FF8016491C3EED0E007C07B
:102B70008DE79CE00E94D90F2196FE0164916623A7
:102B8000B9F740914A0550914B0560914C05709101
:102B90004D0583E193E00E94312140914E05509113
:102BA0004F05609150057091510580E193E00E94BE
:102BB0003121409152055091530560915405709117
:102BC00055058DE093E00E943121409156055091CA
:102BD000570560915805709159058AE093E00E946D
:102BE00031218DE79CE068E071E00E940F158DE7D0
:102BF0009CE06AE00E94D90FF8016491C3EED0E036
:102C000007C08DE79CE00E94D90F2196FE016491D8
:102C10006623B9F7ECEEF2E06491EF0107C08DE7AF
:102C20009CE00E94D90F2196FE0164916623B9F7BA
:102C30008DE79CE06AE00E94D90FF8016491C3EE31
:102C4000D0E007C08DE79CE00E94D90F2196FE01DD
:102C500064916623B9F740916A0550916B056091C4
:102C60006C0570916D0583EE92E00E94BC1B409153
:102C70006E0550916F05609170057091710580EE41
:102C800092E00E94BC1B40917205509173056091C7
:102C90007405709175058DED92E00E94BC1B40910A
:102CA00076055091770560917805709179058AEDE8
:102CB00092E00E94BC1B8DE79CE068E071E00E94FE
:102CC0000F158DE79CE06AE00E94D90FF80164912E
:102CD000C3EED0E007C08DE79CE00E94D90F21969B
:102CE000FE0164916623B9F7E5EAF2E06491EF0131
:102CF00007C08DE79CE00E94D90F2196FE016491E8
:102D00006623B9F78DE79CE06AE00E94D90FF801CD
:102D10006491C3EED0E007C08DE79CE00E94D90F1C
:102D20002196FE0164916623B9F740917E0550918A
:102D30007F0560918005709181058CE992E00E9489
:102D400031214091820550918305609184057091F5
:102D5000850589E992E00E9431218DE79CE068E0D9
:102D600071E00E940F158DE79CE06AE00E94D90F88
:102D7000F8016491C3EED0E007C08DE79CE00E94AB
:102D8000D90F2196FE0164916623B9F7E6EEF1E0D2
:102D90006491EF0107C08DE79CE00E94D90F219656
:102DA000FE0164916623B9F78DE79CE06AE00E941A
:102DB000D90FF8016491C3EED0E007C08DE79CE025
:102DC0000E94D90F2196FE0164916623B9F74091C4
:102DD0007A0550917B0560917C0570917D058DEDA4
:102DE00091E00E94312140919205509193056091AC
:102DF0009405709195058AED91E00E9431214091F2
:102E0000460550914705609148057091490587ED49
:102E100091E00E94BC1B409186055091870560910E
:102E200088057091890584ED91E00E9431214091DF
:102E30008A0550918B0560918C0570918D0581ED0F
:102E400091E00E94312140918E0550918F05609153
:102E50009005709191058EEC91E00E9431218DE7F3
:102E60009CE068E071E00E940F158DE79CE06AE04D
:102E70000E94D90FF8016491C3EED0E007C08DE73E
:102E80009CE00E94D90F2196FE0164916623B9F758
:102E9000ECEBF1E06491EF0107C08DE79CE00E944C
:102EA000D90F2196FE0164916623B9F78DE79CE066
:102EB0006AE00E94D90FF8016491C3EED0E007C028
:102EC0008DE79CE00E94D90F2196FE016491662354
:102ED000B9F7409160035091610360916203709172
:102EE000630383EB91E00E94312140916403509190
:102EF0006503609166037091670380EB91E00E9427
:102F00003121409168035091690360916A03709187
:102F10006B038DEA91E00E9431218DE79CE068E02F
:102F200071E00E940F158DE79CE06AE00E94D90FC6
:102F3000F8016491C3EED0E007C08DE79CE00E94E9
:102F4000D90F2196FE0164916623B9F7EFE9F1E00C
:102F50006491EF0107C08DE79CE00E94D90F219694
:102F6000FE0164916623B9F78DE79CE06AE00E9458
:102F7000D90FF8016491C3EED0E007C08DE79CE063
:102F80000E94D90F2196FE0164916623B9F7409102
:102F90009702509198026091990270919A0285E986
:102FA00091E00E94312160919B0270919C0280917E
:102FB0009D0290919E020E94A164AB01BC0182E936
:102FC00091E00E94312160919F027091A002809156
:102FD000A1029091A2020E94AF64AB01BC018FE8F4
:102FE00091E00E9431218DE79CE068E071E00E9451
:102FF0000F158DE79CE06AE00E94D90FF8016491FB
:10300000C3EED0E007C08DE79CE00E94D90F219667
:10301000FE0164916623B9F7ECE7F1E06491EF01FA
:1030200007C08DE79CE00E94D90F2196FE016491B4
:103030006623B9F78DE79CE06AE00E94D90FF8019A
:103040006491C3EED0E007C08DE79CE00E94D90FE9
:103050002196FE0164916623B9F7409131025091A7
:103060003202609133027091340283E791E00E9452
:1030700031214091350250913602609137027091B2
:10308000380280E791E00E9431214091390250914D
:103090003A0260913B0270913C028DE691E00E9401
:1030A00031218DE79CE068E071E00E940F158DE70B
:1030B0009CE06AE00E94D90FF8016491C3EED0E071
:1030C00007C08DE79CE00E94D90F2196FE01649114
:1030D0006623B9F7EAE5F1E06491EF0107C08DE7F7
:1030E0009CE00E94D90F2196FE0164916623B9F7F6
:1030F0008DE79CE06AE00E94D90FF8016491C3EE6D
:10310000D0E007C08DE79CE00E94D90F2196FE0118
:1031100064916623B9F740913D0250913E0260915F
:103120003F027091400281E591E00E94312140917F
:1031300041025091420260914302709144028EE438
:1031400091E00E94312140914502509146026091E8
:103150004702709148028BE491E00E9431218DE793
:103160009CE068E071E00E940F158DE79CE06AE04A
:103170000E94D90FF8016491C3EED0E007C08DE73B
:103180009CE00E94D90F2196FE0164916623B9F755
:10319000E4E3F1E06491EF0107C08DE79CE00E9459
:1031A000D90F2196FE0164916623B9F78DE79CE063
:1031B0006AE00E94D90FF8016491C3EED0E007C025
:1031C0008DE79CE00E94D90F2196FE016491662351
:1031D000B9F74091490250914A0260914B027091B7
:1031E0004C028BE291E00E94312140914D025091BE
:1031F0004E0260914F027091500288E291E00E946D
:1032000031214091510250915202609153027091CC
:10321000540285E291E00E9431218DE79CE068E054
:1032200071E00E940F158DE79CE06AE00E94D90FC3
:10323000DF91CF911F910F9108950F931F93DF930B
:10324000CF93CDB7DEB766970FB6F894DEBF0FBE4B
:10325000CDBF8091040190910501A0910601B0912C
:1032600007018B8B9C8BAD8BBE8BFE013F9604E6DA
:1032700010E0F999FECF12BD01BDF89A80B58083A8
:103280000F5F1F4F0836110511F03196F2CFCE01B6
:103290004396BE01615F7F4F43E050E00E942A0DDC
:1032A000009709F017C2EAE5F5E0F999FECF12BDE3
:1032B00001BDF89A80B580830F5F1F4F0837110555
:1032C00011F03196F2CFEAE4F5E0F999FECF12BDA4
:1032D00001BDF89A80B580830F5F1F4F0838110534
:1032E00011F03196F2CFEAE6F5E0F999FECF12BD82
:1032F00001BDF89A80B580830F5F1F4F0839110513
:1033000011F03196F2CF0E943548EEE7F5E0F999D9
:10331000FECF12BD01BDF89A80B580830F5F1F4FAD
:103320000C39110511F03196F2CFE2E8F5E0F99988
:10333000FECF12BD01BDF89A80B580830F5F1F4F8D
:10334000003A110511F03196F2CFEAE7F5E0F9996C
:10335000FECF12BD01BDF89A80B580830F5F1F4F6D
:10336000043A110511F03196F2CFE2E9F5E0F9994E
:10337000FECF12BD01BDF89A80B580830F5F1F4F4D
:10338000083A110511F03196F2CFE6E4F5E0F9992B
:10339000FECF12BD01BDF89A80B580830F5F1F4F2D
:1033A0000C3A110511F03196F2CFE6E8F5E0F99903
:1033B000FECF12BD01BDF89A80B580830F5F1F4F0D
:1033C000003B110511F03196F2CFEAE8F5E0F999EA
:1033D000FECF12BD01BDF89A80B580830F5F1F4FED
:1033E000043B110511F03196F2CFEEE8F5E0F999C2
:1033F000FECF12BD01BDF89A80B580830F5F1F4FCD
:10340000083B110511F03196F2CFE0E6F3E0F999AF
:10341000FECF12BD01BDF89A80B580830F5F1F4FAC
:10342000043C110511F03196F2CFFE013196F99965
:10343000FECF12BD01BDF89A80B580830F5F1F4F8C
:10344000063C110599F7FE013396F999FECF12BD9E
:1034500001BDF89A80B580830F5F1F4F083C1105AE
:1034600011F03196F2CFFE013596F999FECF12BDDB
:1034700001BDF89A80B580830F5F1F4F0A3C11058C
:1034800011F03196F2CFFE013796F999FECF12BDB9
:1034900001BDF89A80B580830F5F1F4F0C3C11056A
:1034A00011F03196F2CFFE013996F999FECF12BD97
:1034B00001BDF89A80B580830F5F1F4F0E3C110548
:1034C00011F03196F2CFFE013B96F999FECF12BD75
:1034D00001BDF89A80B580830F5F1F4F003D110535
:1034E00011F03196F2CFE9E4F2E0F999FECF12BD86
:1034F00001BDF89A80B580830F5F1F4F043D110511
:1035000011F03196F2CFEDE4F2E0F999FECF12BD61
:1035100001BDF89A80B580830F5F1F4F083D1105EC
:1035200011F03196F2CFE1E5F2E0F999FECF12BD4C
:1035300001BDF89A80B580830F5F1F4F0C3D1105C8
:1035400011F03196F2CFE7E9F2E0F999FECF12BD22
:1035500001BDF89A80B580830F5F1F4F003E1105B3
:1035600011F03196F2CFEBE9F2E0F999FECF12BDFE
:1035700001BDF89A80B580830F5F1F4F043E11058F
:1035800011F03196F2CFEFE9F2E0F999FECF12BDDA
:1035900001BDF89A80B580830F5F1F4F083E11056B
:1035A00011F03196F2CFFE013D96F999FECF12BD92
:1035B00001BDF89A80B580830F5F1F4F0A3E110549
:1035C00011F03196F2CFE1E3F2E0F999FECF12BDAE
:1035D00001BDF89A80B580830F5F1F4F0E3E110525
:1035E00011F03196F2CFEDE3F2E0F999FECF12BD82
:1035F00001BDF89A80B580830F5F1F4F023F110510
:1036000011F03196F2CFE5E3F2E0F999FECF12BD69
:1036100001BDF89A80B580830F5F1F4F063F1105EB
:1036200011F03196F2CFE1E4F2E0F999FECF12BD4C
:1036300001BDF89A80B580830F5F1F4F0A3F1105C7
:1036400011F03196F2CFE9E3F2E0F999FECF12BD25
:1036500001BDF89A80B580830F5F1F4F0E3F1105A3
:1036600011F03196F2CFE5E4F2E0F999FECF12BD08
:1036700001BDF89A80B5808381E00130180721F000
:103680000F5F1F4F3196F1CF0E945D64E3EEF0E0D3
:1036900064918F0108C08DE79CE00E94D90F0F5FF5
:1036A0001F4FF80164916623B1F7EBE0F1E06491FC
:1036B0008F0108C08DE79CE00E94D90F0F5F1F4F5C
:1036C000F80164916623B1F78DE79CE06AE00E94FF
:1036D000D90F02C00E9410130E94231566960FB6E0
:1036E000F894DEBF0FBECDBFCF91DF911F910F9138
:1036F0000895CF93DF930FB6F8948091740C909156
:10370000750CA091760CB091770C0FBE8093850359
:1037100090938603A0938703B0938803E9E0F4E0D5
:103720006491EF0107C08DE79CE00E94D90F2196BC
:10373000FE0164916623B9F78DE79CE06AE00E9480
:10374000D90FDF91CF910895089580917A0308955C
:10375000CF93DF93DB010D900020E9F71197A61BB3
:10376000B70BEC01E881F9810280F381E02DAD0116
:103770000995DF91CF910895EF92FF920F931F93D8
:10378000CF93DF93EC017A018B01FC01649107C0B8
:103790008DE79CE00E94D90F2196FE01649166237B
:1037A000B9F78DE79CE0B801A7012AE000E00E948C
:1037B0004D7EDF91CF911F910F91FF90EF90089573
:1037C000CF93DF930E94806480917A03882309F06D
:1037D00034C081E080937A0380917D0390917E03D1
:1037E000A0917F03B0918003809381039093820323
:1037F000A0938303B0938403EDE6F3E06491EF01BB
:1038000007C08DE79CE00E94D90F2196FE016491CC
:103810006623B9F7E4E7F3E06491EF0107C08DE7B1
:103820009CE00E94D90F2196FE0164916623B9F7AE
:103830008DE79CE06AE00E94D90FDF91CF91089557
:10384000CF93DF93F8940E948064779A10926C0370
:10385000769A10926D03479A10926E03439AEDE6A2
:10386000F3E06491EF0107C08DE79CE00E94D90F5F
:103870002196FE0164916623B9F7EAEEF3E06491C4
:10388000EF0107C08DE79CE00E94D90F2196FE0151
:1038900064916623B9F78DE79CE06AE00E94D90F36
:1038A000FFCFEF92FF920F931F930FB6F894809182
:1038B000740C9091750CA091760CB091770C0FBEA2
:1038C000E0908903F0908A0300918B0310918C03A0
:1038D000209185033091860340918703509188039E
:1038E000821B930BA40BB50BE816F9060A071B07FE
:1038F00038F4E114F1040105110511F00E94201CB7
:10390000E0905502F0905602009157021091580233
:10391000E114F1040105110561F10FB6F8948091ED
:10392000740C9091750CA091760CB091770C0FBE31
:10393000209185033091860340918703509188033D
:10394000821B930BA40BB50BE816F9060A071B079D
:1039500080F49091870A8091880A981751F4779A99
:1039600010926C03769A10926D03479A10926E0330
:10397000439A0E94FE471F910F91FF90EF90089588
:103980006F927F928F929F92AF92BF92CF92DF926F
:10399000EF92FF920F931F93F82E60918D03709119
:1039A0008E0380918F039091900320919103309129
:1039B000920340919303509194030E94B1843B0180
:1039C0004C0100D000D000D00DB71EB70F5F1F4FC5
:1039D00060912C0270912D02882777FD8095982F99
:1039E0000E9438832091590230915A0240915B0223
:1039F00050915C020E94768520E030E040E752E47E
:103A00000E949D8220E030E048EC52E40E949D82BA
:103A10005B016C01F8016082718282829382F48280
:103A200080916F03858380E593E069E973E04DE859
:103A300053E020E001E032E0E32E0E944943809110
:103A4000990390919A03A0919B03B0919C0380935A
:103A5000500390935103A0935203B093530380916A
:103A60009D0390919E03A0919F03B091A00380932A
:103A7000540390935503A0935603B093570380913A
:103A8000A1039091A203A091A303B091A4038093FA
:103A9000580390935903A0935A03B0935B0380910A
:103AA000A5039091A603A091A703B091A8038093CA
:103AB0005C0390935D03A0935E03B0935F030FB626
:103AC000F8948091740C9091750CA091760CB09143
:103AD000770C0FBE8093850390938603A093870392
:103AE000B09388038DB79EB706960FB6F8949EBF25
:103AF0000FBE8DBF1F910F91FF90EF90DF90CF9081
:103B0000BF90AF909F908F907F906F9008954F924D
:103B10005F926F927F928F929F92AF92BF92CF925D
:103B2000DF92EF92FF920F931F93DF93CF9300D01A
:103B300000D0CDB7DEB70FB6F8948091740C909199
:103B4000750CA091760CB091770C0FBE8093850315
:103B500090938603A0938703B09388038091990381
:103B600090919A03A0919B03B0919C0389839A83BF
:103B7000AB83BC83609150037091510380915203D9
:103B80009091530329813A814B815C810E949682F6
:103B9000882309F09DC040909D0350909E03609043
:103BA0009F037090A003609154037091550380911E
:103BB000560390915703A30192010E949682882395
:103BC00009F086C000D0CDB6DEB60894C11CD11C69
:103BD000E090A103F090A2030091A3031091A4032D
:103BE0006091590270915A0280915B0290915C023F
:103BF00020E030E040E752E40E949D824B015C01EE
:103C00008FE693E0D6018D939C9369817A818B81B5
:103C10009C81A3019201E5EACE2EE3E0DE2E0E9414
:103C2000344E0F900F908091990390919A03A09138
:103C30009B03B0919C038093500390935103A093F6
:103C40005203B093530380919D0390919E03A091E2
:103C50009F03B091A0038093540390935503A093C6
:103C60005603B09357038091A1039091A203A091B2
:103C7000A303B091A4038093580390935903A09396
:103C80005A03B0935B038091A5039091A603A09182
:103C9000A703B091A80380935C0390935D03A09366
:103CA0005E03B0935F030F900F900F900F90CF9132
:103CB000DF911F910F91FF90EF90DF90CF90BF9019
:103CC000AF909F908F907F906F905F904F900895EE
:103CD00000D0CDB6DEB60894C11CD11C40909D0327
:103CE00050909E0360909F037090A003E090A1030A
:103CF000F090A2030091A3031091A40360912C0201
:103D000070912D02882777FD8095982F0E94388327
:103D10002091590230915A0240915B0250915C020D
:103D20000E94768520E030E040E752E40E949D82C8
:103D300020E030E048EC52E40E949D824B015C019F
:103D40008FE693E0F601918380835FCFCF93DF937B
:103D50008DE79CE00E941380ECE0F4E06491EF01B9
:103D600007C08DE79CE00E94D90F2196FE01649167
:103D70006623B9F740917D0350917E0360917F03E4
:103D8000709180034F5F5F4F6F4F7F4F8DE79CE0D7
:103D90000E94DA7E8DE79CE06AE00E94D90F0E94C3
:103DA000791BDF91CF9108954F925F926F927F922E
:103DB0008F929F92AF92BF92CF92DF92EF92FF923B
:103DC0000F931F934090590250905A0260905B02EB
:103DD00070905C020F2EF0E0AF2EF0E8BF2EFBE3F8
:103DE000CF2EF5E4DF2EF02DA0925902B0925A02A8
:103DF000C0925B02D0925C026093500370935103B7
:103E000080935203909353032093540330935503AC
:103E10004093560350935703E0925803F09259038E
:103E200000935A0310935B0300D0EFE6F3E0ADB7C5
:103E3000BEB71296FC93EE931197FCE5CF2EF3E0FC
:103E4000DF2E0F2EF0E08F2EF0E09F2EF8E4AF2E45
:103E5000F2E4BF2EF02D0E94344E0F900F900E947E
:103E6000755D4092590250925A0260925B027092C4
:103E70005C021F910F91FF90EF90DF90CF90BF9069
:103E8000AF909F908F907F906F905F904F9008952C
:103E9000F8946AE070E080E090E00E94277B81E087
:103EA0008093E00080E28093D80064E670E080E0D8
:103EB00090E00E94277B1DBA109268001CBC10BEC7
:103EC0001FBA10927A0010926E0010926F0010923A
:103ED0007000109271001092C9001092BC0011B8CD
:103EE00014B817B81AB81DB810BA12B815B818B85F
:103EF0001BB81EB811BA0C9400F8FFCF4091B40360
:103F00005091B50320E630E0B901469F9001479FEC
:103F1000300D569F300D1124682F772767FD70955F
:103F2000C9018A549C4F0E941F0D9C019093B303BA
:103F30008093B20380E0232B09F081E008952F9253
:103F40003F924F925F926F927F928F929F92AF9229
:103F5000BF92CF92DF92EF92FF920F931F93DF9366
:103F6000CF93CDB7DEB72E970FB6F894DEBF0FBE56
:103F7000CDBF8EE592E00E94F971609124027091AC
:103F80002502809126029091270260935902709336
:103F90005A0280935B0290935C0200D0CDB6DEB6ED
:103FA0000894C11CD11CE0905003F0905103009183
:103FB0005203109153034090540350905503609066
:103FC000560370905703ACE52A2EA3E03A2E20E06A
:103FD00030E040E752E40E949D824B015C01EFE635
:103FE000F3E0D601ED93FC93C801B701A301920160
:103FF0000F2EF0E0EF2EF0E0FF2EF0E20F2FF1ECAD
:104000001F2FF02D61010E94344E0F900F900E94DF
:10401000755D82E00E94D15B4B015C0160915003B1
:104020007091510380915203909153032091540356
:104030003091550340915603509157038501740107
:104040000E947E4825E635E0F90185919591A5917C
:10405000B49189839A83AB83BC83C501B401298160
:104060003A814B815C810E94BD816D837E838F8309
:10407000988700D0CDB6DEB60894C11CD11CE09064
:104080005003F0905103009152031091530340905C
:1040900054035090550360905603709057036091FD
:1040A000590270915A0280915B0290915C0220E06B
:1040B00030E040E752E40E949D824B015C01EFE654
:1040C000F3E0D601ED93FC93C801B701A30192017F
:1040D000ED80FE800F81188561010E94344E0F90A3
:1040E0000F900E94755D609124027091250280916D
:1040F00026029091270220E030E040E85EE30E9433
:1041000076855B016C016093590270935A0280932B
:104110005B0290935C0200D08DB79EB701969E879C
:104120008D874090500350905103609052037090DF
:1041300053038091540390915503A0915603B0917D
:10414000570389879A87AB87BC8769817A818B817E
:104150009C8120E030E040E050EC0E9476859B019D
:10416000AC016D817E818F8198850E94BD817B012C
:104170008C01C601B50120E030E040E752E40E9426
:104180009D824B015C01EFE6F3E0AD85BE85ED93CA
:10419000FC93C301B20129853A854B855C85610199
:1041A0000E94344E0F900F900E94755D82E00E9435
:1041B000D15B7B018C01609358037093590380930A
:1041C0005A0390935B036091500370915103809167
:1041D0005203909153032091540330915503409121
:1041E0005603509157030E947E482E960FB6F894BE
:1041F000DEBF0FBECDBFCF91DF911F910F91FF901A
:10420000EF90DF90CF90BF90AF909F908F907F9076
:104210006F905F904F903F902F900895EF92FF9294
:104220000F931F93CF93DF93EC017A018B01FC0175
:10423000649107C08DE79CE00E94D90F2196FE0192
:1042400064916623B9F78DE79CE0B801A70122E0ED
:104250000E94EC7EDF91CF911F910F91FF90EF9024
:104260000895EF92FF920F931F93CF93DF93EC018A
:104270007A018B01FC01649107C08DE79CE00E94EC
:10428000D90F2196FE0164916623B9F78DE79CE072
:10429000B801A70122E00E94EC7EDF91CF911F912F
:1042A0000F91FF90EF9008958091B2039091B30326
:1042B000019660E070E04AE050E00E94BE0B089575
:1042C0008091B2039091B303019660E070E00E9488
:1042D0005E0A08950F931F93CF93DF938C01809113
:1042E0006F0380937C0384E50E947E1F882309F47A
:1042F0004FC00E9460210E940A8360937C03662362
:1043000009F446C0E7E6F3E06491EF0107C08DE7EA
:104310009CE00E94D90F2196FE0164916623B9F7B3
:104320000936110599F00A36110524F408361105ED
:10433000E9F407C00D36110571F00A3D1105B1F41D
:104340000FC08DE79CE069E071E00EC08DE79CE056
:1043500060E271E009C08DE79CE067E371E004C0B2
:104360008DE79CE06EE471E00E94A81B40917C0305
:1043700050E060E070E08DE79CE02AE000E00E9401
:104380004D7E8DE79CE06AE00E94D90F81E001C07C
:1043900080E0DF91CF911F910F910895AF92BF926E
:1043A000CF92DF92EF92FF920F931F93CF93DF9301
:1043B000B0E5EB2EB3E0FB2EC9E9D3E000E010E05E
:1043C000F801EA51FD4F80810E947E1F882339F158
:1043D0000E9460215B016C01F801E65BFC4F80816B
:1043E000882311F061E002C06091A90370E0882782
:1043F00077FD8095982F0E943883F70120813181C5
:10440000428153810E9476859B01AC01C601B501B2
:104410000E94BD81688379838A839B8309C0F701E9
:1044200080819181A281B38188839983AA83BB8390
:104430000F5F1F4F84E090E0E80EF91E24960430D1
:10444000110509F0BDCF86E40E947E1F8823E1F0AC
:104450000E9460217B018C016093AA037093AB03DF
:104460008093AC039093AD0320E030E040E050E057
:104470000E94A484181644F4E0925902F0925A0261
:1044800000935B0210935C02DF91CF911F910F911B
:10449000FF90EF90DF90CF90BF90AF9008950E9473
:1044A000CE2189E40E947E1F882359F00E9460215A
:1044B00060938D0370938E0380938F03909390038A
:1044C0000CC080E090E0A0E0B0E080938D0390937A
:1044D0008E03A0938F03B09390038AE40E947E1F03
:1044E000882359F00E946021609391037093920396
:1044F0008093930390939403089580E090E0A0E06C
:10450000B0E08093910390939203A0939303B093B0
:10451000940308952F923F924F925F926F927F92F1
:104520008F929F92AF92BF92CF92DF92EF92FF92C3
:104530000F931F93DF93CF93CDB7DEB7AC970FB632
:10454000F894DEBF0FBECDBF9E878D87892B19F4EF
:10455000E9E6F5E007C02D853E852130310531F4CF
:10456000EAE6F5E0E491E7FF52C30CC04D855E85B5
:104570004230510509F04BC3EBE6F5E0E491E7FF6B
:1045800046C399C08D859E85029709F0A7C093C048
:104590000E9460210894211C311C0E942C4820E0BC
:1045A00030E040E050E020935C0330935D034093A3
:1045B0005E0350935F0360915003709151038091AB
:1045C000520390915303209154033091550340912D
:1045D000560350915703E0905803F090590300910F
:1045E0005A0310915B03FCE5CF2EF3E0DF2E0E940F
:1045F0007E4880E090E0A0E8BFE38093A50390931D
:10460000A603A093A703B093A8036091240270911E
:10461000250280912602909127026093590270939F
:104620005A0280935B0290935C0200D0CDB6DEB656
:104630000894C11CD11C4090990350909A0360903B
:104640009B0370909C0320919D0330919E034091A9
:104650009F035091A0032F87388B498B5A8BE09092
:10466000A103F090A2030091A3031091A40320E002
:1046700030E040E752E40E949D824B015C01EFE68E
:10468000F3E0D601ED93FC93C301B2012F85388985
:1046900049895A89E5EACE2EE3E0DE2E0E94344EA7
:1046A0000F900F900E94755D60E070E080E293E4EF
:1046B0000E942C4802C022243324649B0FC0FFE0D8
:1046C0002F16310459F083E50E947E1F882309F0DC
:1046D0005FCF60E070E080E090E05CCF2D843E84AE
:1046E000220C331C220C331C9101205B3C4F3C8B71
:1046F0002B8B80E090E0A0E0B0E0F9018083918313
:10470000A283B3836091500370915103809152034F
:1047100090915303209154033091550340915603D7
:1047200050915703E0905803F090590300915A03B9
:1047300010915B03ACE5CA2EA3E0DA2E0E947E48FE
:104740008E010F5F1F4F8CE0D8011D928A95E9F70B
:1047500060913D0270913E0280913F029091400233
:104760002091310230913202409133025091340253
:104770000E94BC8169837A838B839C836091410210
:10478000709142028091430290914402209135023F
:104790003091360240913702509138020E94BC811C
:1047A0006D837E838F839887609145027091460266
:1047B00080914702909148022091390230913A024B
:1047C00040913B0250913C020E94BC8169877A87EC
:1047D0008B879C87ED85FE85E759FA4FD490F101D0
:1047E000E756FC4FFE8BED8B020D131DD8016D912A
:1047F0007D918D919C9120E030E040EC5FE30E9440
:1048000076857B018C016D2D772767FD7095872F4D
:10481000972F0E9438836F8B788F898F9A8FC8016A
:10482000B7012F89388D498D5A8D0E947685ED8983
:10483000FE8960837183828393839101245E3D4F5F
:104840003C8F2B8FD9016D917D918D919C916093BF
:10485000590270935A0280935B0290935C0200D0DD
:10486000CDB6DEB60894C11CD11C4090990350907F
:104870009A0360909B0370909C0320919D0330915C
:104880009E0340919F035091A0032D8F3E8F4F8F29
:1048900058A3E090A103F090A2030091A30310910C
:1048A000A40320E030E040E752E40E949D824B01E7
:1048B0005C01EFE6F3E0D601ED93FC93C301B20196
:1048C0002D8D3E8D4F8D58A1F5EACF2EF3E0DF2ED2
:1048D0000E94344E0F900F900E94755D20E030E0F2
:1048E00040E050E0AB89BC892D933D934D935C93A0
:1048F00013976091500370915103809152039091EE
:104900005303209154033091550340915603509125
:104910005703E0905803F090590300915A03109107
:104920005B03ECE5CE2EE3E0DE2E0E947E48EDE553
:10493000F5E02E0E3F1EF101459055906590749064
:10494000C301B20190582F89388D498D5A8D0E942C
:104950007685AD89BE896D937D938D939C931397D6
:1049600000D0CDB6DEB60894C11CD11C20919903AD
:1049700030919A0340919B0350919C0329A33AA341
:104980004BA35CA380919D0390919E03A0919F03F4
:10499000B091A0038DA39EA3AFA3B8A7E090A103FD
:1049A000F090A2030091A3031091A4036091590217
:1049B00070915A0280915B0290915C0220E030E09D
:1049C00040E752E40E949D824B015C01EFE6F3E078
:1049D000D601ED93FC9369A17AA18BA19CA12DA195
:1049E0003EA14FA158A5B5EACB2EB3E0DB2E0E9425
:1049F000344E0F900F900E94755DC301B201A30168
:104A000092010E94BD812F89388D498D5A8D0E9457
:104A10007685AD89BE896D937D938D939C93139715
:104A2000EB8DFC8D608171818281938120E030E08B
:104A300040E05FE30E9476856093590270935A02CA
:104A400080935B0290935C0200D0CDB6DEB60894F2
:104A5000C11CD11C4090990350909A0360909B0315
:104A600070909C0320919D0330919E0340919F0381
:104A70005091A00329A73AA74BA75CA7E090A103F8
:104A8000F090A2030091A3031091A40320E030E072
:104A900040E752E40E949D824B015C01EFE6F3E0A7
:104AA000D601ED93FC93C301B20129A53AA54BA50C
:104AB0005CA5A5EACA2EA3E0DA2E0E94344E0F9020
:104AC0000F900E94755D0E94085B2D853E85232B0B
:104AD00009F076C060913102709132028091330208
:104AE00090913402905860935003709351038093D7
:104AF00052039093530320915403309155034091F6
:104B0000560350915703E0905803F09059030091D9
:104B10005A0310915B03FCE5CF2EF3E0DF2E0E94D9
:104B20007E4880E090E0A0E0B0E08093990390930D
:104B30009A03A0939B03B0939C0360911C02709115
:104B40001D0280911E0290911F0260935902709382
:104B50005A0280935B0290935C0200D0CDB6DEB621
:104B60000894C11CD11C40909D0350909E036090FE
:104B70009F037090A003E090A103F090A203009126
:104B8000A3031091A40320E030E040E752E40E9428
:104B90009D824B015C01EFE6F3E0D601ED93FC93BF
:104BA00060E070E080E090E0A3019201E5EACE2EA3
:104BB000E3E0DE2E0E94344E0F900F900E94755D50
:104BC000ED85FE85EE0FFF1FEE0FFF1FDF01A05AE0
:104BD000BC4F2D913D914D915C91DF01A05BBC4F8D
:104BE0002D933D934D935C931397E756FC4F208391
:104BF00031834283538380E090E0A0E0B0E0809373
:104C0000590290935A02A0935B02B0935C02AC9657
:104C10000FB6F894DEBF0FBECDBFCF91DF911F91CD
:104C20000F91FF90EF90DF90CF90BF90AF909F904B
:104C30008F907F906F905F904F903F902F9008954E
:104C40002F923F924F925F926F927F928F929F929C
:104C5000AF92BF92CF92DF92EF92FF920F931F938A
:104C6000DF93CF93CDB7DEB7C65DD0400FB6F894D3
:104C7000DEBF0FBECDBF87E40E947E1F882311F4E4
:104C80000C9435300E9460210E9405836C317105BF
:104C900009F4ADC06D3171059CF462307105C9F144
:104CA0006330710524F4772354F50C94133D63307D
:104CB0007105B9F16430710511F00C94133D3CC0DD
:104CC0006A35710511F40C94C62F6B3571055CF4CF
:104CD0006D31710509F406C46E31710511F00C9443
:104CE000133D0C94FE2E6B35710511F40C94CA2FF4
:104CF0006C35710511F00C94133D0C94CF2F8091FD
:104D00007A03882331F40E94CE210E94871D0C94DF
:104D1000463D80917A03882321F40E944F2281E04E
:104D200007C080917A03882339F40E944F2280E0E3
:104D30000E94C01C0C94463D80E50E947E1F882383
:104D400021F4AA24BB24650106C00E9460210E94B0
:104D50000A835B016C0183E50E947E1F882361F05A
:104D60000E94602120E030E04AE754E40E9476850A
:104D70000E940A835B016C010E94755D0FB6F89476
:104D8000E090740CF090750C0091760C1091770CFB
:104D90000FBEEA0CFB1C0C1D1D1D0FB6F894809174
:104DA000740C9091750CA091760CB091770C0FBE9D
:104DB0008093850390938603A0938703B093880321
:104DC00004C00E94A7680E94511C0FB6F8948091FD
:104DD000740C9091750CA091760CB091770C0FBE6D
:104DE0008E159F05A007B10760F30C94133D8EE567
:104DF00092E00E94F9718091590290915A02A0911B
:104E00005B02B0915C028093AE039093AF03A093DA
:104E1000B003B093B10380912C0290912D02909336
:104E20004F0380934E0384E690E090932D0280938D
:104E30002C020FB6F8948091740C9091750CA0918F
:104E4000760CB091770C0FBE809385039093860308
:104E5000A0938703B093880381E00E940F5B809149
:104E6000500390915103A0915203B091530380934A
:104E7000990390939A03A0939B03B0939C03809112
:104E8000540390915503A0915603B091570380931A
:104E90009D0390939E03A0939F03B093A0038091E2
:104EA000580390915903A0915A03B0915B038093EA
:104EB000A1039093A203A093A303B093A4038091B2
:104EC0005C0390915D03A0915E03B0915F038093BA
:104ED000A5039093A603A093A703B093A80380E033
:104EE00090E0A0E0B0E08093590290935A02A09322
:104EF0005B02B0935C0288E50E947E1F882361F408
:104F000089E50E947E1F882339F48AE50E947E1F6E
:104F1000882311F481E001C080E080935D02882342
:104F200031F488E50E947E1F882309F4D2C180E015
:104F30000E940F5B609124027091250280912602ED
:104F40009091270220E030E040E05FE30E94768508
:104F50006093590270935A0280935B0290935C02B3
:104F6000609158037091590380915A0390915B03AB
:104F700020E030E040E450E40E94968288230CF068
:104F80006EC080E090E0A0E0B0E080935803909382
:104F90005903A0935A03B0935B038093A1039093AA
:104FA000A203A093A303B093A40360915003709154
:104FB00051038091520390915303209154033091F7
:104FC000550340915603509157030F2EF0E0EF2EFA
:104FD000F0E0FF2EF0E00F2FF0E01F2FF02DECE5BA
:104FE000CE2EE3E0DE2E0E947E48A0905003B090CB
:104FF0005103C0905203D0905303609054037090BB
:105000005503809056039090570360915803709118
:10501000590380915A0390915B0320E030E040E80F
:1050200050E40E94BD817B018C01C601B501A40141
:1050300093010E94D41E80E090E0A0E8B0E4809349
:10504000580390935903A0935A03B0935B03809342
:10505000A1039093A203A093A303B093A403809110
:105060001C0290911D02A0911E02B0911F0280931C
:10507000590290935A02A0935B02B0935C020F2EE8
:10508000F0E06F2EF0E07F2EF0E08F2EF0E09F2E0C
:10509000F02D6092500370925103809252039092CF
:1050A00053036092990370929A0380929B039092AB
:1050B0009C03209154033091550340915603509125
:1050C0005703E0905803F090590300915A03109150
:1050D0005B03C401B301BCE5CB2EB3E0DB2E0E9421
:1050E0007E4860E070E080EA90E4209131023091E7
:1050F000320240913302509134020E94BC812091CF
:1051000050033091510340915203509153030E9438
:10511000BD811B012C016091540370915503809156
:10512000560390915703A40193010E94BD815B0136
:105130006C01609158037091590380915A039091CA
:105140005B03A40193010E94BD817B018C01C2011C
:10515000B101A60195010E94D41E60925003709285
:105160005103809252039092530381E00E940F5B9F
:1051700080E090E00E948A2280E00E940F5B6091B4
:105180003102709132028091330290913402609327
:105190005003709351038093520390935303609391
:1051A000990370939A0380939B0390939C0320919F
:1051B0005403309155034091560350915703E090AA
:1051C0005803F090590300915A0310915B03ACE52A
:1051D000CA2EA3E0DA2E0E947E486091500370919F
:1051E00051038091520390915303209131023091E9
:1051F000320240913302509134020E94BD813B0142
:105200004C01609154037091550380915603909125
:10521000570320E030E040E050E00E94BD815B0198
:105220006C01609158037091590380915A039091D9
:105230005B0320E030E040E050E00E94BD817B0154
:105240008C01C401B301A60195010E94D41E809176
:105250005D02882389F08091600390916103A091A1
:105260006203B09163038093500390935103A09322
:105270005203B09353031AC06091600370916103AD
:105280008091620390916303209131023091320248
:1052900040913302509134020E94BC8160935003CC
:1052A0007093510380935203909353038091500362
:1052B00090915103A0915203B091530380939903AD
:1052C00090939A03A0939B03B0939C0381E00E9468
:1052D0000F5B80915D02882329F489E50E947E1F7F
:1052E000882321F081E090E00E948A2280915D0273
:1052F000882329F48AE50E947E1F882321F082E01A
:1053000090E00E948A2280915D02882329F488E53A
:105310000E947E1F882361F10E945421611571054E
:1053200081059105A9F00E946021209160033091D0
:10533000610340916203509163030E94BD816093B9
:10534000500370935103809352039093530310C002
:105350008091600390916103A0916203B091630317
:105360008093500390935103A0935203B09353033F
:1053700080915D02882329F489E50E947E1F88239D
:1053800061F10E9454216115710581059105A9F013
:105390000E9460212091640330916503409166036F
:1053A000509167030E94BD8160935403709355032D
:1053B000809356039093570310C08091640390919B
:1053C0006503A0916603B0916703809354039093A3
:1053D0005503A0935603B093570380915D02882331
:1053E00029F48AE50E947E1F882361F10E945421DE
:1053F0006115710581059105A9F00E946021209138
:1054000068033091690340916A0350916B030E94D5
:10541000BD81609358037093590380935A0390930E
:105420005B0310C08091680390916903A0916A03A7
:10543000B0916B038093580390935903A0935A0340
:10544000B0935B03609150037091510380915203BC
:10545000909153032091540330915503409156038A
:1054600050915703E0905803F090590300915A036C
:1054700010915B03FCE5CF2EF3E0DF2E0E947E4807
:1054800080E00E940F5B8091AE039091AF03A091EA
:10549000B003B091B1038093590290935A02A09344
:1054A0005B02B0935C0280914E0390914F03909306
:1054B0002D0280932C020FB6F8948091740C909179
:1054C000750CA091760CB091770C0FBE809385037C
:1054D00090938603A0938703B09388030E94085B90
:1054E0000C94133D0E94755D8EE592E00E94F97167
:1054F000CE010D960E947A496D857E858F859889AB
:10550000609350037093510380935203909353031D
:1055100029893A894B895C89209354033093550338
:105520004093560350935703ED88FE880F89188DDA
:10553000E0925803F092590300935A0310935B03CF
:10554000ECE5CE2EE3E0DE2E0E947E4880915902EB
:1055500090915A02A0915B02B0915C028093AE03DD
:105560009093AF03A093B003B093B10380912C024A
:1055700090912D0290934F0380934E0384E690E028
:1055800090932D0280932C020FB6F8948091740CA6
:105590009091750CA091760CB091770C0FBE809312
:1055A000850390938603A0938703B093880381E0DB
:1055B0000E940F5B8091240290912502A091260207
:1055C000B09127028093590290935A02A0935B02F4
:1055D000B0935C026091500370915103809152032B
:1055E00090915303209154033091550340915603F9
:1055F000509157030F2EF0E0EF2EF0E0FF2EF0E079
:105600000F2FF0E41F2FF02D0E94D41E60E070E0F9
:1056100080E89FE32091490230914A0240914B0279
:1056200050914C020E94BC815B016C0160E070E013
:1056300084EB92E420914D0230914E0240914F0252
:10564000509150020E94BC819B01AC01E090580334
:10565000F090590300915A0310915B03C601B50104
:105660000E94D41E0E949F1F80915803909159035D
:10567000A0915A03B0915B03CD52DF4F8883998389
:10568000AA83BB83C35DD040E5E5F5E064918F015B
:1056900008C08DE79CE00E94D90F0F5F1F4FF801F3
:1056A00064916623B1F78DE79CE041E050E060E053
:1056B00070E00E94DA7EE0E5F5E064918F0108C0B9
:1056C0008DE79CE00E94D90F0F5F1F4FF801649196
:1056D0006623B1F78DE79CE04AE550E060E070E0BA
:1056E0000E94DA7EEBE4F5E064918F0108C08DE75B
:1056F0009CE00E94D90F0F5F1F4FF8016491662351
:10570000B1F7409158035091590360915A03709139
:105710005B038DE79CE022E00E94EC7EE9E4F5E08B
:1057200064918F0108C08DE79CE00E94D90F0F5F44
:105730001F4FF80164916623B1F7A0905003B09019
:105740005103C0905203D090530360905403709063
:1057500055038090560390905703609158037091C1
:10576000590380915A0390915B0320E030E040E0C0
:1057700050E40E94BD817B018C01C601B501A401EA
:1057800093010E94D41E60E070E080E89FE32091C6
:10579000490230914A0240914B0250914C020E94C2
:1057A000BC815B016C0160E070E080E090E02091E2
:1057B0004D0230914E0240914F02509150020E9492
:1057C000BC819B01AC01E0905803F090590300911B
:1057D0005A0310915B03C601B5010E94D41E0E94BA
:1057E0009F1F209058033090590340905A035090C7
:1057F0005B03E1E4F5E064918F0108C08DE79CE074
:105800000E94D90F0F5F1F4FF80164916623B1F713
:105810008DE79CE041E050E060E070E00E94DA7EBD
:10582000ECE3F5E064918F0108C08DE79CE00E94F5
:10583000D90F0F5F1F4FF80164916623B1F78DE711
:105840009CE040E050E060E070E00E94DA7EE7E338
:10585000F5E064918F0108C08DE79CE00E94D90FAC
:105860000F5F1F4FF80164916623B1F74091580311
:105870005091590360915A0370915B038DE79CE04E
:1058800022E00E94EC7EE5E3F5E064918F0108C020
:105890008DE79CE00E94D90F0F5F1F4FF8016491C4
:1058A0006623B1F7A0905003B0905103C09052030B
:1058B000D09053036090540370905503809056032A
:1058C00090905703609158037091590380915A0347
:1058D00090915B0320E030E040E050E40E94BD8105
:1058E0007B018C01C601B501A40193010E94D41E65
:1058F00060E070E088E492E42091490230914A022D
:1059000040914B0250914C020E94BC815B016C01A2
:1059100060E070E080E090E020914D0230914E0216
:1059200040914F02509150020E94BC819B01AC01FA
:10593000E0905803F090590300915A0310915B03D3
:10594000C601B5010E94D41E0E949F1FEDE2F5E042
:1059500064918F0108C08DE79CE00E94D90F0F5F12
:105960001F4FF80164916623B1F78DE79CE042E395
:1059700050E060E070E00E94DA7EE8E2F5E06491D9
:105980008F0108C08DE79CE00E94D90F0F5F1F4F69
:10599000F80164916623B1F78DE79CE040E050E0A8
:1059A00060E070E00E94DA7EE3E2F5E064918F014E
:1059B00008C08DE79CE00E94D90F0F5F1F4FF801D0
:1059C00064916623B1F74091580350915903609157
:1059D0005A0370915B038DE79CE022E00E94EC7E0D
:1059E000E1E2F5E064918F0108C08DE79CE00E9440
:1059F000D90F0F5F1F4FF80164916623B1F780E064
:105A00000E940F5B8091AE039091AF03A091B00311
:105A1000B091B1038093590290935A02A0935B0214
:105A2000B0935C0280914E0390914F0390932D02AE
:105A300080932C020FB6F8948091740C9091750CA1
:105A4000A091760CB091770C0FBE80938503909354
:105A50008603A0938703B09388038EE592E00E94AB
:105A6000F971CE01499640E050E060E87FE300E044
:105A700010E020E030E0720161010E944A6F85E28F
:105A8000682E712C6C0E7D1EC30140E050E060E872
:105A90007FE300E010E024EB32E4CD52DF4FC8801A
:105AA000D980EA80FB80C35DD0400E944A6F01E349
:105AB000A02EB12CAC0EBD1EC50140E050E068E444
:105AC00072E400E010E020E030E0720161010E9429
:105AD0004A6F1DE6812E912C8C0E9D1EC401B501CE
